{
	"data": {
		"bytecode": {
			"linkReferences": {},
			"object": "608060405234801561001057600080fd5b5061092a806100206000396000f3fe608060405234801561001057600080fd5b506004361061002b5760003560e01c806365c7284014610030575b600080fd5b61004a60048036038101906100459190610629565b610060565b6040516100579190610665565b60405180910390f35b600061006b82610076565b604001519050919050565b61007e6105c1565b6000808061008b85610287565b846000019061ffff16908161ffff16815250506100ad6107b261ffff1661039e565b6100be856000015161ffff1661039e565b6100c89190610795565b9150816301e285006100da9190610707565b836100e59190610680565b9250816107b285600001516100fa9190610761565b61ffff166101089190610795565b6301e133806101179190610707565b836101229190610680565b92506000600191505b600c8260ff16116101a2576101448286600001516103f2565b60ff16620151806101559190610707565b90508584826101649190610680565b11156101815781856020019060ff16908160ff16815250506101a2565b808461018d9190610680565b9350818061019a906107ee565b92505061012b565b600191505b6101b9856020015186600001516103f2565b60ff168260ff1611610216578584620151806101d59190610680565b11156101f25781856040019060ff16908160ff1681525050610216565b62015180846102019190610680565b9350818061020e906107ee565b9250506101a7565b61021f866104be565b856060019060ff16908160ff1681525050610239866104eb565b856080019060ff16908160ff16815250506102538661050c565b8560a0019060ff16908160ff168152505061026d86610522565b8560c0019060ff16908160ff168152505050505050919050565b600080600090506000806301e13380856102a191906106d6565b6107b261ffff166102b29190610680565b91506102c36107b261ffff1661039e565b6102d08361ffff1661039e565b6102da9190610795565b9050806301e285006102ec9190610707565b836102f79190610680565b9250806107b2836103089190610761565b61ffff166103169190610795565b6301e133806103259190610707565b836103309190610680565b92505b848311156103935761035060018361034b9190610761565b610552565b1561036c576301e28500836103659190610795565b925061037f565b6301e133808361037c9190610795565b92505b60018261038c9190610761565b9150610333565b819350505050919050565b60006001826103ad9190610795565b9150610190826103bd91906106d6565b6064836103ca91906106d6565b6004846103d791906106d6565b6103e19190610795565b6103eb9190610680565b9050919050565b600060018360ff161480610409575060038360ff16145b80610417575060058360ff16145b80610425575060078360ff16145b80610433575060088360ff16145b806104415750600a8360ff16145b8061044f5750600c8360ff16145b1561045d57601f90506104b8565b60048360ff161480610472575060068360ff16145b80610480575060098360ff16145b8061048e5750600b8360ff16145b1561049c57601e90506104b8565b6104a582610552565b156104b357601d90506104b8565b601c90505b92915050565b60006018603c80846104d091906106d6565b6104da91906106d6565b6104e49190610849565b9050919050565b6000603c80836104fb91906106d6565b6105059190610849565b9050919050565b6000603c8261051b9190610849565b9050919050565b600060076004620151808461053791906106d6565b6105419190610680565b61054b9190610849565b9050919050565b6000806004836105629190610818565b61ffff161461057457600090506105bc565b60006064836105839190610818565b61ffff161461059557600190506105bc565b6000610190836105a59190610818565b61ffff16146105b757600090506105bc565b600190505b919050565b6040518060e00160405280600061ffff168152602001600060ff168152602001600060ff168152602001600060ff168152602001600060ff168152602001600060ff168152602001600060ff1681525090565b600081359050610623816108dd565b92915050565b60006020828403121561063f5761063e6108d8565b5b600061064d84828501610614565b91505092915050565b61065f816107e1565b82525050565b600060208201905061067a6000830184610656565b92915050565b600061068b826107d7565b9150610696836107d7565b9250827fffffffffffffffffffffffffffffffffffffffffffffffffffffffffffffffff038211156106cb576106ca61087a565b5b828201905092915050565b60006106e1826107d7565b91506106ec836107d7565b9250826106fc576106fb6108a9565b5b828204905092915050565b6000610712826107d7565b915061071d836107d7565b9250817fffffffffffffffffffffffffffffffffffffffffffffffffffffffffffffffff04831182151516156107565761075561087a565b5b828202905092915050565b600061076c826107c9565b9150610777836107c9565b92508282101561078a5761078961087a565b5b828203905092915050565b60006107a0826107d7565b91506107ab836107d7565b9250828210156107be576107bd61087a565b5b828203905092915050565b600061ffff82169050919050565b6000819050919050565b600060ff82169050919050565b60006107f9826107e1565b915060ff82141561080d5761080c61087a565b5b600182019050919050565b6000610823826107c9565b915061082e836107c9565b92508261083e5761083d6108a9565b5b828206905092915050565b6000610854826107d7565b915061085f836107d7565b92508261086f5761086e6108a9565b5b828206905092915050565b7f4e487b7100000000000000000000000000000000000000000000000000000000600052601160045260246000fd5b7f4e487b7100000000000000000000000000000000000000000000000000000000600052601260045260246000fd5b600080fd5b6108e6816107d7565b81146108f157600080fd5b5056fea2646970667358221220a4cc19744aacc14e9c0e508695c92a3a379667bb864dc3545cb46ad457d955f164736f6c63430008070033",
			"opcodes": "PUSH1 0x80 PUSH1 0x40 MSTORE CALLVALUE DUP1 ISZERO PUSH2 0x10 JUMPI PUSH1 0x0 DUP1 REVERT JUMPDEST POP PUSH2 0x92A DUP1 PUSH2 0x20 PUSH1 0x0 CODECOPY PUSH1 0x0 RETURN INVALID PUSH1 0x80 PUSH1 0x40 MSTORE CALLVALUE DUP1 ISZERO PUSH2 0x10 JUMPI PUSH1 0x0 DUP1 REVERT JUMPDEST POP PUSH1 0x4 CALLDATASIZE LT PUSH2 0x2B JUMPI PUSH1 0x0 CALLDATALOAD PUSH1 0xE0 SHR DUP1 PUSH4 0x65C72840 EQ PUSH2 0x30 JUMPI JUMPDEST PUSH1 0x0 DUP1 REVERT JUMPDEST PUSH2 0x4A PUSH1 0x4 DUP1 CALLDATASIZE SUB DUP2 ADD SWAP1 PUSH2 0x45 SWAP2 SWAP1 PUSH2 0x629 JUMP JUMPDEST PUSH2 0x60 JUMP JUMPDEST PUSH1 0x40 MLOAD PUSH2 0x57 SWAP2 SWAP1 PUSH2 0x665 JUMP JUMPDEST PUSH1 0x40 MLOAD DUP1 SWAP2 SUB SWAP1 RETURN JUMPDEST PUSH1 0x0 PUSH2 0x6B DUP3 PUSH2 0x76 JUMP JUMPDEST PUSH1 0x40 ADD MLOAD SWAP1 POP SWAP2 SWAP1 POP JUMP JUMPDEST PUSH2 0x7E PUSH2 0x5C1 JUMP JUMPDEST PUSH1 0x0 DUP1 DUP1 PUSH2 0x8B DUP6 PUSH2 0x287 JUMP JUMPDEST DUP5 PUSH1 0x0 ADD SWAP1 PUSH2 0xFFFF AND SWAP1 DUP2 PUSH2 0xFFFF AND DUP2 MSTORE POP POP PUSH2 0xAD PUSH2 0x7B2 PUSH2 0xFFFF AND PUSH2 0x39E JUMP JUMPDEST PUSH2 0xBE DUP6 PUSH1 0x0 ADD MLOAD PUSH2 0xFFFF AND PUSH2 0x39E JUMP JUMPDEST PUSH2 0xC8 SWAP2 SWAP1 PUSH2 0x795 JUMP JUMPDEST SWAP2 POP DUP2 PUSH4 0x1E28500 PUSH2 0xDA SWAP2 SWAP1 PUSH2 0x707 JUMP JUMPDEST DUP4 PUSH2 0xE5 SWAP2 SWAP1 PUSH2 0x680 JUMP JUMPDEST SWAP3 POP DUP2 PUSH2 0x7B2 DUP6 PUSH1 0x0 ADD MLOAD PUSH2 0xFA SWAP2 SWAP1 PUSH2 0x761 JUMP JUMPDEST PUSH2 0xFFFF AND PUSH2 0x108 SWAP2 SWAP1 PUSH2 0x795 JUMP JUMPDEST PUSH4 0x1E13380 PUSH2 0x117 SWAP2 SWAP1 PUSH2 0x707 JUMP JUMPDEST DUP4 PUSH2 0x122 SWAP2 SWAP1 PUSH2 0x680 JUMP JUMPDEST SWAP3 POP PUSH1 0x0 PUSH1 0x1 SWAP2 POP JUMPDEST PUSH1 0xC DUP3 PUSH1 0xFF AND GT PUSH2 0x1A2 JUMPI PUSH2 0x144 DUP3 DUP7 PUSH1 0x0 ADD MLOAD PUSH2 0x3F2 JUMP JUMPDEST PUSH1 0xFF AND PUSH3 0x15180 PUSH2 0x155 SWAP2 SWAP1 PUSH2 0x707 JUMP JUMPDEST SWAP1 POP DUP6 DUP5 DUP3 PUSH2 0x164 SWAP2 SWAP1 PUSH2 0x680 JUMP JUMPDEST GT ISZERO PUSH2 0x181 JUMPI DUP2 DUP6 PUSH1 0x20 ADD SWAP1 PUSH1 0xFF AND SWAP1 DUP2 PUSH1 0xFF AND DUP2 MSTORE POP POP PUSH2 0x1A2 JUMP JUMPDEST DUP1 DUP5 PUSH2 0x18D SWAP2 SWAP1 PUSH2 0x680 JUMP JUMPDEST SWAP4 POP DUP2 DUP1 PUSH2 0x19A SWAP1 PUSH2 0x7EE JUMP JUMPDEST SWAP3 POP POP PUSH2 0x12B JUMP JUMPDEST PUSH1 0x1 SWAP2 POP JUMPDEST PUSH2 0x1B9 DUP6 PUSH1 0x20 ADD MLOAD DUP7 PUSH1 0x0 ADD MLOAD PUSH2 0x3F2 JUMP JUMPDEST PUSH1 0xFF AND DUP3 PUSH1 0xFF AND GT PUSH2 0x216 JUMPI DUP6 DUP5 PUSH3 0x15180 PUSH2 0x1D5 SWAP2 SWAP1 PUSH2 0x680 JUMP JUMPDEST GT ISZERO PUSH2 0x1F2 JUMPI DUP2 DUP6 PUSH1 0x40 ADD SWAP1 PUSH1 0xFF AND SWAP1 DUP2 PUSH1 0xFF AND DUP2 MSTORE POP POP PUSH2 0x216 JUMP JUMPDEST PUSH3 0x15180 DUP5 PUSH2 0x201 SWAP2 SWAP1 PUSH2 0x680 JUMP JUMPDEST SWAP4 POP DUP2 DUP1 PUSH2 0x20E SWAP1 PUSH2 0x7EE JUMP JUMPDEST SWAP3 POP POP PUSH2 0x1A7 JUMP JUMPDEST PUSH2 0x21F DUP7 PUSH2 0x4BE JUMP JUMPDEST DUP6 PUSH1 0x60 ADD SWAP1 PUSH1 0xFF AND SWAP1 DUP2 PUSH1 0xFF AND DUP2 MSTORE POP POP PUSH2 0x239 DUP7 PUSH2 0x4EB JUMP JUMPDEST DUP6 PUSH1 0x80 ADD SWAP1 PUSH1 0xFF AND SWAP1 DUP2 PUSH1 0xFF AND DUP2 MSTORE POP POP PUSH2 0x253 DUP7 PUSH2 0x50C JUMP JUMPDEST DUP6 PUSH1 0xA0 ADD SWAP1 PUSH1 0xFF AND SWAP1 DUP2 PUSH1 0xFF AND DUP2 MSTORE POP POP PUSH2 0x26D DUP7 PUSH2 0x522 JUMP JUMPDEST DUP6 PUSH1 0xC0 ADD SWAP1 PUSH1 0xFF AND SWAP1 DUP2 PUSH1 0xFF AND DUP2 MSTORE POP POP POP POP POP POP SWAP2 SWAP1 POP JUMP JUMPDEST PUSH1 0x0 DUP1 PUSH1 0x0 SWAP1 POP PUSH1 0x0 DUP1 PUSH4 0x1E13380 DUP6 PUSH2 0x2A1 SWAP2 SWAP1 PUSH2 0x6D6 JUMP JUMPDEST PUSH2 0x7B2 PUSH2 0xFFFF AND PUSH2 0x2B2 SWAP2 SWAP1 PUSH2 0x680 JUMP JUMPDEST SWAP2 POP PUSH2 0x2C3 PUSH2 0x7B2 PUSH2 0xFFFF AND PUSH2 0x39E JUMP JUMPDEST PUSH2 0x2D0 DUP4 PUSH2 0xFFFF AND PUSH2 0x39E JUMP JUMPDEST PUSH2 0x2DA SWAP2 SWAP1 PUSH2 0x795 JUMP JUMPDEST SWAP1 POP DUP1 PUSH4 0x1E28500 PUSH2 0x2EC SWAP2 SWAP1 PUSH2 0x707 JUMP JUMPDEST DUP4 PUSH2 0x2F7 SWAP2 SWAP1 PUSH2 0x680 JUMP JUMPDEST SWAP3 POP DUP1 PUSH2 0x7B2 DUP4 PUSH2 0x308 SWAP2 SWAP1 PUSH2 0x761 JUMP JUMPDEST PUSH2 0xFFFF AND PUSH2 0x316 SWAP2 SWAP1 PUSH2 0x795 JUMP JUMPDEST PUSH4 0x1E13380 PUSH2 0x325 SWAP2 SWAP1 PUSH2 0x707 JUMP JUMPDEST DUP4 PUSH2 0x330 SWAP2 SWAP1 PUSH2 0x680 JUMP JUMPDEST SWAP3 POP JUMPDEST DUP5 DUP4 GT ISZERO PUSH2 0x393 JUMPI PUSH2 0x350 PUSH1 0x1 DUP4 PUSH2 0x34B SWAP2 SWAP1 PUSH2 0x761 JUMP JUMPDEST PUSH2 0x552 JUMP JUMPDEST ISZERO PUSH2 0x36C JUMPI PUSH4 0x1E28500 DUP4 PUSH2 0x365 SWAP2 SWAP1 PUSH2 0x795 JUMP JUMPDEST SWAP3 POP PUSH2 0x37F JUMP JUMPDEST PUSH4 0x1E13380 DUP4 PUSH2 0x37C SWAP2 SWAP1 PUSH2 0x795 JUMP JUMPDEST SWAP3 POP JUMPDEST PUSH1 0x1 DUP3 PUSH2 0x38C SWAP2 SWAP1 PUSH2 0x761 JUMP JUMPDEST SWAP2 POP PUSH2 0x333 JUMP JUMPDEST DUP2 SWAP4 POP POP POP POP SWAP2 SWAP1 POP JUMP JUMPDEST PUSH1 0x0 PUSH1 0x1 DUP3 PUSH2 0x3AD SWAP2 SWAP1 PUSH2 0x795 JUMP JUMPDEST SWAP2 POP PUSH2 0x190 DUP3 PUSH2 0x3BD SWAP2 SWAP1 PUSH2 0x6D6 JUMP JUMPDEST PUSH1 0x64 DUP4 PUSH2 0x3CA SWAP2 SWAP1 PUSH2 0x6D6 JUMP JUMPDEST PUSH1 0x4 DUP5 PUSH2 0x3D7 SWAP2 SWAP1 PUSH2 0x6D6 JUMP JUMPDEST PUSH2 0x3E1 SWAP2 SWAP1 PUSH2 0x795 JUMP JUMPDEST PUSH2 0x3EB SWAP2 SWAP1 PUSH2 0x680 JUMP JUMPDEST SWAP1 POP SWAP2 SWAP1 POP JUMP JUMPDEST PUSH1 0x0 PUSH1 0x1 DUP4 PUSH1 0xFF AND EQ DUP1 PUSH2 0x409 JUMPI POP PUSH1 0x3 DUP4 PUSH1 0xFF AND EQ JUMPDEST DUP1 PUSH2 0x417 JUMPI POP PUSH1 0x5 DUP4 PUSH1 0xFF AND EQ JUMPDEST DUP1 PUSH2 0x425 JUMPI POP PUSH1 0x7 DUP4 PUSH1 0xFF AND EQ JUMPDEST DUP1 PUSH2 0x433 JUMPI POP PUSH1 0x8 DUP4 PUSH1 0xFF AND EQ JUMPDEST DUP1 PUSH2 0x441 JUMPI POP PUSH1 0xA DUP4 PUSH1 0xFF AND EQ JUMPDEST DUP1 PUSH2 0x44F JUMPI POP PUSH1 0xC DUP4 PUSH1 0xFF AND EQ JUMPDEST ISZERO PUSH2 0x45D JUMPI PUSH1 0x1F SWAP1 POP PUSH2 0x4B8 JUMP JUMPDEST PUSH1 0x4 DUP4 PUSH1 0xFF AND EQ DUP1 PUSH2 0x472 JUMPI POP PUSH1 0x6 DUP4 PUSH1 0xFF AND EQ JUMPDEST DUP1 PUSH2 0x480 JUMPI POP PUSH1 0x9 DUP4 PUSH1 0xFF AND EQ JUMPDEST DUP1 PUSH2 0x48E JUMPI POP PUSH1 0xB DUP4 PUSH1 0xFF AND EQ JUMPDEST ISZERO PUSH2 0x49C JUMPI PUSH1 0x1E SWAP1 POP PUSH2 0x4B8 JUMP JUMPDEST PUSH2 0x4A5 DUP3 PUSH2 0x552 JUMP JUMPDEST ISZERO PUSH2 0x4B3 JUMPI PUSH1 0x1D SWAP1 POP PUSH2 0x4B8 JUMP JUMPDEST PUSH1 0x1C SWAP1 POP JUMPDEST SWAP3 SWAP2 POP POP JUMP JUMPDEST PUSH1 0x0 PUSH1 0x18 PUSH1 0x3C DUP1 DUP5 PUSH2 0x4D0 SWAP2 SWAP1 PUSH2 0x6D6 JUMP JUMPDEST PUSH2 0x4DA SWAP2 SWAP1 PUSH2 0x6D6 JUMP JUMPDEST PUSH2 0x4E4 SWAP2 SWAP1 PUSH2 0x849 JUMP JUMPDEST SWAP1 POP SWAP2 SWAP1 POP JUMP JUMPDEST PUSH1 0x0 PUSH1 0x3C DUP1 DUP4 PUSH2 0x4FB SWAP2 SWAP1 PUSH2 0x6D6 JUMP JUMPDEST PUSH2 0x505 SWAP2 SWAP1 PUSH2 0x849 JUMP JUMPDEST SWAP1 POP SWAP2 SWAP1 POP JUMP JUMPDEST PUSH1 0x0 PUSH1 0x3C DUP3 PUSH2 0x51B SWAP2 SWAP1 PUSH2 0x849 JUMP JUMPDEST SWAP1 POP SWAP2 SWAP1 POP JUMP JUMPDEST PUSH1 0x0 PUSH1 0x7 PUSH1 0x4 PUSH3 0x15180 DUP5 PUSH2 0x537 SWAP2 SWAP1 PUSH2 0x6D6 JUMP JUMPDEST PUSH2 0x541 SWAP2 SWAP1 PUSH2 0x680 JUMP JUMPDEST PUSH2 0x54B SWAP2 SWAP1 PUSH2 0x849 JUMP JUMPDEST SWAP1 POP SWAP2 SWAP1 POP JUMP JUMPDEST PUSH1 0x0 DUP1 PUSH1 0x4 DUP4 PUSH2 0x562 SWAP2 SWAP1 PUSH2 0x818 JUMP JUMPDEST PUSH2 0xFFFF AND EQ PUSH2 0x574 JUMPI PUSH1 0x0 SWAP1 POP PUSH2 0x5BC JUMP JUMPDEST PUSH1 0x0 PUSH1 0x64 DUP4 PUSH2 0x583 SWAP2 SWAP1 PUSH2 0x818 JUMP JUMPDEST PUSH2 0xFFFF AND EQ PUSH2 0x595 JUMPI PUSH1 0x1 SWAP1 POP PUSH2 0x5BC JUMP JUMPDEST PUSH1 0x0 PUSH2 0x190 DUP4 PUSH2 0x5A5 SWAP2 SWAP1 PUSH2 0x818 JUMP JUMPDEST PUSH2 0xFFFF AND EQ PUSH2 0x5B7 JUMPI PUSH1 0x0 SWAP1 POP PUSH2 0x5BC JUMP JUMPDEST PUSH1 0x1 SWAP1 POP JUMPDEST SWAP2 SWAP1 POP JUMP JUMPDEST PUSH1 0x40 MLOAD DUP1 PUSH1 0xE0 ADD PUSH1 0x40 MSTORE DUP1 PUSH1 0x0 PUSH2 0xFFFF AND DUP2 MSTORE PUSH1 0x20 ADD PUSH1 0x0 PUSH1 0xFF AND DUP2 MSTORE PUSH1 0x20 ADD PUSH1 0x0 PUSH1 0xFF AND DUP2 MSTORE PUSH1 0x20 ADD PUSH1 0x0 PUSH1 0xFF AND DUP2 MSTORE PUSH1 0x20 ADD PUSH1 0x0 PUSH1 0xFF AND DUP2 MSTORE PUSH1 0x20 ADD PUSH1 0x0 PUSH1 0xFF AND DUP2 MSTORE PUSH1 0x20 ADD PUSH1 0x0 PUSH1 0xFF AND DUP2 MSTORE POP SWAP1 JUMP JUMPDEST PUSH1 0x0 DUP2 CALLDATALOAD SWAP1 POP PUSH2 0x623 DUP2 PUSH2 0x8DD JUMP JUMPDEST SWAP3 SWAP2 POP POP JUMP JUMPDEST PUSH1 0x0 PUSH1 0x20 DUP3 DUP5 SUB SLT ISZERO PUSH2 0x63F JUMPI PUSH2 0x63E PUSH2 0x8D8 JUMP JUMPDEST JUMPDEST PUSH1 0x0 PUSH2 0x64D DUP5 DUP3 DUP6 ADD PUSH2 0x614 JUMP JUMPDEST SWAP2 POP POP SWAP3 SWAP2 POP POP JUMP JUMPDEST PUSH2 0x65F DUP2 PUSH2 0x7E1 JUMP JUMPDEST DUP3 MSTORE POP POP JUMP JUMPDEST PUSH1 0x0 PUSH1 0x20 DUP3 ADD SWAP1 POP PUSH2 0x67A PUSH1 0x0 DUP4 ADD DUP5 PUSH2 0x656 JUMP JUMPDEST SWAP3 SWAP2 POP POP JUMP JUMPDEST PUSH1 0x0 PUSH2 0x68B DUP3 PUSH2 0x7D7 JUMP JUMPDEST SWAP2 POP PUSH2 0x696 DUP4 PUSH2 0x7D7 JUMP JUMPDEST SWAP3 POP DUP3 PUSH32 0xFFFFFFFFFFFFFFFFFFFFFFFFFFFFFFFFFFFFFFFFFFFFFFFFFFFFFFFFFFFFFFFF SUB DUP3 GT ISZERO PUSH2 0x6CB JUMPI PUSH2 0x6CA PUSH2 0x87A JUMP JUMPDEST JUMPDEST DUP3 DUP3 ADD SWAP1 POP SWAP3 SWAP2 POP POP JUMP JUMPDEST PUSH1 0x0 PUSH2 0x6E1 DUP3 PUSH2 0x7D7 JUMP JUMPDEST SWAP2 POP PUSH2 0x6EC DUP4 PUSH2 0x7D7 JUMP JUMPDEST SWAP3 POP DUP3 PUSH2 0x6FC JUMPI PUSH2 0x6FB PUSH2 0x8A9 JUMP JUMPDEST JUMPDEST DUP3 DUP3 DIV SWAP1 POP SWAP3 SWAP2 POP POP JUMP JUMPDEST PUSH1 0x0 PUSH2 0x712 DUP3 PUSH2 0x7D7 JUMP JUMPDEST SWAP2 POP PUSH2 0x71D DUP4 PUSH2 0x7D7 JUMP JUMPDEST SWAP3 POP DUP2 PUSH32 0xFFFFFFFFFFFFFFFFFFFFFFFFFFFFFFFFFFFFFFFFFFFFFFFFFFFFFFFFFFFFFFFF DIV DUP4 GT DUP3 ISZERO ISZERO AND ISZERO PUSH2 0x756 JUMPI PUSH2 0x755 PUSH2 0x87A JUMP JUMPDEST JUMPDEST DUP3 DUP3 MUL SWAP1 POP SWAP3 SWAP2 POP POP JUMP JUMPDEST PUSH1 0x0 PUSH2 0x76C DUP3 PUSH2 0x7C9 JUMP JUMPDEST SWAP2 POP PUSH2 0x777 DUP4 PUSH2 0x7C9 JUMP JUMPDEST SWAP3 POP DUP3 DUP3 LT ISZERO PUSH2 0x78A JUMPI PUSH2 0x789 PUSH2 0x87A JUMP JUMPDEST JUMPDEST DUP3 DUP3 SUB SWAP1 POP SWAP3 SWAP2 POP POP JUMP JUMPDEST PUSH1 0x0 PUSH2 0x7A0 DUP3 PUSH2 0x7D7 JUMP JUMPDEST SWAP2 POP PUSH2 0x7AB DUP4 PUSH2 0x7D7 JUMP JUMPDEST SWAP3 POP DUP3 DUP3 LT ISZERO PUSH2 0x7BE JUMPI PUSH2 0x7BD PUSH2 0x87A JUMP JUMPDEST JUMPDEST DUP3 DUP3 SUB SWAP1 POP SWAP3 SWAP2 POP POP JUMP JUMPDEST PUSH1 0x0 PUSH2 0xFFFF DUP3 AND SWAP1 POP SWAP2 SWAP1 POP JUMP JUMPDEST PUSH1 0x0 DUP2 SWAP1 POP SWAP2 SWAP1 POP JUMP JUMPDEST PUSH1 0x0 PUSH1 0xFF DUP3 AND SWAP1 POP SWAP2 SWAP1 POP JUMP JUMPDEST PUSH1 0x0 PUSH2 0x7F9 DUP3 PUSH2 0x7E1 JUMP JUMPDEST SWAP2 POP PUSH1 0xFF DUP3 EQ ISZERO PUSH2 0x80D JUMPI PUSH2 0x80C PUSH2 0x87A JUMP JUMPDEST JUMPDEST PUSH1 0x1 DUP3 ADD SWAP1 POP SWAP2 SWAP1 POP JUMP JUMPDEST PUSH1 0x0 PUSH2 0x823 DUP3 PUSH2 0x7C9 JUMP JUMPDEST SWAP2 POP PUSH2 0x82E DUP4 PUSH2 0x7C9 JUMP JUMPDEST SWAP3 POP DUP3 PUSH2 0x83E JUMPI PUSH2 0x83D PUSH2 0x8A9 JUMP JUMPDEST JUMPDEST DUP3 DUP3 MOD SWAP1 POP SWAP3 SWAP2 POP POP JUMP JUMPDEST PUSH1 0x0 PUSH2 0x854 DUP3 PUSH2 0x7D7 JUMP JUMPDEST SWAP2 POP PUSH2 0x85F DUP4 PUSH2 0x7D7 JUMP JUMPDEST SWAP3 POP DUP3 PUSH2 0x86F JUMPI PUSH2 0x86E PUSH2 0x8A9 JUMP JUMPDEST JUMPDEST DUP3 DUP3 MOD SWAP1 POP SWAP3 SWAP2 POP POP JUMP JUMPDEST PUSH32 0x4E487B7100000000000000000000000000000000000000000000000000000000 PUSH1 0x0 MSTORE PUSH1 0x11 PUSH1 0x4 MSTORE PUSH1 0x24 PUSH1 0x0 REVERT JUMPDEST PUSH32 0x4E487B7100000000000000000000000000000000000000000000000000000000 PUSH1 0x0 MSTORE PUSH1 0x12 PUSH1 0x4 MSTORE PUSH1 0x24 PUSH1 0x0 REVERT JUMPDEST PUSH1 0x0 DUP1 REVERT JUMPDEST PUSH2 0x8E6 DUP2 PUSH2 0x7D7 JUMP JUMPDEST DUP2 EQ PUSH2 0x8F1 JUMPI PUSH1 0x0 DUP1 REVERT JUMPDEST POP JUMP INVALID LOG2 PUSH5 0x6970667358 0x22 SLT KECCAK256 LOG4 0xCC NOT PUSH21 0x4AACC14E9C0E508695C92A3A379667BB864DC3545C 0xB4 PUSH11 0xD457D955F164736F6C6343 STOP ADDMOD SMOD STOP CALLER "
		},
		"gasEstimates": {
			"creation": {
				"codeDepositCost": "469200",
				"executionCost": "505",
				"totalCost": "469705"
			},
			"external": {
				"getDay(uint256)": "infinite"
			},
			"internal": {
				"getDaysInMonth(uint8,uint16)": "infinite",
				"getHour(uint256)": "infinite",
				"getMinute(uint256)": "infinite",
				"getMonth(uint256)": "infinite",
				"getSecond(uint256)": "infinite",
				"getWeekday(uint256)": "infinite",
				"getYear(uint256)": "infinite",
				"isLeapYear(uint16)": "infinite",
				"leapYearsBefore(uint256)": "infinite",
				"parseTimestamp(uint256)": "infinite"
			}
		},
		"methodIdentifiers": {
			"getDay(uint256)": "65c72840"
		}
	},
	"abi": [
		{
			"inputs": [
				{
					"internalType": "uint256",
					"name": "timestamp",
					"type": "uint256"
				}
			],
			"name": "getDay",
			"outputs": [
				{
					"internalType": "uint8",
					"name": "",
					"type": "uint8"
				}
			],
			"stateMutability": "pure",
			"type": "function"
		}
	]
}