{
	"data": {
		"bytecode": {
			"linkReferences": {},
			"object": "608060405234801561001057600080fd5b50336000806101000a81548173ffffffffffffffffffffffffffffffffffffffff021916908373ffffffffffffffffffffffffffffffffffffffff16021790555061589280620000616000396000f3fe608060405234801561001057600080fd5b50600436106101165760003560e01c80639b86a6db116100a2578063bf6d247611610071578063bf6d2476146102fe578063c02ebf3214610334578063c22d5f6014610350578063d3994e9c14610383578063f96dc1d51461039f57610116565b80639b86a6db14610271578063a1bb71e5146102a8578063adf5902b146102b2578063b471377f146102e257610116565b806365c72840116100e957806365c72840146101a3578063842eb165146101d35780638690124e146102065780638ae91cee146102375780638da5cb5b1461025357610116565b8063277cebee1461011b578063420dc45f1461013757806351a6c69314610153578063536fde7d14610187575b600080fd5b61013560048036038101906101309190613d51565b6103bb565b005b610151600480360381019061014c9190613d51565b610672565b005b61016d60048036038101906101689190613d51565b610929565b60405161017e95949392919061466c565b60405180910390f35b6101a1600480360381019061019c9190613d7e565b610b17565b005b6101bd60048036038101906101b89190614054565b610d89565b6040516101ca9190614c18565b60405180910390f35b6101ed60048036038101906101e89190614054565b610d9f565b6040516101fd94939291906147c8565b60405180910390f35b610220600480360381019061021b9190614054565b610e67565b60405161022e92919061463c565b60405180910390f35b610251600480360381019061024c9190613fd1565b610f43565b005b61025b6111a2565b60405161026891906145ab565b60405180910390f35b61028b60048036038101906102869190613d51565b6111c6565b60405161029f9897969594939291906146d4565b60405180910390f35b6102b06114d6565b005b6102cc60048036038101906102c79190613d7e565b6115cf565b6040516102d99190614bfd565b60405180910390f35b6102fc60048036038101906102f79190613fd1565b611e46565b005b61031860048036038101906103139190614054565b6122a0565b60405161032b97969594939291906145c6565b60405180910390f35b61034e60048036038101906103499190613f62565b6123ba565b005b61036a60048036038101906103659190614054565b612a62565b60405161037a9493929190614775565b60405180910390f35b61039d60048036038101906103989190613e65565b612bd2565b005b6103b960048036038101906103b49190613dda565b6130e0565b005b60006001600460008473ffffffffffffffffffffffffffffffffffffffff1673ffffffffffffffffffffffffffffffffffffffff1681526020019081526020016000206007015414610442576040517f08c379a0000000000000000000000000000000000000000000000000000000008152600401610439906149bd565b60405180910390fd5b60006003819055505b60018054905060035410156105df576001600354815481106104705761046f6150d1565b5b90600052602060002090600202016001016040516020016104919190614594565b6040516020818303038152906040528051906020012060001c600460008473ffffffffffffffffffffffffffffffffffffffff1673ffffffffffffffffffffffffffffffffffffffff1681526020019081526020016000206000016040516020016104fc9190614594565b6040516020818303038152906040528051906020012060001c14156105c257600160035481548110610531576105306150d1565b5b906000526020600020906002020160000160009054906101000a900473ffffffffffffffffffffffffffffffffffffffff166040516020016105739190614562565b6040516020818303038152906040528051906020012060001c3360405160200161059d9190614562565b6040516020818303038152906040528051906020012060001c14156105c157600190505b5b600360008154809291906105d590614f1c565b919050555061044b565b6001151581151514610626576040517f08c379a000000000000000000000000000000000000000000000000000000000815260040161061d90614afd565b60405180910390fd5b6000600460008473ffffffffffffffffffffffffffffffffffffffff1673ffffffffffffffffffffffffffffffffffffffff168152602001908152602001600020600701819055505050565b60006001600560008473ffffffffffffffffffffffffffffffffffffffff1673ffffffffffffffffffffffffffffffffffffffff16815260200190815260200160002060040154146106f9576040517f08c379a00000000000000000000000000000000000000000000000000000000081526004016106f09061491d565b60405180910390fd5b60006003819055505b600180549050600354101561089657600160035481548110610727576107266150d1565b5b90600052602060002090600202016001016040516020016107489190614594565b6040516020818303038152906040528051906020012060001c600560008473ffffffffffffffffffffffffffffffffffffffff1673ffffffffffffffffffffffffffffffffffffffff1681526020019081526020016000206000016040516020016107b39190614594565b6040516020818303038152906040528051906020012060001c1415610879576001600354815481106107e8576107e76150d1565b5b906000526020600020906002020160000160009054906101000a900473ffffffffffffffffffffffffffffffffffffffff1660405160200161082a9190614562565b6040516020818303038152906040528051906020012060001c336040516020016108549190614562565b6040516020818303038152906040528051906020012060001c141561087857600190505b5b6003600081548092919061088c90614f1c565b9190505550610702565b60011515811515146108dd576040517f08c379a00000000000000000000000000000000000000000000000000000000081526004016108d4906149fd565b60405180910390fd5b6000600560008473ffffffffffffffffffffffffffffffffffffffff1673ffffffffffffffffffffffffffffffffffffffff168152602001908152602001600020600401819055505050565b600560205280600052604060002060009150905080600001805461094c90614eb9565b80601f016020809104026020016040519081016040528092919081815260200182805461097890614eb9565b80156109c55780601f1061099a576101008083540402835291602001916109c5565b820191906000526020600020905b8154815290600101906020018083116109a857829003601f168201915b5050505050908060010160009054906101000a900473ffffffffffffffffffffffffffffffffffffffff1690806002018054610a0090614eb9565b80601f0160208091040260200160405190810160405280929190818152602001828054610a2c90614eb9565b8015610a795780601f10610a4e57610100808354040283529160200191610a79565b820191906000526020600020905b815481529060010190602001808311610a5c57829003601f168201915b505050505090806003018054610a8e90614eb9565b80601f0160208091040260200160405190810160405280929190818152602001828054610aba90614eb9565b8015610b075780601f10610adc57610100808354040283529160200191610b07565b820191906000526020600020905b815481529060010190602001808311610aea57829003601f168201915b5050505050908060040154905085565b60008054906101000a900473ffffffffffffffffffffffffffffffffffffffff1673ffffffffffffffffffffffffffffffffffffffff163373ffffffffffffffffffffffffffffffffffffffff1614610ba5576040517f08c379a0000000000000000000000000000000000000000000000000000000008152600401610b9c90614abd565b60405180910390fd5b60006003819055505b6001805490506003541015610c90578173ffffffffffffffffffffffffffffffffffffffff16600160035481548110610bea57610be96150d1565b5b906000526020600020906002020160000160009054906101000a900473ffffffffffffffffffffffffffffffffffffffff1673ffffffffffffffffffffffffffffffffffffffff161415610c73576040517f08c379a0000000000000000000000000000000000000000000000000000000008152600401610c6a90614b9d565b60405180910390fd5b60036000815480929190610c8690614f1c565b9190505550610bae565b600160405180604001604052808473ffffffffffffffffffffffffffffffffffffffff16815260200183815250908060018154018082558091505060019003906000526020600020906002020160009091909190915060008201518160000160006101000a81548173ffffffffffffffffffffffffffffffffffffffff021916908373ffffffffffffffffffffffffffffffffffffffff1602179055506020820151816001019080519060200190610d49929190613a3b565b5050507fa56696261a6df748ff6bdaa44a250105b44964bbb03caf07bfa2479f295811568282604051610d7d92919061463c565b60405180910390a15050565b6000610d94826134f0565b604001519050919050565b60028181548110610daf57600080fd5b9060005260206000209060040201600091509050806000018054610dd290614eb9565b80601f0160208091040260200160405190810160405280929190818152602001828054610dfe90614eb9565b8015610e4b5780601f10610e2057610100808354040283529160200191610e4b565b820191906000526020600020905b815481529060010190602001808311610e2e57829003601f168201915b5050505050908060010154908060020154908060030154905084565b60018181548110610e7757600080fd5b90600052602060002090600202016000915090508060000160009054906101000a900473ffffffffffffffffffffffffffffffffffffffff1690806001018054610ec090614eb9565b80601f0160208091040260200160405190810160405280929190818152602001828054610eec90614eb9565b8015610f395780601f10610f0e57610100808354040283529160200191610f39565b820191906000526020600020905b815481529060010190602001808311610f1c57829003601f168201915b5050505050905082565b60008060009054906101000a900473ffffffffffffffffffffffffffffffffffffffff1673ffffffffffffffffffffffffffffffffffffffff163373ffffffffffffffffffffffffffffffffffffffff1614610fd4576040517f08c379a0000000000000000000000000000000000000000000000000000000008152600401610fcb9061493d565b60405180910390fd5b60006003819055505b600280549050600354101561108e57600260035481548110611002576110016150d1565b5b90600052602060002090600402016000016040516020016110239190614594565b6040516020818303038152906040528051906020012060001c8560405160200161104d919061457d565b6040516020818303038152906040528051906020012060001c141561107157600190505b6003600081548092919061108490614f1c565b9190505550610fdd565b60001515811515146110d5576040517f08c379a00000000000000000000000000000000000000000000000000000000081526004016110cc9061499d565b60405180910390fd5b60026040518060800160405280878152602001868152602001858152602001848152509080600181540180825580915050600190039060005260206000209060040201600090919091909150600082015181600001908051906020019061113d929190613a3b565b5060208201518160010155604082015181600201556060820151816003015550507f967d29d9cd5e63a44833c45a6d292db030510a8abb92662571394e2edd6e60938585858560405161119394939291906147c8565b60405180910390a15050505050565b60008054906101000a900473ffffffffffffffffffffffffffffffffffffffff1681565b60046020528060005260406000206000915090508060000180546111e990614eb9565b80601f016020809104026020016040519081016040528092919081815260200182805461121590614eb9565b80156112625780601f1061123757610100808354040283529160200191611262565b820191906000526020600020905b81548152906001019060200180831161124557829003601f168201915b5050505050908060010160009054906101000a900473ffffffffffffffffffffffffffffffffffffffff169080600201805461129d90614eb9565b80601f01602080910402602001604051908101604052809291908181526020018280546112c990614eb9565b80156113165780601f106112eb57610100808354040283529160200191611316565b820191906000526020600020905b8154815290600101906020018083116112f957829003601f168201915b50505050509080600301805461132b90614eb9565b80601f016020809104026020016040519081016040528092919081815260200182805461135790614eb9565b80156113a45780601f10611379576101008083540402835291602001916113a4565b820191906000526020600020905b81548152906001019060200180831161138757829003601f168201915b5050505050908060040154908060050180546113bf90614eb9565b80601f01602080910402602001604051908101604052809291908181526020018280546113eb90614eb9565b80156114385780601f1061140d57610100808354040283529160200191611438565b820191906000526020600020905b81548152906001019060200180831161141b57829003601f168201915b50505050509080600601805461144d90614eb9565b80601f016020809104026020016040519081016040528092919081815260200182805461147990614eb9565b80156114c65780601f1061149b576101008083540402835291602001916114c6565b820191906000526020600020905b8154815290600101906020018083116114a957829003601f168201915b5050505050908060070154905088565b60008060009054906101000a900473ffffffffffffffffffffffffffffffffffffffff1673ffffffffffffffffffffffffffffffffffffffff163373ffffffffffffffffffffffffffffffffffffffff1614611567576040517f08c379a000000000000000000000000000000000000000000000000000000000815260040161155e9061495d565b60405180910390fd5b61157042610d89565b60ff1690506001811415611591576007600061158c9190613ac1565b6115cc565b6040517f08c379a00000000000000000000000000000000000000000000000000000000081526004016115c390614a5d565b60405180910390fd5b50565b6000806000806000806000806115e442610d89565b60ff169150600182141561162d576040517f08c379a0000000000000000000000000000000000000000000000000000000008152600401611624906149dd565b60405180910390fd5b6001600560003373ffffffffffffffffffffffffffffffffffffffff1673ffffffffffffffffffffffffffffffffffffffff16815260200190815260200160002060040154146116b2576040517f08c379a00000000000000000000000000000000000000000000000000000000081526004016116a99061497d565b60405180910390fd5b6001600460008c73ffffffffffffffffffffffffffffffffffffffff1673ffffffffffffffffffffffffffffffffffffffff1681526020019081526020016000206007015414611737576040517f08c379a000000000000000000000000000000000000000000000000000000000815260040161172e90614b1d565b60405180910390fd5b600460008b73ffffffffffffffffffffffffffffffffffffffff1673ffffffffffffffffffffffffffffffffffffffff16815260200190815260200160002060040154925060006003819055505b60028054905060035410156118c3576002600354815481106117aa576117a96150d1565b5b90600052602060002090600402016000016040516020016117cb9190614594565b6040516020818303038152906040528051906020012060001c896040516020016117f5919061457d565b6040516020818303038152906040528051906020012060001c14156118a6576001965060026003548154811061182e5761182d6150d1565b5b9060005260206000209060040201600301549450600083141561187a57600260035481548110611861576118606150d1565b5b90600052602060002090600402016001015493506118a5565b6002600354815481106118905761188f6150d1565b5b90600052602060002090600402016002015493505b5b600360008154809291906118b990614f1c565b9190505550611785565b600115158715151461190a576040517f08c379a000000000000000000000000000000000000000000000000000000000815260040161190190614add565b60405180910390fd5b6000965060006003819055505b6006805490506003541015611a9e5760066003548154811061193c5761193b6150d1565b5b906000526020600020906004020160010160009054906101000a900473ffffffffffffffffffffffffffffffffffffffff1660405160200161197e9190614562565b6040516020818303038152906040528051906020012060001c336040516020016119a89190614562565b6040516020818303038152906040528051906020012060001c1415611a81576006600354815481106119dd576119dc6150d1565b5b90600052602060002090600402016002016040516020016119fe9190614594565b6040516020818303038152906040528051906020012060001c89604051602001611a28919061457d565b6040516020818303038152906040528051906020012060001c1415611a805784600660035481548110611a5e57611a5d6150d1565b5b90600052602060002090600402016003015410611a7f576001965060035495505b5b5b60036000815480929190611a9490614f1c565b9190505550611917565b6001151587151514611ae5576040517f08c379a0000000000000000000000000000000000000000000000000000000008152600401611adc90614a3d565b60405180910390fd5b6000965060006003819055505b6007805490506003541015611c4557600760035481548110611b1757611b166150d1565b5b906000526020600020906007020160010160009054906101000a900473ffffffffffffffffffffffffffffffffffffffff16604051602001611b599190614562565b6040516020818303038152906040528051906020012060001c8a604051602001611b839190614562565b6040516020818303038152906040528051906020012060001c1415611c2857600760035481548110611bb857611bb76150d1565b5b9060005260206000209060070201600201604051602001611bd99190614594565b6040516020818303038152906040528051906020012060001c89604051602001611c03919061457d565b6040516020818303038152906040528051906020012060001c1415611c2757600196505b5b60036000815480929190611c3b90614f1c565b9190505550611af2565b6000151587151514611c8c576040517f08c379a0000000000000000000000000000000000000000000000000000000008152600401611c8390614b5d565b60405180910390fd5b600780549050905060076040518060e001604052803373ffffffffffffffffffffffffffffffffffffffff1681526020018c73ffffffffffffffffffffffffffffffffffffffff1681526020018b815260200186815260200187815260200142815260200183815250908060018154018082558091505060019003906000526020600020906007020160009091909190915060008201518160000160006101000a81548173ffffffffffffffffffffffffffffffffffffffff021916908373ffffffffffffffffffffffffffffffffffffffff16021790555060208201518160010160006101000a81548173ffffffffffffffffffffffffffffffffffffffff021916908373ffffffffffffffffffffffffffffffffffffffff1602179055506040820151816002019080519060200190611dc8929190613a3b565b50606082015181600301556080820151816004015560a0820151816005015560c0820151816006015550507f16e42b147668aa01f606265244409cd8d6ffe3b4a78cd76ad729921d05f34b4b338b8b87894287604051611e2e97969594939291906145c6565b60405180910390a18097505050505050505092915050565b60008060008054906101000a900473ffffffffffffffffffffffffffffffffffffffff1673ffffffffffffffffffffffffffffffffffffffff163373ffffffffffffffffffffffffffffffffffffffff1614611ed7576040517f08c379a0000000000000000000000000000000000000000000000000000000008152600401611ece9061493d565b60405180910390fd5b60006003819055505b6002805490506003541015611f9657600260035481548110611f0557611f046150d1565b5b9060005260206000209060040201600001604051602001611f269190614594565b6040516020818303038152906040528051906020012060001c86604051602001611f50919061457d565b6040516020818303038152906040528051906020012060001c1415611f79576001915060035490505b60036000815480929190611f8c90614f1c565b9190505550611ee0565b6001151582151514611fdd576040517f08c379a0000000000000000000000000000000000000000000000000000000008152600401611fd490614bbd565b60405180910390fd5b6000851480611fec5750600084145b156121dc57600260016002805490506120059190614dda565b81548110612016576120156150d1565b5b90600052602060002090600402016000016002828154811061203b5761203a6150d1565b5b906000526020600020906004020160000190805461205890614eb9565b612063929190613ae5565b50600260016002805490506120789190614dda565b81548110612089576120886150d1565b5b906000526020600020906004020160020154600282815481106120af576120ae6150d1565b5b906000526020600020906004020160020181905550600260016002805490506120d89190614dda565b815481106120e9576120e86150d1565b5b9060005260206000209060040201600101546002828154811061210f5761210e6150d1565b5b906000526020600020906004020160010181905550600260016002805490506121389190614dda565b81548110612149576121486150d1565b5b9060005260206000209060040201600301546002828154811061216f5761216e6150d1565b5b9060005260206000209060040201600301819055506002805480612196576121956150a2565b5b6001900381819060005260206000209060040201600080820160006121bb9190613b72565b60018201600090556002820160009055600382016000905550509055612298565b84600282815481106121f1576121f06150d1565b5b906000526020600020906004020160020181905550836002828154811061221b5761221a6150d1565b5b9060005260206000209060040201600101819055508260028281548110612245576122446150d1565b5b9060005260206000209060040201600301819055507f967d29d9cd5e63a44833c45a6d292db030510a8abb92662571394e2edd6e60938685878660405161228f94939291906147c8565b60405180910390a15b505050505050565b600781815481106122b057600080fd5b90600052602060002090600702016000915090508060000160009054906101000a900473ffffffffffffffffffffffffffffffffffffffff16908060010160009054906101000a900473ffffffffffffffffffffffffffffffffffffffff169080600201805461231f90614eb9565b80601f016020809104026020016040519081016040528092919081815260200182805461234b90614eb9565b80156123985780601f1061236d57610100808354040283529160200191612398565b820191906000526020600020905b81548152906001019060200180831161237b57829003601f168201915b5050505050908060030154908060040154908060050154908060060154905087565b60008060006003819055505b600180549050600354101561249d576001600354815481106123eb576123ea6150d1565b5b906000526020600020906002020160000160009054906101000a900473ffffffffffffffffffffffffffffffffffffffff1660405160200161242d9190614562565b6040516020818303038152906040528051906020012060001c336040516020016124579190614562565b6040516020818303038152906040528051906020012060001c1415612480576001915060035490505b6003600081548092919061249390614f1c565b91905055506123c6565b60011515821515146124e4576040517f08c379a00000000000000000000000000000000000000000000000000000000081526004016124db90614b7d565b60405180910390fd5b6000915060006003819055505b60028054905060035410156125a257600260035481548110612516576125156150d1565b5b90600052602060002090600402016000016040516020016125379190614594565b6040516020818303038152906040528051906020012060001c84604051602001612561919061457d565b6040516020818303038152906040528051906020012060001c141561258557600191505b6003600081548092919061259890614f1c565b91905055506124f1565b60011515821515146125e9576040517f08c379a00000000000000000000000000000000000000000000000000000000081526004016125e090614a7d565b60405180910390fd5b600091506001600560008773ffffffffffffffffffffffffffffffffffffffff1673ffffffffffffffffffffffffffffffffffffffff1681526020019081526020016000206004015414612672576040517f08c379a00000000000000000000000000000000000000000000000000000000081526004016126699061497d565b60405180910390fd5b60006003819055505b60068054905060035410156128b1576006600354815481106126a05761269f6150d1565b5b90600052602060002090600402016000016040516020016126c19190614594565b6040516020818303038152906040528051906020012060001c600182815481106126ee576126ed6150d1565b5b906000526020600020906002020160010160405160200161270f9190614594565b6040516020818303038152906040528051906020012060001c141561289457600660035481548110612744576127436150d1565b5b906000526020600020906004020160010160009054906101000a900473ffffffffffffffffffffffffffffffffffffffff166040516020016127869190614562565b6040516020818303038152906040528051906020012060001c856040516020016127b09190614562565b6040516020818303038152906040528051906020012060001c1415612893576006600354815481106127e5576127e46150d1565b5b90600052602060002090600402016002016040516020016128069190614594565b6040516020818303038152906040528051906020012060001c84604051602001612830919061457d565b6040516020818303038152906040528051906020012060001c14156128925782600660035481548110612866576128656150d1565b5b906000526020600020906004020160030160008282546128869190614cc5565b92505081905550600191505b5b5b600360008154809291906128a790614f1c565b919050555061267b565b600015158215151415612a5b5760066040518060800160405280600184815481106128df576128de6150d1565b5b906000526020600020906002020160010180546128fb90614eb9565b80601f016020809104026020016040519081016040528092919081815260200182805461292790614eb9565b80156129745780601f1061294957610100808354040283529160200191612974565b820191906000526020600020905b81548152906001019060200180831161295757829003601f168201915b505050505081526020018773ffffffffffffffffffffffffffffffffffffffff16815260200186815260200185815250908060018154018082558091505060019003906000526020600020906004020160009091909190915060008201518160000190805190602001906129e9929190613a3b565b5060208201518160010160006101000a81548173ffffffffffffffffffffffffffffffffffffffff021916908373ffffffffffffffffffffffffffffffffffffffff1602179055506040820151816002019080519060200190612a4d929190613a3b565b506060820151816003015550505b5050505050565b60068181548110612a7257600080fd5b9060005260206000209060040201600091509050806000018054612a9590614eb9565b80601f0160208091040260200160405190810160405280929190818152602001828054612ac190614eb9565b8015612b0e5780601f10612ae357610100808354040283529160200191612b0e565b820191906000526020600020905b815481529060010190602001808311612af157829003601f168201915b5050505050908060010160009054906101000a900473ffffffffffffffffffffffffffffffffffffffff1690806002018054612b4990614eb9565b80601f0160208091040260200160405190810160405280929190818152602001828054612b7590614eb9565b8015612bc25780601f10612b9757610100808354040283529160200191612bc2565b820191906000526020600020905b815481529060010190602001808311612ba557829003601f168201915b5050505050908060030154905084565b60008060006003819055505b6001805490506003541015612cb557600160035481548110612c0357612c026150d1565b5b906000526020600020906002020160000160009054906101000a900473ffffffffffffffffffffffffffffffffffffffff16604051602001612c459190614562565b6040516020818303038152906040528051906020012060001c33604051602001612c6f9190614562565b6040516020818303038152906040528051906020012060001c1415612c98576001915060035490505b60036000815480929190612cab90614f1c565b9190505550612bde565b6001151582151514612cfc576040517f08c379a0000000000000000000000000000000000000000000000000000000008152600401612cf390614bdd565b60405180910390fd5b6000600460008a73ffffffffffffffffffffffffffffffffffffffff1673ffffffffffffffffffffffffffffffffffffffff1681526020019081526020016000206007015414612d81576040517f08c379a0000000000000000000000000000000000000000000000000000000008152600401612d7890614b3d565b60405180910390fd5b60018181548110612d9557612d946150d1565b5b9060005260206000209060020201600101600460008a73ffffffffffffffffffffffffffffffffffffffff1673ffffffffffffffffffffffffffffffffffffffff168152602001908152602001600020600001908054612df490614eb9565b612dff929190613ae5565b5087600460008a73ffffffffffffffffffffffffffffffffffffffff1673ffffffffffffffffffffffffffffffffffffffff16815260200190815260200160002060010160006101000a81548173ffffffffffffffffffffffffffffffffffffffff021916908373ffffffffffffffffffffffffffffffffffffffff16021790555086600460008a73ffffffffffffffffffffffffffffffffffffffff1673ffffffffffffffffffffffffffffffffffffffff1681526020019081526020016000206002019080519060200190612ed7929190613a3b565b5085600460008a73ffffffffffffffffffffffffffffffffffffffff1673ffffffffffffffffffffffffffffffffffffffff1681526020019081526020016000206003019080519060200190612f2e929190613a3b565b5084600460008a73ffffffffffffffffffffffffffffffffffffffff1673ffffffffffffffffffffffffffffffffffffffff1681526020019081526020016000206004018190555083600460008a73ffffffffffffffffffffffffffffffffffffffff1673ffffffffffffffffffffffffffffffffffffffff1681526020019081526020016000206005019080519060200190612fcc929190613a3b565b5082600460008a73ffffffffffffffffffffffffffffffffffffffff1673ffffffffffffffffffffffffffffffffffffffff1681526020019081526020016000206006019080519060200190613023929190613a3b565b506001600460008a73ffffffffffffffffffffffffffffffffffffffff1673ffffffffffffffffffffffffffffffffffffffff168152602001908152602001600020600701819055507ff1d38a96e959122b68af7ca2f331211bdf7d2d06138a1d0b885c1a5d791386b3600182815481106130a1576130a06150d1565b5b906000526020600020906002020160010189898989898960016040516130ce98979695949392919061487c565b60405180910390a15050505050505050565b60008060006003819055505b60018054905060035410156131c357600160035481548110613111576131106150d1565b5b906000526020600020906002020160000160009054906101000a900473ffffffffffffffffffffffffffffffffffffffff166040516020016131539190614562565b6040516020818303038152906040528051906020012060001c3360405160200161317d9190614562565b6040516020818303038152906040528051906020012060001c14156131a6576001915060035490505b600360008154809291906131b990614f1c565b91905055506130ec565b600115158215151461320a576040517f08c379a000000000000000000000000000000000000000000000000000000000815260040161320190614a9d565b60405180910390fd5b6000600560008773ffffffffffffffffffffffffffffffffffffffff1673ffffffffffffffffffffffffffffffffffffffff168152602001908152602001600020600401541461328f576040517f08c379a000000000000000000000000000000000000000000000000000000000815260040161328690614a1d565b60405180910390fd5b600181815481106132a3576132a26150d1565b5b9060005260206000209060020201600101600560008773ffffffffffffffffffffffffffffffffffffffff1673ffffffffffffffffffffffffffffffffffffffff16815260200190815260200160002060000190805461330290614eb9565b61330d929190613ae5565b5084600560008773ffffffffffffffffffffffffffffffffffffffff1673ffffffffffffffffffffffffffffffffffffffff16815260200190815260200160002060010160006101000a81548173ffffffffffffffffffffffffffffffffffffffff021916908373ffffffffffffffffffffffffffffffffffffffff16021790555083600560008773ffffffffffffffffffffffffffffffffffffffff1673ffffffffffffffffffffffffffffffffffffffff16815260200190815260200160002060020190805190602001906133e5929190613a3b565b5082600560008773ffffffffffffffffffffffffffffffffffffffff1673ffffffffffffffffffffffffffffffffffffffff168152602001908152602001600020600301908051906020019061343c929190613a3b565b506001600560008773ffffffffffffffffffffffffffffffffffffffff1673ffffffffffffffffffffffffffffffffffffffff168152602001908152602001600020600401819055507f7f97cf19bcbfbd8c842517c4d9ba40083a7540311f006283b99144858913cef0600182815481106134ba576134b96150d1565b5b906000526020600020906002020160010186868660016040516134e1959493929190614814565b60405180910390a15050505050565b6134f8613bb2565b6000808061350585613701565b846000019061ffff16908161ffff16815250506135276107b261ffff16613818565b613538856000015161ffff16613818565b6135429190614dda565b9150816301e285006135549190614d4c565b8361355f9190614cc5565b9250816107b285600001516135749190614da6565b61ffff166135829190614dda565b6301e133806135919190614d4c565b8361359c9190614cc5565b92506000600191505b600c8260ff161161361c576135be82866000015161386c565b60ff16620151806135cf9190614d4c565b90508584826135de9190614cc5565b11156135fb5781856020019060ff16908160ff168152505061361c565b80846136079190614cc5565b9350818061361490614f65565b9250506135a5565b600191505b6136338560200151866000015161386c565b60ff168260ff16116136905785846201518061364f9190614cc5565b111561366c5781856040019060ff16908160ff1681525050613690565b620151808461367b9190614cc5565b9350818061368890614f65565b925050613621565b61369986613938565b856060019060ff16908160ff16815250506136b386613965565b856080019060ff16908160ff16815250506136cd86613986565b8560a0019060ff16908160ff16815250506136e78661399c565b8560c0019060ff16908160ff168152505050505050919050565b600080600090506000806301e133808561371b9190614d1b565b6107b261ffff1661372c9190614cc5565b915061373d6107b261ffff16613818565b61374a8361ffff16613818565b6137549190614dda565b9050806301e285006137669190614d4c565b836137719190614cc5565b9250806107b2836137829190614da6565b61ffff166137909190614dda565b6301e1338061379f9190614d4c565b836137aa9190614cc5565b92505b8483111561380d576137ca6001836137c59190614da6565b6139cc565b156137e6576301e28500836137df9190614dda565b92506137f9565b6301e13380836137f69190614dda565b92505b6001826138069190614da6565b91506137ad565b819350505050919050565b60006001826138279190614dda565b9150610190826138379190614d1b565b6064836138449190614d1b565b6004846138519190614d1b565b61385b9190614dda565b6138659190614cc5565b9050919050565b600060018360ff161480613883575060038360ff16145b80613891575060058360ff16145b8061389f575060078360ff16145b806138ad575060088360ff16145b806138bb5750600a8360ff16145b806138c95750600c8360ff16145b156138d757601f9050613932565b60048360ff1614806138ec575060068360ff16145b806138fa575060098360ff16145b806139085750600b8360ff16145b1561391657601e9050613932565b61391f826139cc565b1561392d57601d9050613932565b601c90505b92915050565b60006018603c808461394a9190614d1b565b6139549190614d1b565b61395e9190614fe4565b9050919050565b6000603c80836139759190614d1b565b61397f9190614fe4565b9050919050565b6000603c826139959190614fe4565b9050919050565b60006007600462015180846139b19190614d1b565b6139bb9190614cc5565b6139c59190614fe4565b9050919050565b6000806004836139dc9190614fb3565b61ffff16146139ee5760009050613a36565b60006064836139fd9190614fb3565b61ffff1614613a0f5760019050613a36565b600061019083613a1f9190614fb3565b61ffff1614613a315760009050613a36565b600190505b919050565b828054613a4790614eb9565b90600052602060002090601f016020900481019282613a695760008555613ab0565b82601f10613a8257805160ff1916838001178555613ab0565b82800160010185558215613ab0579182015b82811115613aaf578251825591602001919060010190613a94565b5b509050613abd9190613c05565b5090565b5080546000825560070290600052602060002090810190613ae29190613c22565b50565b828054613af190614eb9565b90600052602060002090601f016020900481019282613b135760008555613b61565b82601f10613b245780548555613b61565b82800160010185558215613b6157600052602060002091601f016020900482015b82811115613b60578254825591600101919060010190613b45565b5b509050613b6e9190613c05565b5090565b508054613b7e90614eb9565b6000825580601f10613b905750613baf565b601f016020900490600052602060002090810190613bae9190613c05565b5b50565b6040518060e00160405280600061ffff168152602001600060ff168152602001600060ff168152602001600060ff168152602001600060ff168152602001600060ff168152602001600060ff1681525090565b5b80821115613c1e576000816000905550600101613c06565b5090565b5b80821115613cb357600080820160006101000a81549073ffffffffffffffffffffffffffffffffffffffff02191690556001820160006101000a81549073ffffffffffffffffffffffffffffffffffffffff0219169055600282016000613c8a9190613b72565b600382016000905560048201600090556005820160009055600682016000905550600701613c23565b5090565b6000613cca613cc584614c58565b614c33565b905082815260208101848484011115613ce657613ce5615134565b5b613cf1848285614e77565b509392505050565b600081359050613d088161582e565b92915050565b600082601f830112613d2357613d2261512f565b5b8135613d33848260208601613cb7565b91505092915050565b600081359050613d4b81615845565b92915050565b600060208284031215613d6757613d6661513e565b5b6000613d7584828501613cf9565b91505092915050565b60008060408385031215613d9557613d9461513e565b5b6000613da385828601613cf9565b925050602083013567ffffffffffffffff811115613dc457613dc3615139565b5b613dd085828601613d0e565b9150509250929050565b600080600060608486031215613df357613df261513e565b5b6000613e0186828701613cf9565b935050602084013567ffffffffffffffff811115613e2257613e21615139565b5b613e2e86828701613d0e565b925050604084013567ffffffffffffffff811115613e4f57613e4e615139565b5b613e5b86828701613d0e565b9150509250925092565b60008060008060008060c08789031215613e8257613e8161513e565b5b6000613e9089828a01613cf9565b965050602087013567ffffffffffffffff811115613eb157613eb0615139565b5b613ebd89828a01613d0e565b955050604087013567ffffffffffffffff811115613ede57613edd615139565b5b613eea89828a01613d0e565b9450506060613efb89828a01613d3c565b935050608087013567ffffffffffffffff811115613f1c57613f1b615139565b5b613f2889828a01613d0e565b92505060a087013567ffffffffffffffff811115613f4957613f48615139565b5b613f5589828a01613d0e565b9150509295509295509295565b600080600060608486031215613f7b57613f7a61513e565b5b6000613f8986828701613cf9565b935050602084013567ffffffffffffffff811115613faa57613fa9615139565b5b613fb686828701613d0e565b9250506040613fc786828701613d3c565b9150509250925092565b60008060008060808587031215613feb57613fea61513e565b5b600085013567ffffffffffffffff81111561400957614008615139565b5b61401587828801613d0e565b945050602061402687828801613d3c565b935050604061403787828801613d3c565b925050606061404887828801613d3c565b91505092959194509250565b60006020828403121561406a5761406961513e565b5b600061407884828501613d3c565b91505092915050565b61408a81614e0e565b82525050565b6140a161409c82614e0e565b614f8f565b82525050565b6140b081614e65565b82525050565b60006140c182614c9e565b6140cb8185614ca9565b93506140db818560208601614e86565b6140e481615143565b840191505092915050565b60006140fa82614c9e565b6141048185614cba565b9350614114818560208601614e86565b80840191505092915050565b6000815461412d81614eb9565b6141378186614ca9565b94506001821660008114614152576001811461416457614197565b60ff1983168652602086019350614197565b61416d85614c89565b60005b8381101561418f57815481890152600182019150602081019050614170565b808801955050505b50505092915050565b600081546141ad81614eb9565b6141b78186614cba565b945060018216600081146141d257600181146141e357614216565b60ff19831686528186019350614216565b6141ec85614c89565b60005b8381101561420e578154818901526001820191506020810190506141ef565b838801955050505b50505092915050565b600061422c602083614ca9565b915061423782615161565b602082019050919050565b600061424f602383614ca9565b915061425a8261518a565b604082019050919050565b6000614272602783614ca9565b915061427d826151d9565b604082019050919050565b6000614295601e83614ca9565b91506142a082615228565b602082019050919050565b60006142b8601783614ca9565b91506142c382615251565b602082019050919050565b60006142db602783614ca9565b91506142e68261527a565b604082019050919050565b60006142fe605e83614ca9565b9150614309826152c9565b606082019050919050565b6000614321603f83614ca9565b915061432c8261533e565b604082019050919050565b6000614344602f83614ca9565b915061434f8261538d565b604082019050919050565b6000614367602f83614ca9565b9150614372826153dc565b604082019050919050565b600061438a602783614ca9565b91506143958261542b565b604082019050919050565b60006143ad603383614ca9565b91506143b88261547a565b604082019050919050565b60006143d0603f83614ca9565b91506143db826154c9565b604082019050919050565b60006143f3602b83614ca9565b91506143fe82615518565b604082019050919050565b6000614416603083614ca9565b915061442182615567565b604082019050919050565b6000614439604b83614ca9565b9150614444826155b6565b606082019050919050565b600061445c601a83614ca9565b91506144678261562b565b602082019050919050565b600061447f601b83614ca9565b915061448a82615654565b602082019050919050565b60006144a2605883614ca9565b91506144ad8261567d565b606082019050919050565b60006144c5603583614ca9565b91506144d0826156f2565b604082019050919050565b60006144e8603083614ca9565b91506144f382615741565b604082019050919050565b600061450b601a83614ca9565b915061451682615790565b602082019050919050565b600061452e604183614ca9565b9150614539826157b9565b606082019050919050565b61454d81614e4e565b82525050565b61455c81614e58565b82525050565b600061456e8284614090565b60148201915081905092915050565b600061458982846140ef565b915081905092915050565b60006145a082846141a0565b915081905092915050565b60006020820190506145c06000830184614081565b92915050565b600060e0820190506145db600083018a614081565b6145e86020830189614081565b81810360408301526145fa81886140b6565b90506146096060830187614544565b6146166080830186614544565b61462360a0830185614544565b61463060c0830184614544565b98975050505050505050565b60006040820190506146516000830185614081565b818103602083015261466381846140b6565b90509392505050565b600060a082019050818103600083015261468681886140b6565b90506146956020830187614081565b81810360408301526146a781866140b6565b905081810360608301526146bb81856140b6565b90506146ca6080830184614544565b9695505050505050565b60006101008201905081810360008301526146ef818b6140b6565b90506146fe602083018a614081565b818103604083015261471081896140b6565b9050818103606083015261472481886140b6565b90506147336080830187614544565b81810360a083015261474581866140b6565b905081810360c083015261475981856140b6565b905061476860e0830184614544565b9998505050505050505050565b6000608082019050818103600083015261478f81876140b6565b905061479e6020830186614081565b81810360408301526147b081856140b6565b90506147bf6060830184614544565b95945050505050565b600060808201905081810360008301526147e281876140b6565b90506147f16020830186614544565b6147fe6040830185614544565b61480b6060830184614544565b95945050505050565b600060a082019050818103600083015261482e8188614120565b905061483d6020830187614081565b818103604083015261484f81866140b6565b9050818103606083015261486381856140b6565b905061487260808301846140a7565b9695505050505050565b6000610100820190508181036000830152614897818b614120565b90506148a6602083018a614081565b81810360408301526148b881896140b6565b905081810360608301526148cc81886140b6565b90506148db6080830187614544565b81810360a08301526148ed81866140b6565b905081810360c083015261490181856140b6565b905061491060e08301846140a7565b9998505050505050505050565b600060208201905081810360008301526149368161421f565b9050919050565b6000602082019050818103600083015261495681614242565b9050919050565b6000602082019050818103600083015261497681614265565b9050919050565b6000602082019050818103600083015261499681614288565b9050919050565b600060208201905081810360008301526149b6816142ab565b9050919050565b600060208201905081810360008301526149d6816142ce565b9050919050565b600060208201905081810360008301526149f6816142f1565b9050919050565b60006020820190508181036000830152614a1681614314565b9050919050565b60006020820190508181036000830152614a3681614337565b9050919050565b60006020820190508181036000830152614a568161435a565b9050919050565b60006020820190508181036000830152614a768161437d565b9050919050565b60006020820190508181036000830152614a96816143a0565b9050919050565b60006020820190508181036000830152614ab6816143c3565b9050919050565b60006020820190508181036000830152614ad6816143e6565b9050919050565b60006020820190508181036000830152614af681614409565b9050919050565b60006020820190508181036000830152614b168161442c565b9050919050565b60006020820190508181036000830152614b368161444f565b9050919050565b60006020820190508181036000830152614b5681614472565b9050919050565b60006020820190508181036000830152614b7681614495565b9050919050565b60006020820190508181036000830152614b96816144b8565b9050919050565b60006020820190508181036000830152614bb6816144db565b9050919050565b60006020820190508181036000830152614bd6816144fe565b9050919050565b60006020820190508181036000830152614bf681614521565b9050919050565b6000602082019050614c126000830184614544565b92915050565b6000602082019050614c2d6000830184614553565b92915050565b6000614c3d614c4e565b9050614c498282614eeb565b919050565b6000604051905090565b600067ffffffffffffffff821115614c7357614c72615100565b5b614c7c82615143565b9050602081019050919050565b60008190508160005260206000209050919050565b600081519050919050565b600082825260208201905092915050565b600081905092915050565b6000614cd082614e4e565b9150614cdb83614e4e565b9250827fffffffffffffffffffffffffffffffffffffffffffffffffffffffffffffffff03821115614d1057614d0f615015565b5b828201905092915050565b6000614d2682614e4e565b9150614d3183614e4e565b925082614d4157614d40615044565b5b828204905092915050565b6000614d5782614e4e565b9150614d6283614e4e565b9250817fffffffffffffffffffffffffffffffffffffffffffffffffffffffffffffffff0483118215151615614d9b57614d9a615015565b5b828202905092915050565b6000614db182614e20565b9150614dbc83614e20565b925082821015614dcf57614dce615015565b5b828203905092915050565b6000614de582614e4e565b9150614df083614e4e565b925082821015614e0357614e02615015565b5b828203905092915050565b6000614e1982614e2e565b9050919050565b600061ffff82169050919050565b600073ffffffffffffffffffffffffffffffffffffffff82169050919050565b6000819050919050565b600060ff82169050919050565b6000614e7082614e4e565b9050919050565b82818337600083830152505050565b60005b83811015614ea4578082015181840152602081019050614e89565b83811115614eb3576000848401525b50505050565b60006002820490506001821680614ed157607f821691505b60208210811415614ee557614ee4615073565b5b50919050565b614ef482615143565b810181811067ffffffffffffffff82111715614f1357614f12615100565b5b80604052505050565b6000614f2782614e4e565b91507fffffffffffffffffffffffffffffffffffffffffffffffffffffffffffffffff821415614f5a57614f59615015565b5b600182019050919050565b6000614f7082614e58565b915060ff821415614f8457614f83615015565b5b600182019050919050565b6000614f9a82614fa1565b9050919050565b6000614fac82615154565b9050919050565b6000614fbe82614e20565b9150614fc983614e20565b925082614fd957614fd8615044565b5b828206905092915050565b6000614fef82614e4e565b9150614ffa83614e4e565b92508261500a57615009615044565b5b828206905092915050565b7f4e487b7100000000000000000000000000000000000000000000000000000000600052601160045260246000fd5b7f4e487b7100000000000000000000000000000000000000000000000000000000600052601260045260246000fd5b7f4e487b7100000000000000000000000000000000000000000000000000000000600052602260045260246000fd5b7f4e487b7100000000000000000000000000000000000000000000000000000000600052603160045260246000fd5b7f4e487b7100000000000000000000000000000000000000000000000000000000600052603260045260246000fd5b7f4e487b7100000000000000000000000000000000000000000000000000000000600052604160045260246000fd5b600080fd5b600080fd5b600080fd5b600080fd5b6000601f19601f8301169050919050565b60008160601b9050919050565b7f4e6f742061205265676973746572656420526174696f6e2053686f702e2e2e2e600082015250565b7f4f6e6c79206f776e65722063616e2072656769737465722061206e657720497460008201527f656d2e0000000000000000000000000000000000000000000000000000000000602082015250565b7f4f6e6c79204f776e65722043616e2044656c6574652044657461696c73204f6660008201527f20526174696f6e00000000000000000000000000000000000000000000000000602082015250565b7f4e6f74206120526567697374657220526174696f6e2053686f702e2e2e2e0000600082015250565b7f416c72656164792052656769737465726564204974656d000000000000000000600082015250565b7f4e6f742061205265676973746572656420496e646976696475616c204369746960008201527f7a656e2e2e2e2e00000000000000000000000000000000000000000000000000602082015250565b7f546f64617920526174696f6e2077696c6c206e6f742062652070726f7669646560008201527f642e2e2e204b696e646c7920566973697420546f6d6f72726f7720746f204c6160208201527f737420646179206f6620746865204d6f6e746820466f7220526174696f6e0000604082015250565b7f4f6e6c7920537461746520476f7665726e6d656e742063616e2043616e63656c60008201527f20746865204c6963656e7365206f6620526174696f6e2053686f702e2e2e2e00602082015250565b7f416c72656164792072656769737465726564205075626c69632044697374726960008201527f627574696f6e2053686f702e2e2e2e0000000000000000000000000000000000602082015250565b7f54686973206974656d206973206e6f742070726573656e7420696e207468652060008201527f526174696f6e2053686f702e2e2e2e0000000000000000000000000000000000602082015250565b7f546f646179206973206e6f742074686520666972737420446179206f6620746860008201527f65204d6f6e746800000000000000000000000000000000000000000000000000602082015250565b7f54686973206974656d206973206e6f74207265676973746572656420666f722060008201527f726174696f6e2064656c69766572792e2e2e2e00000000000000000000000000602082015250565b7f4f6e6c7920537461746520476f7665726e6d656e742063616e2072656769737460008201527f6572205075626c696320446973747269627574696f6e2053686f702e2e2e2e00602082015250565b7f4f6e6c79206f776e65722063616e20726567697374657220612053746174652060008201527f476f7665726e6d656e742e000000000000000000000000000000000000000000602082015250565b7f54686973206974656d206973206e6f74207265676973746572656420666f722060008201527f726174696f6e2064656c69766572792e00000000000000000000000000000000602082015250565b7f4f6e6c7920537461746520476f7665726e6d656e742063616e2043616e63656c60008201527f2074686520526567697374726174696f6e5f6f665f496e646976696475616c5f60208201527f636974697a656e2e2e2e2e000000000000000000000000000000000000000000604082015250565b7f4e6f74206120526567697374657220436974697a656e2e2e2e2e000000000000600082015250565b7f416c7265616479207265676973746572656420757365722e2e2e2e0000000000600082015250565b7f54686973206974656d20697320616c72656164792074616b656e20627920746860008201527f6520636974697a656e2e2e2e2e204b696e646c7920627579207468697320697460208201527f656d20696e20746865206e657874206d6f6e74682e2e2e2e0000000000000000604082015250565b7f4f6e6c7920537461746520476f7665726e6d656e742063616e2041646420497460008201527f656d20696e20526174696f6e2053686f702e2e2e2e0000000000000000000000602082015250565b7f416c72656164792052656769737465726564207769746820746865204574686560008201527f7265756d20416464726573732e2e2e2e00000000000000000000000000000000602082015250565b7f4e6f7420612052656769737465726564204974656d2e2e2e2e2e000000000000600082015250565b7f4f6e6c79205265676973746572656420537461746520476f7665726e6d656e7460008201527f2063616e20726567697374657220496e646976696475616c20557365722e2e2e60208201527f2e00000000000000000000000000000000000000000000000000000000000000604082015250565b61583781614e0e565b811461584257600080fd5b50565b61584e81614e4e565b811461585957600080fd5b5056fea2646970667358221220363a57f031e914e6da15948cd4a3e648a7b01ff6867298f0d9d798d736e65e9764736f6c63430008070033",
			"opcodes": "PUSH1 0x80 PUSH1 0x40 MSTORE CALLVALUE DUP1 ISZERO PUSH2 0x10 JUMPI PUSH1 0x0 DUP1 REVERT JUMPDEST POP CALLER PUSH1 0x0 DUP1 PUSH2 0x100 EXP DUP2 SLOAD DUP2 PUSH20 0xFFFFFFFFFFFFFFFFFFFFFFFFFFFFFFFFFFFFFFFF MUL NOT AND SWAP1 DUP4 PUSH20 0xFFFFFFFFFFFFFFFFFFFFFFFFFFFFFFFFFFFFFFFF AND MUL OR SWAP1 SSTORE POP PUSH2 0x5892 DUP1 PUSH3 0x61 PUSH1 0x0 CODECOPY PUSH1 0x0 RETURN INVALID PUSH1 0x80 PUSH1 0x40 MSTORE CALLVALUE DUP1 ISZERO PUSH2 0x10 JUMPI PUSH1 0x0 DUP1 REVERT JUMPDEST POP PUSH1 0x4 CALLDATASIZE LT PUSH2 0x116 JUMPI PUSH1 0x0 CALLDATALOAD PUSH1 0xE0 SHR DUP1 PUSH4 0x9B86A6DB GT PUSH2 0xA2 JUMPI DUP1 PUSH4 0xBF6D2476 GT PUSH2 0x71 JUMPI DUP1 PUSH4 0xBF6D2476 EQ PUSH2 0x2FE JUMPI DUP1 PUSH4 0xC02EBF32 EQ PUSH2 0x334 JUMPI DUP1 PUSH4 0xC22D5F60 EQ PUSH2 0x350 JUMPI DUP1 PUSH4 0xD3994E9C EQ PUSH2 0x383 JUMPI DUP1 PUSH4 0xF96DC1D5 EQ PUSH2 0x39F JUMPI PUSH2 0x116 JUMP JUMPDEST DUP1 PUSH4 0x9B86A6DB EQ PUSH2 0x271 JUMPI DUP1 PUSH4 0xA1BB71E5 EQ PUSH2 0x2A8 JUMPI DUP1 PUSH4 0xADF5902B EQ PUSH2 0x2B2 JUMPI DUP1 PUSH4 0xB471377F EQ PUSH2 0x2E2 JUMPI PUSH2 0x116 JUMP JUMPDEST DUP1 PUSH4 0x65C72840 GT PUSH2 0xE9 JUMPI DUP1 PUSH4 0x65C72840 EQ PUSH2 0x1A3 JUMPI DUP1 PUSH4 0x842EB165 EQ PUSH2 0x1D3 JUMPI DUP1 PUSH4 0x8690124E EQ PUSH2 0x206 JUMPI DUP1 PUSH4 0x8AE91CEE EQ PUSH2 0x237 JUMPI DUP1 PUSH4 0x8DA5CB5B EQ PUSH2 0x253 JUMPI PUSH2 0x116 JUMP JUMPDEST DUP1 PUSH4 0x277CEBEE EQ PUSH2 0x11B JUMPI DUP1 PUSH4 0x420DC45F EQ PUSH2 0x137 JUMPI DUP1 PUSH4 0x51A6C693 EQ PUSH2 0x153 JUMPI DUP1 PUSH4 0x536FDE7D EQ PUSH2 0x187 JUMPI JUMPDEST PUSH1 0x0 DUP1 REVERT JUMPDEST PUSH2 0x135 PUSH1 0x4 DUP1 CALLDATASIZE SUB DUP2 ADD SWAP1 PUSH2 0x130 SWAP2 SWAP1 PUSH2 0x3D51 JUMP JUMPDEST PUSH2 0x3BB JUMP JUMPDEST STOP JUMPDEST PUSH2 0x151 PUSH1 0x4 DUP1 CALLDATASIZE SUB DUP2 ADD SWAP1 PUSH2 0x14C SWAP2 SWAP1 PUSH2 0x3D51 JUMP JUMPDEST PUSH2 0x672 JUMP JUMPDEST STOP JUMPDEST PUSH2 0x16D PUSH1 0x4 DUP1 CALLDATASIZE SUB DUP2 ADD SWAP1 PUSH2 0x168 SWAP2 SWAP1 PUSH2 0x3D51 JUMP JUMPDEST PUSH2 0x929 JUMP JUMPDEST PUSH1 0x40 MLOAD PUSH2 0x17E SWAP6 SWAP5 SWAP4 SWAP3 SWAP2 SWAP1 PUSH2 0x466C JUMP JUMPDEST PUSH1 0x40 MLOAD DUP1 SWAP2 SUB SWAP1 RETURN JUMPDEST PUSH2 0x1A1 PUSH1 0x4 DUP1 CALLDATASIZE SUB DUP2 ADD SWAP1 PUSH2 0x19C SWAP2 SWAP1 PUSH2 0x3D7E JUMP JUMPDEST PUSH2 0xB17 JUMP JUMPDEST STOP JUMPDEST PUSH2 0x1BD PUSH1 0x4 DUP1 CALLDATASIZE SUB DUP2 ADD SWAP1 PUSH2 0x1B8 SWAP2 SWAP1 PUSH2 0x4054 JUMP JUMPDEST PUSH2 0xD89 JUMP JUMPDEST PUSH1 0x40 MLOAD PUSH2 0x1CA SWAP2 SWAP1 PUSH2 0x4C18 JUMP JUMPDEST PUSH1 0x40 MLOAD DUP1 SWAP2 SUB SWAP1 RETURN JUMPDEST PUSH2 0x1ED PUSH1 0x4 DUP1 CALLDATASIZE SUB DUP2 ADD SWAP1 PUSH2 0x1E8 SWAP2 SWAP1 PUSH2 0x4054 JUMP JUMPDEST PUSH2 0xD9F JUMP JUMPDEST PUSH1 0x40 MLOAD PUSH2 0x1FD SWAP5 SWAP4 SWAP3 SWAP2 SWAP1 PUSH2 0x47C8 JUMP JUMPDEST PUSH1 0x40 MLOAD DUP1 SWAP2 SUB SWAP1 RETURN JUMPDEST PUSH2 0x220 PUSH1 0x4 DUP1 CALLDATASIZE SUB DUP2 ADD SWAP1 PUSH2 0x21B SWAP2 SWAP1 PUSH2 0x4054 JUMP JUMPDEST PUSH2 0xE67 JUMP JUMPDEST PUSH1 0x40 MLOAD PUSH2 0x22E SWAP3 SWAP2 SWAP1 PUSH2 0x463C JUMP JUMPDEST PUSH1 0x40 MLOAD DUP1 SWAP2 SUB SWAP1 RETURN JUMPDEST PUSH2 0x251 PUSH1 0x4 DUP1 CALLDATASIZE SUB DUP2 ADD SWAP1 PUSH2 0x24C SWAP2 SWAP1 PUSH2 0x3FD1 JUMP JUMPDEST PUSH2 0xF43 JUMP JUMPDEST STOP JUMPDEST PUSH2 0x25B PUSH2 0x11A2 JUMP JUMPDEST PUSH1 0x40 MLOAD PUSH2 0x268 SWAP2 SWAP1 PUSH2 0x45AB JUMP JUMPDEST PUSH1 0x40 MLOAD DUP1 SWAP2 SUB SWAP1 RETURN JUMPDEST PUSH2 0x28B PUSH1 0x4 DUP1 CALLDATASIZE SUB DUP2 ADD SWAP1 PUSH2 0x286 SWAP2 SWAP1 PUSH2 0x3D51 JUMP JUMPDEST PUSH2 0x11C6 JUMP JUMPDEST PUSH1 0x40 MLOAD PUSH2 0x29F SWAP9 SWAP8 SWAP7 SWAP6 SWAP5 SWAP4 SWAP3 SWAP2 SWAP1 PUSH2 0x46D4 JUMP JUMPDEST PUSH1 0x40 MLOAD DUP1 SWAP2 SUB SWAP1 RETURN JUMPDEST PUSH2 0x2B0 PUSH2 0x14D6 JUMP JUMPDEST STOP JUMPDEST PUSH2 0x2CC PUSH1 0x4 DUP1 CALLDATASIZE SUB DUP2 ADD SWAP1 PUSH2 0x2C7 SWAP2 SWAP1 PUSH2 0x3D7E JUMP JUMPDEST PUSH2 0x15CF JUMP JUMPDEST PUSH1 0x40 MLOAD PUSH2 0x2D9 SWAP2 SWAP1 PUSH2 0x4BFD JUMP JUMPDEST PUSH1 0x40 MLOAD DUP1 SWAP2 SUB SWAP1 RETURN JUMPDEST PUSH2 0x2FC PUSH1 0x4 DUP1 CALLDATASIZE SUB DUP2 ADD SWAP1 PUSH2 0x2F7 SWAP2 SWAP1 PUSH2 0x3FD1 JUMP JUMPDEST PUSH2 0x1E46 JUMP JUMPDEST STOP JUMPDEST PUSH2 0x318 PUSH1 0x4 DUP1 CALLDATASIZE SUB DUP2 ADD SWAP1 PUSH2 0x313 SWAP2 SWAP1 PUSH2 0x4054 JUMP JUMPDEST PUSH2 0x22A0 JUMP JUMPDEST PUSH1 0x40 MLOAD PUSH2 0x32B SWAP8 SWAP7 SWAP6 SWAP5 SWAP4 SWAP3 SWAP2 SWAP1 PUSH2 0x45C6 JUMP JUMPDEST PUSH1 0x40 MLOAD DUP1 SWAP2 SUB SWAP1 RETURN JUMPDEST PUSH2 0x34E PUSH1 0x4 DUP1 CALLDATASIZE SUB DUP2 ADD SWAP1 PUSH2 0x349 SWAP2 SWAP1 PUSH2 0x3F62 JUMP JUMPDEST PUSH2 0x23BA JUMP JUMPDEST STOP JUMPDEST PUSH2 0x36A PUSH1 0x4 DUP1 CALLDATASIZE SUB DUP2 ADD SWAP1 PUSH2 0x365 SWAP2 SWAP1 PUSH2 0x4054 JUMP JUMPDEST PUSH2 0x2A62 JUMP JUMPDEST PUSH1 0x40 MLOAD PUSH2 0x37A SWAP5 SWAP4 SWAP3 SWAP2 SWAP1 PUSH2 0x4775 JUMP JUMPDEST PUSH1 0x40 MLOAD DUP1 SWAP2 SUB SWAP1 RETURN JUMPDEST PUSH2 0x39D PUSH1 0x4 DUP1 CALLDATASIZE SUB DUP2 ADD SWAP1 PUSH2 0x398 SWAP2 SWAP1 PUSH2 0x3E65 JUMP JUMPDEST PUSH2 0x2BD2 JUMP JUMPDEST STOP JUMPDEST PUSH2 0x3B9 PUSH1 0x4 DUP1 CALLDATASIZE SUB DUP2 ADD SWAP1 PUSH2 0x3B4 SWAP2 SWAP1 PUSH2 0x3DDA JUMP JUMPDEST PUSH2 0x30E0 JUMP JUMPDEST STOP JUMPDEST PUSH1 0x0 PUSH1 0x1 PUSH1 0x4 PUSH1 0x0 DUP5 PUSH20 0xFFFFFFFFFFFFFFFFFFFFFFFFFFFFFFFFFFFFFFFF AND PUSH20 0xFFFFFFFFFFFFFFFFFFFFFFFFFFFFFFFFFFFFFFFF AND DUP2 MSTORE PUSH1 0x20 ADD SWAP1 DUP2 MSTORE PUSH1 0x20 ADD PUSH1 0x0 KECCAK256 PUSH1 0x7 ADD SLOAD EQ PUSH2 0x442 JUMPI PUSH1 0x40 MLOAD PUSH32 0x8C379A000000000000000000000000000000000000000000000000000000000 DUP2 MSTORE PUSH1 0x4 ADD PUSH2 0x439 SWAP1 PUSH2 0x49BD JUMP JUMPDEST PUSH1 0x40 MLOAD DUP1 SWAP2 SUB SWAP1 REVERT JUMPDEST PUSH1 0x0 PUSH1 0x3 DUP2 SWAP1 SSTORE POP JUMPDEST PUSH1 0x1 DUP1 SLOAD SWAP1 POP PUSH1 0x3 SLOAD LT ISZERO PUSH2 0x5DF JUMPI PUSH1 0x1 PUSH1 0x3 SLOAD DUP2 SLOAD DUP2 LT PUSH2 0x470 JUMPI PUSH2 0x46F PUSH2 0x50D1 JUMP JUMPDEST JUMPDEST SWAP1 PUSH1 0x0 MSTORE PUSH1 0x20 PUSH1 0x0 KECCAK256 SWAP1 PUSH1 0x2 MUL ADD PUSH1 0x1 ADD PUSH1 0x40 MLOAD PUSH1 0x20 ADD PUSH2 0x491 SWAP2 SWAP1 PUSH2 0x4594 JUMP JUMPDEST PUSH1 0x40 MLOAD PUSH1 0x20 DUP2 DUP4 SUB SUB DUP2 MSTORE SWAP1 PUSH1 0x40 MSTORE DUP1 MLOAD SWAP1 PUSH1 0x20 ADD KECCAK256 PUSH1 0x0 SHR PUSH1 0x4 PUSH1 0x0 DUP5 PUSH20 0xFFFFFFFFFFFFFFFFFFFFFFFFFFFFFFFFFFFFFFFF AND PUSH20 0xFFFFFFFFFFFFFFFFFFFFFFFFFFFFFFFFFFFFFFFF AND DUP2 MSTORE PUSH1 0x20 ADD SWAP1 DUP2 MSTORE PUSH1 0x20 ADD PUSH1 0x0 KECCAK256 PUSH1 0x0 ADD PUSH1 0x40 MLOAD PUSH1 0x20 ADD PUSH2 0x4FC SWAP2 SWAP1 PUSH2 0x4594 JUMP JUMPDEST PUSH1 0x40 MLOAD PUSH1 0x20 DUP2 DUP4 SUB SUB DUP2 MSTORE SWAP1 PUSH1 0x40 MSTORE DUP1 MLOAD SWAP1 PUSH1 0x20 ADD KECCAK256 PUSH1 0x0 SHR EQ ISZERO PUSH2 0x5C2 JUMPI PUSH1 0x1 PUSH1 0x3 SLOAD DUP2 SLOAD DUP2 LT PUSH2 0x531 JUMPI PUSH2 0x530 PUSH2 0x50D1 JUMP JUMPDEST JUMPDEST SWAP1 PUSH1 0x0 MSTORE PUSH1 0x20 PUSH1 0x0 KECCAK256 SWAP1 PUSH1 0x2 MUL ADD PUSH1 0x0 ADD PUSH1 0x0 SWAP1 SLOAD SWAP1 PUSH2 0x100 EXP SWAP1 DIV PUSH20 0xFFFFFFFFFFFFFFFFFFFFFFFFFFFFFFFFFFFFFFFF AND PUSH1 0x40 MLOAD PUSH1 0x20 ADD PUSH2 0x573 SWAP2 SWAP1 PUSH2 0x4562 JUMP JUMPDEST PUSH1 0x40 MLOAD PUSH1 0x20 DUP2 DUP4 SUB SUB DUP2 MSTORE SWAP1 PUSH1 0x40 MSTORE DUP1 MLOAD SWAP1 PUSH1 0x20 ADD KECCAK256 PUSH1 0x0 SHR CALLER PUSH1 0x40 MLOAD PUSH1 0x20 ADD PUSH2 0x59D SWAP2 SWAP1 PUSH2 0x4562 JUMP JUMPDEST PUSH1 0x40 MLOAD PUSH1 0x20 DUP2 DUP4 SUB SUB DUP2 MSTORE SWAP1 PUSH1 0x40 MSTORE DUP1 MLOAD SWAP1 PUSH1 0x20 ADD KECCAK256 PUSH1 0x0 SHR EQ ISZERO PUSH2 0x5C1 JUMPI PUSH1 0x1 SWAP1 POP JUMPDEST JUMPDEST PUSH1 0x3 PUSH1 0x0 DUP2 SLOAD DUP1 SWAP3 SWAP2 SWAP1 PUSH2 0x5D5 SWAP1 PUSH2 0x4F1C JUMP JUMPDEST SWAP2 SWAP1 POP SSTORE POP PUSH2 0x44B JUMP JUMPDEST PUSH1 0x1 ISZERO ISZERO DUP2 ISZERO ISZERO EQ PUSH2 0x626 JUMPI PUSH1 0x40 MLOAD PUSH32 0x8C379A000000000000000000000000000000000000000000000000000000000 DUP2 MSTORE PUSH1 0x4 ADD PUSH2 0x61D SWAP1 PUSH2 0x4AFD JUMP JUMPDEST PUSH1 0x40 MLOAD DUP1 SWAP2 SUB SWAP1 REVERT JUMPDEST PUSH1 0x0 PUSH1 0x4 PUSH1 0x0 DUP5 PUSH20 0xFFFFFFFFFFFFFFFFFFFFFFFFFFFFFFFFFFFFFFFF AND PUSH20 0xFFFFFFFFFFFFFFFFFFFFFFFFFFFFFFFFFFFFFFFF AND DUP2 MSTORE PUSH1 0x20 ADD SWAP1 DUP2 MSTORE PUSH1 0x20 ADD PUSH1 0x0 KECCAK256 PUSH1 0x7 ADD DUP2 SWAP1 SSTORE POP POP POP JUMP JUMPDEST PUSH1 0x0 PUSH1 0x1 PUSH1 0x5 PUSH1 0x0 DUP5 PUSH20 0xFFFFFFFFFFFFFFFFFFFFFFFFFFFFFFFFFFFFFFFF AND PUSH20 0xFFFFFFFFFFFFFFFFFFFFFFFFFFFFFFFFFFFFFFFF AND DUP2 MSTORE PUSH1 0x20 ADD SWAP1 DUP2 MSTORE PUSH1 0x20 ADD PUSH1 0x0 KECCAK256 PUSH1 0x4 ADD SLOAD EQ PUSH2 0x6F9 JUMPI PUSH1 0x40 MLOAD PUSH32 0x8C379A000000000000000000000000000000000000000000000000000000000 DUP2 MSTORE PUSH1 0x4 ADD PUSH2 0x6F0 SWAP1 PUSH2 0x491D JUMP JUMPDEST PUSH1 0x40 MLOAD DUP1 SWAP2 SUB SWAP1 REVERT JUMPDEST PUSH1 0x0 PUSH1 0x3 DUP2 SWAP1 SSTORE POP JUMPDEST PUSH1 0x1 DUP1 SLOAD SWAP1 POP PUSH1 0x3 SLOAD LT ISZERO PUSH2 0x896 JUMPI PUSH1 0x1 PUSH1 0x3 SLOAD DUP2 SLOAD DUP2 LT PUSH2 0x727 JUMPI PUSH2 0x726 PUSH2 0x50D1 JUMP JUMPDEST JUMPDEST SWAP1 PUSH1 0x0 MSTORE PUSH1 0x20 PUSH1 0x0 KECCAK256 SWAP1 PUSH1 0x2 MUL ADD PUSH1 0x1 ADD PUSH1 0x40 MLOAD PUSH1 0x20 ADD PUSH2 0x748 SWAP2 SWAP1 PUSH2 0x4594 JUMP JUMPDEST PUSH1 0x40 MLOAD PUSH1 0x20 DUP2 DUP4 SUB SUB DUP2 MSTORE SWAP1 PUSH1 0x40 MSTORE DUP1 MLOAD SWAP1 PUSH1 0x20 ADD KECCAK256 PUSH1 0x0 SHR PUSH1 0x5 PUSH1 0x0 DUP5 PUSH20 0xFFFFFFFFFFFFFFFFFFFFFFFFFFFFFFFFFFFFFFFF AND PUSH20 0xFFFFFFFFFFFFFFFFFFFFFFFFFFFFFFFFFFFFFFFF AND DUP2 MSTORE PUSH1 0x20 ADD SWAP1 DUP2 MSTORE PUSH1 0x20 ADD PUSH1 0x0 KECCAK256 PUSH1 0x0 ADD PUSH1 0x40 MLOAD PUSH1 0x20 ADD PUSH2 0x7B3 SWAP2 SWAP1 PUSH2 0x4594 JUMP JUMPDEST PUSH1 0x40 MLOAD PUSH1 0x20 DUP2 DUP4 SUB SUB DUP2 MSTORE SWAP1 PUSH1 0x40 MSTORE DUP1 MLOAD SWAP1 PUSH1 0x20 ADD KECCAK256 PUSH1 0x0 SHR EQ ISZERO PUSH2 0x879 JUMPI PUSH1 0x1 PUSH1 0x3 SLOAD DUP2 SLOAD DUP2 LT PUSH2 0x7E8 JUMPI PUSH2 0x7E7 PUSH2 0x50D1 JUMP JUMPDEST JUMPDEST SWAP1 PUSH1 0x0 MSTORE PUSH1 0x20 PUSH1 0x0 KECCAK256 SWAP1 PUSH1 0x2 MUL ADD PUSH1 0x0 ADD PUSH1 0x0 SWAP1 SLOAD SWAP1 PUSH2 0x100 EXP SWAP1 DIV PUSH20 0xFFFFFFFFFFFFFFFFFFFFFFFFFFFFFFFFFFFFFFFF AND PUSH1 0x40 MLOAD PUSH1 0x20 ADD PUSH2 0x82A SWAP2 SWAP1 PUSH2 0x4562 JUMP JUMPDEST PUSH1 0x40 MLOAD PUSH1 0x20 DUP2 DUP4 SUB SUB DUP2 MSTORE SWAP1 PUSH1 0x40 MSTORE DUP1 MLOAD SWAP1 PUSH1 0x20 ADD KECCAK256 PUSH1 0x0 SHR CALLER PUSH1 0x40 MLOAD PUSH1 0x20 ADD PUSH2 0x854 SWAP2 SWAP1 PUSH2 0x4562 JUMP JUMPDEST PUSH1 0x40 MLOAD PUSH1 0x20 DUP2 DUP4 SUB SUB DUP2 MSTORE SWAP1 PUSH1 0x40 MSTORE DUP1 MLOAD SWAP1 PUSH1 0x20 ADD KECCAK256 PUSH1 0x0 SHR EQ ISZERO PUSH2 0x878 JUMPI PUSH1 0x1 SWAP1 POP JUMPDEST JUMPDEST PUSH1 0x3 PUSH1 0x0 DUP2 SLOAD DUP1 SWAP3 SWAP2 SWAP1 PUSH2 0x88C SWAP1 PUSH2 0x4F1C JUMP JUMPDEST SWAP2 SWAP1 POP SSTORE POP PUSH2 0x702 JUMP JUMPDEST PUSH1 0x1 ISZERO ISZERO DUP2 ISZERO ISZERO EQ PUSH2 0x8DD JUMPI PUSH1 0x40 MLOAD PUSH32 0x8C379A000000000000000000000000000000000000000000000000000000000 DUP2 MSTORE PUSH1 0x4 ADD PUSH2 0x8D4 SWAP1 PUSH2 0x49FD JUMP JUMPDEST PUSH1 0x40 MLOAD DUP1 SWAP2 SUB SWAP1 REVERT JUMPDEST PUSH1 0x0 PUSH1 0x5 PUSH1 0x0 DUP5 PUSH20 0xFFFFFFFFFFFFFFFFFFFFFFFFFFFFFFFFFFFFFFFF AND PUSH20 0xFFFFFFFFFFFFFFFFFFFFFFFFFFFFFFFFFFFFFFFF AND DUP2 MSTORE PUSH1 0x20 ADD SWAP1 DUP2 MSTORE PUSH1 0x20 ADD PUSH1 0x0 KECCAK256 PUSH1 0x4 ADD DUP2 SWAP1 SSTORE POP POP POP JUMP JUMPDEST PUSH1 0x5 PUSH1 0x20 MSTORE DUP1 PUSH1 0x0 MSTORE PUSH1 0x40 PUSH1 0x0 KECCAK256 PUSH1 0x0 SWAP2 POP SWAP1 POP DUP1 PUSH1 0x0 ADD DUP1 SLOAD PUSH2 0x94C SWAP1 PUSH2 0x4EB9 JUMP JUMPDEST DUP1 PUSH1 0x1F ADD PUSH1 0x20 DUP1 SWAP2 DIV MUL PUSH1 0x20 ADD PUSH1 0x40 MLOAD SWAP1 DUP2 ADD PUSH1 0x40 MSTORE DUP1 SWAP3 SWAP2 SWAP1 DUP2 DUP2 MSTORE PUSH1 0x20 ADD DUP3 DUP1 SLOAD PUSH2 0x978 SWAP1 PUSH2 0x4EB9 JUMP JUMPDEST DUP1 ISZERO PUSH2 0x9C5 JUMPI DUP1 PUSH1 0x1F LT PUSH2 0x99A JUMPI PUSH2 0x100 DUP1 DUP4 SLOAD DIV MUL DUP4 MSTORE SWAP2 PUSH1 0x20 ADD SWAP2 PUSH2 0x9C5 JUMP JUMPDEST DUP3 ADD SWAP2 SWAP1 PUSH1 0x0 MSTORE PUSH1 0x20 PUSH1 0x0 KECCAK256 SWAP1 JUMPDEST DUP2 SLOAD DUP2 MSTORE SWAP1 PUSH1 0x1 ADD SWAP1 PUSH1 0x20 ADD DUP1 DUP4 GT PUSH2 0x9A8 JUMPI DUP3 SWAP1 SUB PUSH1 0x1F AND DUP3 ADD SWAP2 JUMPDEST POP POP POP POP POP SWAP1 DUP1 PUSH1 0x1 ADD PUSH1 0x0 SWAP1 SLOAD SWAP1 PUSH2 0x100 EXP SWAP1 DIV PUSH20 0xFFFFFFFFFFFFFFFFFFFFFFFFFFFFFFFFFFFFFFFF AND SWAP1 DUP1 PUSH1 0x2 ADD DUP1 SLOAD PUSH2 0xA00 SWAP1 PUSH2 0x4EB9 JUMP JUMPDEST DUP1 PUSH1 0x1F ADD PUSH1 0x20 DUP1 SWAP2 DIV MUL PUSH1 0x20 ADD PUSH1 0x40 MLOAD SWAP1 DUP2 ADD PUSH1 0x40 MSTORE DUP1 SWAP3 SWAP2 SWAP1 DUP2 DUP2 MSTORE PUSH1 0x20 ADD DUP3 DUP1 SLOAD PUSH2 0xA2C SWAP1 PUSH2 0x4EB9 JUMP JUMPDEST DUP1 ISZERO PUSH2 0xA79 JUMPI DUP1 PUSH1 0x1F LT PUSH2 0xA4E JUMPI PUSH2 0x100 DUP1 DUP4 SLOAD DIV MUL DUP4 MSTORE SWAP2 PUSH1 0x20 ADD SWAP2 PUSH2 0xA79 JUMP JUMPDEST DUP3 ADD SWAP2 SWAP1 PUSH1 0x0 MSTORE PUSH1 0x20 PUSH1 0x0 KECCAK256 SWAP1 JUMPDEST DUP2 SLOAD DUP2 MSTORE SWAP1 PUSH1 0x1 ADD SWAP1 PUSH1 0x20 ADD DUP1 DUP4 GT PUSH2 0xA5C JUMPI DUP3 SWAP1 SUB PUSH1 0x1F AND DUP3 ADD SWAP2 JUMPDEST POP POP POP POP POP SWAP1 DUP1 PUSH1 0x3 ADD DUP1 SLOAD PUSH2 0xA8E SWAP1 PUSH2 0x4EB9 JUMP JUMPDEST DUP1 PUSH1 0x1F ADD PUSH1 0x20 DUP1 SWAP2 DIV MUL PUSH1 0x20 ADD PUSH1 0x40 MLOAD SWAP1 DUP2 ADD PUSH1 0x40 MSTORE DUP1 SWAP3 SWAP2 SWAP1 DUP2 DUP2 MSTORE PUSH1 0x20 ADD DUP3 DUP1 SLOAD PUSH2 0xABA SWAP1 PUSH2 0x4EB9 JUMP JUMPDEST DUP1 ISZERO PUSH2 0xB07 JUMPI DUP1 PUSH1 0x1F LT PUSH2 0xADC JUMPI PUSH2 0x100 DUP1 DUP4 SLOAD DIV MUL DUP4 MSTORE SWAP2 PUSH1 0x20 ADD SWAP2 PUSH2 0xB07 JUMP JUMPDEST DUP3 ADD SWAP2 SWAP1 PUSH1 0x0 MSTORE PUSH1 0x20 PUSH1 0x0 KECCAK256 SWAP1 JUMPDEST DUP2 SLOAD DUP2 MSTORE SWAP1 PUSH1 0x1 ADD SWAP1 PUSH1 0x20 ADD DUP1 DUP4 GT PUSH2 0xAEA JUMPI DUP3 SWAP1 SUB PUSH1 0x1F AND DUP3 ADD SWAP2 JUMPDEST POP POP POP POP POP SWAP1 DUP1 PUSH1 0x4 ADD SLOAD SWAP1 POP DUP6 JUMP JUMPDEST PUSH1 0x0 DUP1 SLOAD SWAP1 PUSH2 0x100 EXP SWAP1 DIV PUSH20 0xFFFFFFFFFFFFFFFFFFFFFFFFFFFFFFFFFFFFFFFF AND PUSH20 0xFFFFFFFFFFFFFFFFFFFFFFFFFFFFFFFFFFFFFFFF AND CALLER PUSH20 0xFFFFFFFFFFFFFFFFFFFFFFFFFFFFFFFFFFFFFFFF AND EQ PUSH2 0xBA5 JUMPI PUSH1 0x40 MLOAD PUSH32 0x8C379A000000000000000000000000000000000000000000000000000000000 DUP2 MSTORE PUSH1 0x4 ADD PUSH2 0xB9C SWAP1 PUSH2 0x4ABD JUMP JUMPDEST PUSH1 0x40 MLOAD DUP1 SWAP2 SUB SWAP1 REVERT JUMPDEST PUSH1 0x0 PUSH1 0x3 DUP2 SWAP1 SSTORE POP JUMPDEST PUSH1 0x1 DUP1 SLOAD SWAP1 POP PUSH1 0x3 SLOAD LT ISZERO PUSH2 0xC90 JUMPI DUP2 PUSH20 0xFFFFFFFFFFFFFFFFFFFFFFFFFFFFFFFFFFFFFFFF AND PUSH1 0x1 PUSH1 0x3 SLOAD DUP2 SLOAD DUP2 LT PUSH2 0xBEA JUMPI PUSH2 0xBE9 PUSH2 0x50D1 JUMP JUMPDEST JUMPDEST SWAP1 PUSH1 0x0 MSTORE PUSH1 0x20 PUSH1 0x0 KECCAK256 SWAP1 PUSH1 0x2 MUL ADD PUSH1 0x0 ADD PUSH1 0x0 SWAP1 SLOAD SWAP1 PUSH2 0x100 EXP SWAP1 DIV PUSH20 0xFFFFFFFFFFFFFFFFFFFFFFFFFFFFFFFFFFFFFFFF AND PUSH20 0xFFFFFFFFFFFFFFFFFFFFFFFFFFFFFFFFFFFFFFFF AND EQ ISZERO PUSH2 0xC73 JUMPI PUSH1 0x40 MLOAD PUSH32 0x8C379A000000000000000000000000000000000000000000000000000000000 DUP2 MSTORE PUSH1 0x4 ADD PUSH2 0xC6A SWAP1 PUSH2 0x4B9D JUMP JUMPDEST PUSH1 0x40 MLOAD DUP1 SWAP2 SUB SWAP1 REVERT JUMPDEST PUSH1 0x3 PUSH1 0x0 DUP2 SLOAD DUP1 SWAP3 SWAP2 SWAP1 PUSH2 0xC86 SWAP1 PUSH2 0x4F1C JUMP JUMPDEST SWAP2 SWAP1 POP SSTORE POP PUSH2 0xBAE JUMP JUMPDEST PUSH1 0x1 PUSH1 0x40 MLOAD DUP1 PUSH1 0x40 ADD PUSH1 0x40 MSTORE DUP1 DUP5 PUSH20 0xFFFFFFFFFFFFFFFFFFFFFFFFFFFFFFFFFFFFFFFF AND DUP2 MSTORE PUSH1 0x20 ADD DUP4 DUP2 MSTORE POP SWAP1 DUP1 PUSH1 0x1 DUP2 SLOAD ADD DUP1 DUP3 SSTORE DUP1 SWAP2 POP POP PUSH1 0x1 SWAP1 SUB SWAP1 PUSH1 0x0 MSTORE PUSH1 0x20 PUSH1 0x0 KECCAK256 SWAP1 PUSH1 0x2 MUL ADD PUSH1 0x0 SWAP1 SWAP2 SWAP1 SWAP2 SWAP1 SWAP2 POP PUSH1 0x0 DUP3 ADD MLOAD DUP2 PUSH1 0x0 ADD PUSH1 0x0 PUSH2 0x100 EXP DUP2 SLOAD DUP2 PUSH20 0xFFFFFFFFFFFFFFFFFFFFFFFFFFFFFFFFFFFFFFFF MUL NOT AND SWAP1 DUP4 PUSH20 0xFFFFFFFFFFFFFFFFFFFFFFFFFFFFFFFFFFFFFFFF AND MUL OR SWAP1 SSTORE POP PUSH1 0x20 DUP3 ADD MLOAD DUP2 PUSH1 0x1 ADD SWAP1 DUP1 MLOAD SWAP1 PUSH1 0x20 ADD SWAP1 PUSH2 0xD49 SWAP3 SWAP2 SWAP1 PUSH2 0x3A3B JUMP JUMPDEST POP POP POP PUSH32 0xA56696261A6DF748FF6BDAA44A250105B44964BBB03CAF07BFA2479F29581156 DUP3 DUP3 PUSH1 0x40 MLOAD PUSH2 0xD7D SWAP3 SWAP2 SWAP1 PUSH2 0x463C JUMP JUMPDEST PUSH1 0x40 MLOAD DUP1 SWAP2 SUB SWAP1 LOG1 POP POP JUMP JUMPDEST PUSH1 0x0 PUSH2 0xD94 DUP3 PUSH2 0x34F0 JUMP JUMPDEST PUSH1 0x40 ADD MLOAD SWAP1 POP SWAP2 SWAP1 POP JUMP JUMPDEST PUSH1 0x2 DUP2 DUP2 SLOAD DUP2 LT PUSH2 0xDAF JUMPI PUSH1 0x0 DUP1 REVERT JUMPDEST SWAP1 PUSH1 0x0 MSTORE PUSH1 0x20 PUSH1 0x0 KECCAK256 SWAP1 PUSH1 0x4 MUL ADD PUSH1 0x0 SWAP2 POP SWAP1 POP DUP1 PUSH1 0x0 ADD DUP1 SLOAD PUSH2 0xDD2 SWAP1 PUSH2 0x4EB9 JUMP JUMPDEST DUP1 PUSH1 0x1F ADD PUSH1 0x20 DUP1 SWAP2 DIV MUL PUSH1 0x20 ADD PUSH1 0x40 MLOAD SWAP1 DUP2 ADD PUSH1 0x40 MSTORE DUP1 SWAP3 SWAP2 SWAP1 DUP2 DUP2 MSTORE PUSH1 0x20 ADD DUP3 DUP1 SLOAD PUSH2 0xDFE SWAP1 PUSH2 0x4EB9 JUMP JUMPDEST DUP1 ISZERO PUSH2 0xE4B JUMPI DUP1 PUSH1 0x1F LT PUSH2 0xE20 JUMPI PUSH2 0x100 DUP1 DUP4 SLOAD DIV MUL DUP4 MSTORE SWAP2 PUSH1 0x20 ADD SWAP2 PUSH2 0xE4B JUMP JUMPDEST DUP3 ADD SWAP2 SWAP1 PUSH1 0x0 MSTORE PUSH1 0x20 PUSH1 0x0 KECCAK256 SWAP1 JUMPDEST DUP2 SLOAD DUP2 MSTORE SWAP1 PUSH1 0x1 ADD SWAP1 PUSH1 0x20 ADD DUP1 DUP4 GT PUSH2 0xE2E JUMPI DUP3 SWAP1 SUB PUSH1 0x1F AND DUP3 ADD SWAP2 JUMPDEST POP POP POP POP POP SWAP1 DUP1 PUSH1 0x1 ADD SLOAD SWAP1 DUP1 PUSH1 0x2 ADD SLOAD SWAP1 DUP1 PUSH1 0x3 ADD SLOAD SWAP1 POP DUP5 JUMP JUMPDEST PUSH1 0x1 DUP2 DUP2 SLOAD DUP2 LT PUSH2 0xE77 JUMPI PUSH1 0x0 DUP1 REVERT JUMPDEST SWAP1 PUSH1 0x0 MSTORE PUSH1 0x20 PUSH1 0x0 KECCAK256 SWAP1 PUSH1 0x2 MUL ADD PUSH1 0x0 SWAP2 POP SWAP1 POP DUP1 PUSH1 0x0 ADD PUSH1 0x0 SWAP1 SLOAD SWAP1 PUSH2 0x100 EXP SWAP1 DIV PUSH20 0xFFFFFFFFFFFFFFFFFFFFFFFFFFFFFFFFFFFFFFFF AND SWAP1 DUP1 PUSH1 0x1 ADD DUP1 SLOAD PUSH2 0xEC0 SWAP1 PUSH2 0x4EB9 JUMP JUMPDEST DUP1 PUSH1 0x1F ADD PUSH1 0x20 DUP1 SWAP2 DIV MUL PUSH1 0x20 ADD PUSH1 0x40 MLOAD SWAP1 DUP2 ADD PUSH1 0x40 MSTORE DUP1 SWAP3 SWAP2 SWAP1 DUP2 DUP2 MSTORE PUSH1 0x20 ADD DUP3 DUP1 SLOAD PUSH2 0xEEC SWAP1 PUSH2 0x4EB9 JUMP JUMPDEST DUP1 ISZERO PUSH2 0xF39 JUMPI DUP1 PUSH1 0x1F LT PUSH2 0xF0E JUMPI PUSH2 0x100 DUP1 DUP4 SLOAD DIV MUL DUP4 MSTORE SWAP2 PUSH1 0x20 ADD SWAP2 PUSH2 0xF39 JUMP JUMPDEST DUP3 ADD SWAP2 SWAP1 PUSH1 0x0 MSTORE PUSH1 0x20 PUSH1 0x0 KECCAK256 SWAP1 JUMPDEST DUP2 SLOAD DUP2 MSTORE SWAP1 PUSH1 0x1 ADD SWAP1 PUSH1 0x20 ADD DUP1 DUP4 GT PUSH2 0xF1C JUMPI DUP3 SWAP1 SUB PUSH1 0x1F AND DUP3 ADD SWAP2 JUMPDEST POP POP POP POP POP SWAP1 POP DUP3 JUMP JUMPDEST PUSH1 0x0 DUP1 PUSH1 0x0 SWAP1 SLOAD SWAP1 PUSH2 0x100 EXP SWAP1 DIV PUSH20 0xFFFFFFFFFFFFFFFFFFFFFFFFFFFFFFFFFFFFFFFF AND PUSH20 0xFFFFFFFFFFFFFFFFFFFFFFFFFFFFFFFFFFFFFFFF AND CALLER PUSH20 0xFFFFFFFFFFFFFFFFFFFFFFFFFFFFFFFFFFFFFFFF AND EQ PUSH2 0xFD4 JUMPI PUSH1 0x40 MLOAD PUSH32 0x8C379A000000000000000000000000000000000000000000000000000000000 DUP2 MSTORE PUSH1 0x4 ADD PUSH2 0xFCB SWAP1 PUSH2 0x493D JUMP JUMPDEST PUSH1 0x40 MLOAD DUP1 SWAP2 SUB SWAP1 REVERT JUMPDEST PUSH1 0x0 PUSH1 0x3 DUP2 SWAP1 SSTORE POP JUMPDEST PUSH1 0x2 DUP1 SLOAD SWAP1 POP PUSH1 0x3 SLOAD LT ISZERO PUSH2 0x108E JUMPI PUSH1 0x2 PUSH1 0x3 SLOAD DUP2 SLOAD DUP2 LT PUSH2 0x1002 JUMPI PUSH2 0x1001 PUSH2 0x50D1 JUMP JUMPDEST JUMPDEST SWAP1 PUSH1 0x0 MSTORE PUSH1 0x20 PUSH1 0x0 KECCAK256 SWAP1 PUSH1 0x4 MUL ADD PUSH1 0x0 ADD PUSH1 0x40 MLOAD PUSH1 0x20 ADD PUSH2 0x1023 SWAP2 SWAP1 PUSH2 0x4594 JUMP JUMPDEST PUSH1 0x40 MLOAD PUSH1 0x20 DUP2 DUP4 SUB SUB DUP2 MSTORE SWAP1 PUSH1 0x40 MSTORE DUP1 MLOAD SWAP1 PUSH1 0x20 ADD KECCAK256 PUSH1 0x0 SHR DUP6 PUSH1 0x40 MLOAD PUSH1 0x20 ADD PUSH2 0x104D SWAP2 SWAP1 PUSH2 0x457D JUMP JUMPDEST PUSH1 0x40 MLOAD PUSH1 0x20 DUP2 DUP4 SUB SUB DUP2 MSTORE SWAP1 PUSH1 0x40 MSTORE DUP1 MLOAD SWAP1 PUSH1 0x20 ADD KECCAK256 PUSH1 0x0 SHR EQ ISZERO PUSH2 0x1071 JUMPI PUSH1 0x1 SWAP1 POP JUMPDEST PUSH1 0x3 PUSH1 0x0 DUP2 SLOAD DUP1 SWAP3 SWAP2 SWAP1 PUSH2 0x1084 SWAP1 PUSH2 0x4F1C JUMP JUMPDEST SWAP2 SWAP1 POP SSTORE POP PUSH2 0xFDD JUMP JUMPDEST PUSH1 0x0 ISZERO ISZERO DUP2 ISZERO ISZERO EQ PUSH2 0x10D5 JUMPI PUSH1 0x40 MLOAD PUSH32 0x8C379A000000000000000000000000000000000000000000000000000000000 DUP2 MSTORE PUSH1 0x4 ADD PUSH2 0x10CC SWAP1 PUSH2 0x499D JUMP JUMPDEST PUSH1 0x40 MLOAD DUP1 SWAP2 SUB SWAP1 REVERT JUMPDEST PUSH1 0x2 PUSH1 0x40 MLOAD DUP1 PUSH1 0x80 ADD PUSH1 0x40 MSTORE DUP1 DUP8 DUP2 MSTORE PUSH1 0x20 ADD DUP7 DUP2 MSTORE PUSH1 0x20 ADD DUP6 DUP2 MSTORE PUSH1 0x20 ADD DUP5 DUP2 MSTORE POP SWAP1 DUP1 PUSH1 0x1 DUP2 SLOAD ADD DUP1 DUP3 SSTORE DUP1 SWAP2 POP POP PUSH1 0x1 SWAP1 SUB SWAP1 PUSH1 0x0 MSTORE PUSH1 0x20 PUSH1 0x0 KECCAK256 SWAP1 PUSH1 0x4 MUL ADD PUSH1 0x0 SWAP1 SWAP2 SWAP1 SWAP2 SWAP1 SWAP2 POP PUSH1 0x0 DUP3 ADD MLOAD DUP2 PUSH1 0x0 ADD SWAP1 DUP1 MLOAD SWAP1 PUSH1 0x20 ADD SWAP1 PUSH2 0x113D SWAP3 SWAP2 SWAP1 PUSH2 0x3A3B JUMP JUMPDEST POP PUSH1 0x20 DUP3 ADD MLOAD DUP2 PUSH1 0x1 ADD SSTORE PUSH1 0x40 DUP3 ADD MLOAD DUP2 PUSH1 0x2 ADD SSTORE PUSH1 0x60 DUP3 ADD MLOAD DUP2 PUSH1 0x3 ADD SSTORE POP POP PUSH32 0x967D29D9CD5E63A44833C45A6D292DB030510A8ABB92662571394E2EDD6E6093 DUP6 DUP6 DUP6 DUP6 PUSH1 0x40 MLOAD PUSH2 0x1193 SWAP5 SWAP4 SWAP3 SWAP2 SWAP1 PUSH2 0x47C8 JUMP JUMPDEST PUSH1 0x40 MLOAD DUP1 SWAP2 SUB SWAP1 LOG1 POP POP POP POP POP JUMP JUMPDEST PUSH1 0x0 DUP1 SLOAD SWAP1 PUSH2 0x100 EXP SWAP1 DIV PUSH20 0xFFFFFFFFFFFFFFFFFFFFFFFFFFFFFFFFFFFFFFFF AND DUP2 JUMP JUMPDEST PUSH1 0x4 PUSH1 0x20 MSTORE DUP1 PUSH1 0x0 MSTORE PUSH1 0x40 PUSH1 0x0 KECCAK256 PUSH1 0x0 SWAP2 POP SWAP1 POP DUP1 PUSH1 0x0 ADD DUP1 SLOAD PUSH2 0x11E9 SWAP1 PUSH2 0x4EB9 JUMP JUMPDEST DUP1 PUSH1 0x1F ADD PUSH1 0x20 DUP1 SWAP2 DIV MUL PUSH1 0x20 ADD PUSH1 0x40 MLOAD SWAP1 DUP2 ADD PUSH1 0x40 MSTORE DUP1 SWAP3 SWAP2 SWAP1 DUP2 DUP2 MSTORE PUSH1 0x20 ADD DUP3 DUP1 SLOAD PUSH2 0x1215 SWAP1 PUSH2 0x4EB9 JUMP JUMPDEST DUP1 ISZERO PUSH2 0x1262 JUMPI DUP1 PUSH1 0x1F LT PUSH2 0x1237 JUMPI PUSH2 0x100 DUP1 DUP4 SLOAD DIV MUL DUP4 MSTORE SWAP2 PUSH1 0x20 ADD SWAP2 PUSH2 0x1262 JUMP JUMPDEST DUP3 ADD SWAP2 SWAP1 PUSH1 0x0 MSTORE PUSH1 0x20 PUSH1 0x0 KECCAK256 SWAP1 JUMPDEST DUP2 SLOAD DUP2 MSTORE SWAP1 PUSH1 0x1 ADD SWAP1 PUSH1 0x20 ADD DUP1 DUP4 GT PUSH2 0x1245 JUMPI DUP3 SWAP1 SUB PUSH1 0x1F AND DUP3 ADD SWAP2 JUMPDEST POP POP POP POP POP SWAP1 DUP1 PUSH1 0x1 ADD PUSH1 0x0 SWAP1 SLOAD SWAP1 PUSH2 0x100 EXP SWAP1 DIV PUSH20 0xFFFFFFFFFFFFFFFFFFFFFFFFFFFFFFFFFFFFFFFF AND SWAP1 DUP1 PUSH1 0x2 ADD DUP1 SLOAD PUSH2 0x129D SWAP1 PUSH2 0x4EB9 JUMP JUMPDEST DUP1 PUSH1 0x1F ADD PUSH1 0x20 DUP1 SWAP2 DIV MUL PUSH1 0x20 ADD PUSH1 0x40 MLOAD SWAP1 DUP2 ADD PUSH1 0x40 MSTORE DUP1 SWAP3 SWAP2 SWAP1 DUP2 DUP2 MSTORE PUSH1 0x20 ADD DUP3 DUP1 SLOAD PUSH2 0x12C9 SWAP1 PUSH2 0x4EB9 JUMP JUMPDEST DUP1 ISZERO PUSH2 0x1316 JUMPI DUP1 PUSH1 0x1F LT PUSH2 0x12EB JUMPI PUSH2 0x100 DUP1 DUP4 SLOAD DIV MUL DUP4 MSTORE SWAP2 PUSH1 0x20 ADD SWAP2 PUSH2 0x1316 JUMP JUMPDEST DUP3 ADD SWAP2 SWAP1 PUSH1 0x0 MSTORE PUSH1 0x20 PUSH1 0x0 KECCAK256 SWAP1 JUMPDEST DUP2 SLOAD DUP2 MSTORE SWAP1 PUSH1 0x1 ADD SWAP1 PUSH1 0x20 ADD DUP1 DUP4 GT PUSH2 0x12F9 JUMPI DUP3 SWAP1 SUB PUSH1 0x1F AND DUP3 ADD SWAP2 JUMPDEST POP POP POP POP POP SWAP1 DUP1 PUSH1 0x3 ADD DUP1 SLOAD PUSH2 0x132B SWAP1 PUSH2 0x4EB9 JUMP JUMPDEST DUP1 PUSH1 0x1F ADD PUSH1 0x20 DUP1 SWAP2 DIV MUL PUSH1 0x20 ADD PUSH1 0x40 MLOAD SWAP1 DUP2 ADD PUSH1 0x40 MSTORE DUP1 SWAP3 SWAP2 SWAP1 DUP2 DUP2 MSTORE PUSH1 0x20 ADD DUP3 DUP1 SLOAD PUSH2 0x1357 SWAP1 PUSH2 0x4EB9 JUMP JUMPDEST DUP1 ISZERO PUSH2 0x13A4 JUMPI DUP1 PUSH1 0x1F LT PUSH2 0x1379 JUMPI PUSH2 0x100 DUP1 DUP4 SLOAD DIV MUL DUP4 MSTORE SWAP2 PUSH1 0x20 ADD SWAP2 PUSH2 0x13A4 JUMP JUMPDEST DUP3 ADD SWAP2 SWAP1 PUSH1 0x0 MSTORE PUSH1 0x20 PUSH1 0x0 KECCAK256 SWAP1 JUMPDEST DUP2 SLOAD DUP2 MSTORE SWAP1 PUSH1 0x1 ADD SWAP1 PUSH1 0x20 ADD DUP1 DUP4 GT PUSH2 0x1387 JUMPI DUP3 SWAP1 SUB PUSH1 0x1F AND DUP3 ADD SWAP2 JUMPDEST POP POP POP POP POP SWAP1 DUP1 PUSH1 0x4 ADD SLOAD SWAP1 DUP1 PUSH1 0x5 ADD DUP1 SLOAD PUSH2 0x13BF SWAP1 PUSH2 0x4EB9 JUMP JUMPDEST DUP1 PUSH1 0x1F ADD PUSH1 0x20 DUP1 SWAP2 DIV MUL PUSH1 0x20 ADD PUSH1 0x40 MLOAD SWAP1 DUP2 ADD PUSH1 0x40 MSTORE DUP1 SWAP3 SWAP2 SWAP1 DUP2 DUP2 MSTORE PUSH1 0x20 ADD DUP3 DUP1 SLOAD PUSH2 0x13EB SWAP1 PUSH2 0x4EB9 JUMP JUMPDEST DUP1 ISZERO PUSH2 0x1438 JUMPI DUP1 PUSH1 0x1F LT PUSH2 0x140D JUMPI PUSH2 0x100 DUP1 DUP4 SLOAD DIV MUL DUP4 MSTORE SWAP2 PUSH1 0x20 ADD SWAP2 PUSH2 0x1438 JUMP JUMPDEST DUP3 ADD SWAP2 SWAP1 PUSH1 0x0 MSTORE PUSH1 0x20 PUSH1 0x0 KECCAK256 SWAP1 JUMPDEST DUP2 SLOAD DUP2 MSTORE SWAP1 PUSH1 0x1 ADD SWAP1 PUSH1 0x20 ADD DUP1 DUP4 GT PUSH2 0x141B JUMPI DUP3 SWAP1 SUB PUSH1 0x1F AND DUP3 ADD SWAP2 JUMPDEST POP POP POP POP POP SWAP1 DUP1 PUSH1 0x6 ADD DUP1 SLOAD PUSH2 0x144D SWAP1 PUSH2 0x4EB9 JUMP JUMPDEST DUP1 PUSH1 0x1F ADD PUSH1 0x20 DUP1 SWAP2 DIV MUL PUSH1 0x20 ADD PUSH1 0x40 MLOAD SWAP1 DUP2 ADD PUSH1 0x40 MSTORE DUP1 SWAP3 SWAP2 SWAP1 DUP2 DUP2 MSTORE PUSH1 0x20 ADD DUP3 DUP1 SLOAD PUSH2 0x1479 SWAP1 PUSH2 0x4EB9 JUMP JUMPDEST DUP1 ISZERO PUSH2 0x14C6 JUMPI DUP1 PUSH1 0x1F LT PUSH2 0x149B JUMPI PUSH2 0x100 DUP1 DUP4 SLOAD DIV MUL DUP4 MSTORE SWAP2 PUSH1 0x20 ADD SWAP2 PUSH2 0x14C6 JUMP JUMPDEST DUP3 ADD SWAP2 SWAP1 PUSH1 0x0 MSTORE PUSH1 0x20 PUSH1 0x0 KECCAK256 SWAP1 JUMPDEST DUP2 SLOAD DUP2 MSTORE SWAP1 PUSH1 0x1 ADD SWAP1 PUSH1 0x20 ADD DUP1 DUP4 GT PUSH2 0x14A9 JUMPI DUP3 SWAP1 SUB PUSH1 0x1F AND DUP3 ADD SWAP2 JUMPDEST POP POP POP POP POP SWAP1 DUP1 PUSH1 0x7 ADD SLOAD SWAP1 POP DUP9 JUMP JUMPDEST PUSH1 0x0 DUP1 PUSH1 0x0 SWAP1 SLOAD SWAP1 PUSH2 0x100 EXP SWAP1 DIV PUSH20 0xFFFFFFFFFFFFFFFFFFFFFFFFFFFFFFFFFFFFFFFF AND PUSH20 0xFFFFFFFFFFFFFFFFFFFFFFFFFFFFFFFFFFFFFFFF AND CALLER PUSH20 0xFFFFFFFFFFFFFFFFFFFFFFFFFFFFFFFFFFFFFFFF AND EQ PUSH2 0x1567 JUMPI PUSH1 0x40 MLOAD PUSH32 0x8C379A000000000000000000000000000000000000000000000000000000000 DUP2 MSTORE PUSH1 0x4 ADD PUSH2 0x155E SWAP1 PUSH2 0x495D JUMP JUMPDEST PUSH1 0x40 MLOAD DUP1 SWAP2 SUB SWAP1 REVERT JUMPDEST PUSH2 0x1570 TIMESTAMP PUSH2 0xD89 JUMP JUMPDEST PUSH1 0xFF AND SWAP1 POP PUSH1 0x1 DUP2 EQ ISZERO PUSH2 0x1591 JUMPI PUSH1 0x7 PUSH1 0x0 PUSH2 0x158C SWAP2 SWAP1 PUSH2 0x3AC1 JUMP JUMPDEST PUSH2 0x15CC JUMP JUMPDEST PUSH1 0x40 MLOAD PUSH32 0x8C379A000000000000000000000000000000000000000000000000000000000 DUP2 MSTORE PUSH1 0x4 ADD PUSH2 0x15C3 SWAP1 PUSH2 0x4A5D JUMP JUMPDEST PUSH1 0x40 MLOAD DUP1 SWAP2 SUB SWAP1 REVERT JUMPDEST POP JUMP JUMPDEST PUSH1 0x0 DUP1 PUSH1 0x0 DUP1 PUSH1 0x0 DUP1 PUSH1 0x0 DUP1 PUSH2 0x15E4 TIMESTAMP PUSH2 0xD89 JUMP JUMPDEST PUSH1 0xFF AND SWAP2 POP PUSH1 0x1 DUP3 EQ ISZERO PUSH2 0x162D JUMPI PUSH1 0x40 MLOAD PUSH32 0x8C379A000000000000000000000000000000000000000000000000000000000 DUP2 MSTORE PUSH1 0x4 ADD PUSH2 0x1624 SWAP1 PUSH2 0x49DD JUMP JUMPDEST PUSH1 0x40 MLOAD DUP1 SWAP2 SUB SWAP1 REVERT JUMPDEST PUSH1 0x1 PUSH1 0x5 PUSH1 0x0 CALLER PUSH20 0xFFFFFFFFFFFFFFFFFFFFFFFFFFFFFFFFFFFFFFFF AND PUSH20 0xFFFFFFFFFFFFFFFFFFFFFFFFFFFFFFFFFFFFFFFF AND DUP2 MSTORE PUSH1 0x20 ADD SWAP1 DUP2 MSTORE PUSH1 0x20 ADD PUSH1 0x0 KECCAK256 PUSH1 0x4 ADD SLOAD EQ PUSH2 0x16B2 JUMPI PUSH1 0x40 MLOAD PUSH32 0x8C379A000000000000000000000000000000000000000000000000000000000 DUP2 MSTORE PUSH1 0x4 ADD PUSH2 0x16A9 SWAP1 PUSH2 0x497D JUMP JUMPDEST PUSH1 0x40 MLOAD DUP1 SWAP2 SUB SWAP1 REVERT JUMPDEST PUSH1 0x1 PUSH1 0x4 PUSH1 0x0 DUP13 PUSH20 0xFFFFFFFFFFFFFFFFFFFFFFFFFFFFFFFFFFFFFFFF AND PUSH20 0xFFFFFFFFFFFFFFFFFFFFFFFFFFFFFFFFFFFFFFFF AND DUP2 MSTORE PUSH1 0x20 ADD SWAP1 DUP2 MSTORE PUSH1 0x20 ADD PUSH1 0x0 KECCAK256 PUSH1 0x7 ADD SLOAD EQ PUSH2 0x1737 JUMPI PUSH1 0x40 MLOAD PUSH32 0x8C379A000000000000000000000000000000000000000000000000000000000 DUP2 MSTORE PUSH1 0x4 ADD PUSH2 0x172E SWAP1 PUSH2 0x4B1D JUMP JUMPDEST PUSH1 0x40 MLOAD DUP1 SWAP2 SUB SWAP1 REVERT JUMPDEST PUSH1 0x4 PUSH1 0x0 DUP12 PUSH20 0xFFFFFFFFFFFFFFFFFFFFFFFFFFFFFFFFFFFFFFFF AND PUSH20 0xFFFFFFFFFFFFFFFFFFFFFFFFFFFFFFFFFFFFFFFF AND DUP2 MSTORE PUSH1 0x20 ADD SWAP1 DUP2 MSTORE PUSH1 0x20 ADD PUSH1 0x0 KECCAK256 PUSH1 0x4 ADD SLOAD SWAP3 POP PUSH1 0x0 PUSH1 0x3 DUP2 SWAP1 SSTORE POP JUMPDEST PUSH1 0x2 DUP1 SLOAD SWAP1 POP PUSH1 0x3 SLOAD LT ISZERO PUSH2 0x18C3 JUMPI PUSH1 0x2 PUSH1 0x3 SLOAD DUP2 SLOAD DUP2 LT PUSH2 0x17AA JUMPI PUSH2 0x17A9 PUSH2 0x50D1 JUMP JUMPDEST JUMPDEST SWAP1 PUSH1 0x0 MSTORE PUSH1 0x20 PUSH1 0x0 KECCAK256 SWAP1 PUSH1 0x4 MUL ADD PUSH1 0x0 ADD PUSH1 0x40 MLOAD PUSH1 0x20 ADD PUSH2 0x17CB SWAP2 SWAP1 PUSH2 0x4594 JUMP JUMPDEST PUSH1 0x40 MLOAD PUSH1 0x20 DUP2 DUP4 SUB SUB DUP2 MSTORE SWAP1 PUSH1 0x40 MSTORE DUP1 MLOAD SWAP1 PUSH1 0x20 ADD KECCAK256 PUSH1 0x0 SHR DUP10 PUSH1 0x40 MLOAD PUSH1 0x20 ADD PUSH2 0x17F5 SWAP2 SWAP1 PUSH2 0x457D JUMP JUMPDEST PUSH1 0x40 MLOAD PUSH1 0x20 DUP2 DUP4 SUB SUB DUP2 MSTORE SWAP1 PUSH1 0x40 MSTORE DUP1 MLOAD SWAP1 PUSH1 0x20 ADD KECCAK256 PUSH1 0x0 SHR EQ ISZERO PUSH2 0x18A6 JUMPI PUSH1 0x1 SWAP7 POP PUSH1 0x2 PUSH1 0x3 SLOAD DUP2 SLOAD DUP2 LT PUSH2 0x182E JUMPI PUSH2 0x182D PUSH2 0x50D1 JUMP JUMPDEST JUMPDEST SWAP1 PUSH1 0x0 MSTORE PUSH1 0x20 PUSH1 0x0 KECCAK256 SWAP1 PUSH1 0x4 MUL ADD PUSH1 0x3 ADD SLOAD SWAP5 POP PUSH1 0x0 DUP4 EQ ISZERO PUSH2 0x187A JUMPI PUSH1 0x2 PUSH1 0x3 SLOAD DUP2 SLOAD DUP2 LT PUSH2 0x1861 JUMPI PUSH2 0x1860 PUSH2 0x50D1 JUMP JUMPDEST JUMPDEST SWAP1 PUSH1 0x0 MSTORE PUSH1 0x20 PUSH1 0x0 KECCAK256 SWAP1 PUSH1 0x4 MUL ADD PUSH1 0x1 ADD SLOAD SWAP4 POP PUSH2 0x18A5 JUMP JUMPDEST PUSH1 0x2 PUSH1 0x3 SLOAD DUP2 SLOAD DUP2 LT PUSH2 0x1890 JUMPI PUSH2 0x188F PUSH2 0x50D1 JUMP JUMPDEST JUMPDEST SWAP1 PUSH1 0x0 MSTORE PUSH1 0x20 PUSH1 0x0 KECCAK256 SWAP1 PUSH1 0x4 MUL ADD PUSH1 0x2 ADD SLOAD SWAP4 POP JUMPDEST JUMPDEST PUSH1 0x3 PUSH1 0x0 DUP2 SLOAD DUP1 SWAP3 SWAP2 SWAP1 PUSH2 0x18B9 SWAP1 PUSH2 0x4F1C JUMP JUMPDEST SWAP2 SWAP1 POP SSTORE POP PUSH2 0x1785 JUMP JUMPDEST PUSH1 0x1 ISZERO ISZERO DUP8 ISZERO ISZERO EQ PUSH2 0x190A JUMPI PUSH1 0x40 MLOAD PUSH32 0x8C379A000000000000000000000000000000000000000000000000000000000 DUP2 MSTORE PUSH1 0x4 ADD PUSH2 0x1901 SWAP1 PUSH2 0x4ADD JUMP JUMPDEST PUSH1 0x40 MLOAD DUP1 SWAP2 SUB SWAP1 REVERT JUMPDEST PUSH1 0x0 SWAP7 POP PUSH1 0x0 PUSH1 0x3 DUP2 SWAP1 SSTORE POP JUMPDEST PUSH1 0x6 DUP1 SLOAD SWAP1 POP PUSH1 0x3 SLOAD LT ISZERO PUSH2 0x1A9E JUMPI PUSH1 0x6 PUSH1 0x3 SLOAD DUP2 SLOAD DUP2 LT PUSH2 0x193C JUMPI PUSH2 0x193B PUSH2 0x50D1 JUMP JUMPDEST JUMPDEST SWAP1 PUSH1 0x0 MSTORE PUSH1 0x20 PUSH1 0x0 KECCAK256 SWAP1 PUSH1 0x4 MUL ADD PUSH1 0x1 ADD PUSH1 0x0 SWAP1 SLOAD SWAP1 PUSH2 0x100 EXP SWAP1 DIV PUSH20 0xFFFFFFFFFFFFFFFFFFFFFFFFFFFFFFFFFFFFFFFF AND PUSH1 0x40 MLOAD PUSH1 0x20 ADD PUSH2 0x197E SWAP2 SWAP1 PUSH2 0x4562 JUMP JUMPDEST PUSH1 0x40 MLOAD PUSH1 0x20 DUP2 DUP4 SUB SUB DUP2 MSTORE SWAP1 PUSH1 0x40 MSTORE DUP1 MLOAD SWAP1 PUSH1 0x20 ADD KECCAK256 PUSH1 0x0 SHR CALLER PUSH1 0x40 MLOAD PUSH1 0x20 ADD PUSH2 0x19A8 SWAP2 SWAP1 PUSH2 0x4562 JUMP JUMPDEST PUSH1 0x40 MLOAD PUSH1 0x20 DUP2 DUP4 SUB SUB DUP2 MSTORE SWAP1 PUSH1 0x40 MSTORE DUP1 MLOAD SWAP1 PUSH1 0x20 ADD KECCAK256 PUSH1 0x0 SHR EQ ISZERO PUSH2 0x1A81 JUMPI PUSH1 0x6 PUSH1 0x3 SLOAD DUP2 SLOAD DUP2 LT PUSH2 0x19DD JUMPI PUSH2 0x19DC PUSH2 0x50D1 JUMP JUMPDEST JUMPDEST SWAP1 PUSH1 0x0 MSTORE PUSH1 0x20 PUSH1 0x0 KECCAK256 SWAP1 PUSH1 0x4 MUL ADD PUSH1 0x2 ADD PUSH1 0x40 MLOAD PUSH1 0x20 ADD PUSH2 0x19FE SWAP2 SWAP1 PUSH2 0x4594 JUMP JUMPDEST PUSH1 0x40 MLOAD PUSH1 0x20 DUP2 DUP4 SUB SUB DUP2 MSTORE SWAP1 PUSH1 0x40 MSTORE DUP1 MLOAD SWAP1 PUSH1 0x20 ADD KECCAK256 PUSH1 0x0 SHR DUP10 PUSH1 0x40 MLOAD PUSH1 0x20 ADD PUSH2 0x1A28 SWAP2 SWAP1 PUSH2 0x457D JUMP JUMPDEST PUSH1 0x40 MLOAD PUSH1 0x20 DUP2 DUP4 SUB SUB DUP2 MSTORE SWAP1 PUSH1 0x40 MSTORE DUP1 MLOAD SWAP1 PUSH1 0x20 ADD KECCAK256 PUSH1 0x0 SHR EQ ISZERO PUSH2 0x1A80 JUMPI DUP5 PUSH1 0x6 PUSH1 0x3 SLOAD DUP2 SLOAD DUP2 LT PUSH2 0x1A5E JUMPI PUSH2 0x1A5D PUSH2 0x50D1 JUMP JUMPDEST JUMPDEST SWAP1 PUSH1 0x0 MSTORE PUSH1 0x20 PUSH1 0x0 KECCAK256 SWAP1 PUSH1 0x4 MUL ADD PUSH1 0x3 ADD SLOAD LT PUSH2 0x1A7F JUMPI PUSH1 0x1 SWAP7 POP PUSH1 0x3 SLOAD SWAP6 POP JUMPDEST JUMPDEST JUMPDEST PUSH1 0x3 PUSH1 0x0 DUP2 SLOAD DUP1 SWAP3 SWAP2 SWAP1 PUSH2 0x1A94 SWAP1 PUSH2 0x4F1C JUMP JUMPDEST SWAP2 SWAP1 POP SSTORE POP PUSH2 0x1917 JUMP JUMPDEST PUSH1 0x1 ISZERO ISZERO DUP8 ISZERO ISZERO EQ PUSH2 0x1AE5 JUMPI PUSH1 0x40 MLOAD PUSH32 0x8C379A000000000000000000000000000000000000000000000000000000000 DUP2 MSTORE PUSH1 0x4 ADD PUSH2 0x1ADC SWAP1 PUSH2 0x4A3D JUMP JUMPDEST PUSH1 0x40 MLOAD DUP1 SWAP2 SUB SWAP1 REVERT JUMPDEST PUSH1 0x0 SWAP7 POP PUSH1 0x0 PUSH1 0x3 DUP2 SWAP1 SSTORE POP JUMPDEST PUSH1 0x7 DUP1 SLOAD SWAP1 POP PUSH1 0x3 SLOAD LT ISZERO PUSH2 0x1C45 JUMPI PUSH1 0x7 PUSH1 0x3 SLOAD DUP2 SLOAD DUP2 LT PUSH2 0x1B17 JUMPI PUSH2 0x1B16 PUSH2 0x50D1 JUMP JUMPDEST JUMPDEST SWAP1 PUSH1 0x0 MSTORE PUSH1 0x20 PUSH1 0x0 KECCAK256 SWAP1 PUSH1 0x7 MUL ADD PUSH1 0x1 ADD PUSH1 0x0 SWAP1 SLOAD SWAP1 PUSH2 0x100 EXP SWAP1 DIV PUSH20 0xFFFFFFFFFFFFFFFFFFFFFFFFFFFFFFFFFFFFFFFF AND PUSH1 0x40 MLOAD PUSH1 0x20 ADD PUSH2 0x1B59 SWAP2 SWAP1 PUSH2 0x4562 JUMP JUMPDEST PUSH1 0x40 MLOAD PUSH1 0x20 DUP2 DUP4 SUB SUB DUP2 MSTORE SWAP1 PUSH1 0x40 MSTORE DUP1 MLOAD SWAP1 PUSH1 0x20 ADD KECCAK256 PUSH1 0x0 SHR DUP11 PUSH1 0x40 MLOAD PUSH1 0x20 ADD PUSH2 0x1B83 SWAP2 SWAP1 PUSH2 0x4562 JUMP JUMPDEST PUSH1 0x40 MLOAD PUSH1 0x20 DUP2 DUP4 SUB SUB DUP2 MSTORE SWAP1 PUSH1 0x40 MSTORE DUP1 MLOAD SWAP1 PUSH1 0x20 ADD KECCAK256 PUSH1 0x0 SHR EQ ISZERO PUSH2 0x1C28 JUMPI PUSH1 0x7 PUSH1 0x3 SLOAD DUP2 SLOAD DUP2 LT PUSH2 0x1BB8 JUMPI PUSH2 0x1BB7 PUSH2 0x50D1 JUMP JUMPDEST JUMPDEST SWAP1 PUSH1 0x0 MSTORE PUSH1 0x20 PUSH1 0x0 KECCAK256 SWAP1 PUSH1 0x7 MUL ADD PUSH1 0x2 ADD PUSH1 0x40 MLOAD PUSH1 0x20 ADD PUSH2 0x1BD9 SWAP2 SWAP1 PUSH2 0x4594 JUMP JUMPDEST PUSH1 0x40 MLOAD PUSH1 0x20 DUP2 DUP4 SUB SUB DUP2 MSTORE SWAP1 PUSH1 0x40 MSTORE DUP1 MLOAD SWAP1 PUSH1 0x20 ADD KECCAK256 PUSH1 0x0 SHR DUP10 PUSH1 0x40 MLOAD PUSH1 0x20 ADD PUSH2 0x1C03 SWAP2 SWAP1 PUSH2 0x457D JUMP JUMPDEST PUSH1 0x40 MLOAD PUSH1 0x20 DUP2 DUP4 SUB SUB DUP2 MSTORE SWAP1 PUSH1 0x40 MSTORE DUP1 MLOAD SWAP1 PUSH1 0x20 ADD KECCAK256 PUSH1 0x0 SHR EQ ISZERO PUSH2 0x1C27 JUMPI PUSH1 0x1 SWAP7 POP JUMPDEST JUMPDEST PUSH1 0x3 PUSH1 0x0 DUP2 SLOAD DUP1 SWAP3 SWAP2 SWAP1 PUSH2 0x1C3B SWAP1 PUSH2 0x4F1C JUMP JUMPDEST SWAP2 SWAP1 POP SSTORE POP PUSH2 0x1AF2 JUMP JUMPDEST PUSH1 0x0 ISZERO ISZERO DUP8 ISZERO ISZERO EQ PUSH2 0x1C8C JUMPI PUSH1 0x40 MLOAD PUSH32 0x8C379A000000000000000000000000000000000000000000000000000000000 DUP2 MSTORE PUSH1 0x4 ADD PUSH2 0x1C83 SWAP1 PUSH2 0x4B5D JUMP JUMPDEST PUSH1 0x40 MLOAD DUP1 SWAP2 SUB SWAP1 REVERT JUMPDEST PUSH1 0x7 DUP1 SLOAD SWAP1 POP SWAP1 POP PUSH1 0x7 PUSH1 0x40 MLOAD DUP1 PUSH1 0xE0 ADD PUSH1 0x40 MSTORE DUP1 CALLER PUSH20 0xFFFFFFFFFFFFFFFFFFFFFFFFFFFFFFFFFFFFFFFF AND DUP2 MSTORE PUSH1 0x20 ADD DUP13 PUSH20 0xFFFFFFFFFFFFFFFFFFFFFFFFFFFFFFFFFFFFFFFF AND DUP2 MSTORE PUSH1 0x20 ADD DUP12 DUP2 MSTORE PUSH1 0x20 ADD DUP7 DUP2 MSTORE PUSH1 0x20 ADD DUP8 DUP2 MSTORE PUSH1 0x20 ADD TIMESTAMP DUP2 MSTORE PUSH1 0x20 ADD DUP4 DUP2 MSTORE POP SWAP1 DUP1 PUSH1 0x1 DUP2 SLOAD ADD DUP1 DUP3 SSTORE DUP1 SWAP2 POP POP PUSH1 0x1 SWAP1 SUB SWAP1 PUSH1 0x0 MSTORE PUSH1 0x20 PUSH1 0x0 KECCAK256 SWAP1 PUSH1 0x7 MUL ADD PUSH1 0x0 SWAP1 SWAP2 SWAP1 SWAP2 SWAP1 SWAP2 POP PUSH1 0x0 DUP3 ADD MLOAD DUP2 PUSH1 0x0 ADD PUSH1 0x0 PUSH2 0x100 EXP DUP2 SLOAD DUP2 PUSH20 0xFFFFFFFFFFFFFFFFFFFFFFFFFFFFFFFFFFFFFFFF MUL NOT AND SWAP1 DUP4 PUSH20 0xFFFFFFFFFFFFFFFFFFFFFFFFFFFFFFFFFFFFFFFF AND MUL OR SWAP1 SSTORE POP PUSH1 0x20 DUP3 ADD MLOAD DUP2 PUSH1 0x1 ADD PUSH1 0x0 PUSH2 0x100 EXP DUP2 SLOAD DUP2 PUSH20 0xFFFFFFFFFFFFFFFFFFFFFFFFFFFFFFFFFFFFFFFF MUL NOT AND SWAP1 DUP4 PUSH20 0xFFFFFFFFFFFFFFFFFFFFFFFFFFFFFFFFFFFFFFFF AND MUL OR SWAP1 SSTORE POP PUSH1 0x40 DUP3 ADD MLOAD DUP2 PUSH1 0x2 ADD SWAP1 DUP1 MLOAD SWAP1 PUSH1 0x20 ADD SWAP1 PUSH2 0x1DC8 SWAP3 SWAP2 SWAP1 PUSH2 0x3A3B JUMP JUMPDEST POP PUSH1 0x60 DUP3 ADD MLOAD DUP2 PUSH1 0x3 ADD SSTORE PUSH1 0x80 DUP3 ADD MLOAD DUP2 PUSH1 0x4 ADD SSTORE PUSH1 0xA0 DUP3 ADD MLOAD DUP2 PUSH1 0x5 ADD SSTORE PUSH1 0xC0 DUP3 ADD MLOAD DUP2 PUSH1 0x6 ADD SSTORE POP POP PUSH32 0x16E42B147668AA01F606265244409CD8D6FFE3B4A78CD76AD729921D05F34B4B CALLER DUP12 DUP12 DUP8 DUP10 TIMESTAMP DUP8 PUSH1 0x40 MLOAD PUSH2 0x1E2E SWAP8 SWAP7 SWAP6 SWAP5 SWAP4 SWAP3 SWAP2 SWAP1 PUSH2 0x45C6 JUMP JUMPDEST PUSH1 0x40 MLOAD DUP1 SWAP2 SUB SWAP1 LOG1 DUP1 SWAP8 POP POP POP POP POP POP POP POP SWAP3 SWAP2 POP POP JUMP JUMPDEST PUSH1 0x0 DUP1 PUSH1 0x0 DUP1 SLOAD SWAP1 PUSH2 0x100 EXP SWAP1 DIV PUSH20 0xFFFFFFFFFFFFFFFFFFFFFFFFFFFFFFFFFFFFFFFF AND PUSH20 0xFFFFFFFFFFFFFFFFFFFFFFFFFFFFFFFFFFFFFFFF AND CALLER PUSH20 0xFFFFFFFFFFFFFFFFFFFFFFFFFFFFFFFFFFFFFFFF AND EQ PUSH2 0x1ED7 JUMPI PUSH1 0x40 MLOAD PUSH32 0x8C379A000000000000000000000000000000000000000000000000000000000 DUP2 MSTORE PUSH1 0x4 ADD PUSH2 0x1ECE SWAP1 PUSH2 0x493D JUMP JUMPDEST PUSH1 0x40 MLOAD DUP1 SWAP2 SUB SWAP1 REVERT JUMPDEST PUSH1 0x0 PUSH1 0x3 DUP2 SWAP1 SSTORE POP JUMPDEST PUSH1 0x2 DUP1 SLOAD SWAP1 POP PUSH1 0x3 SLOAD LT ISZERO PUSH2 0x1F96 JUMPI PUSH1 0x2 PUSH1 0x3 SLOAD DUP2 SLOAD DUP2 LT PUSH2 0x1F05 JUMPI PUSH2 0x1F04 PUSH2 0x50D1 JUMP JUMPDEST JUMPDEST SWAP1 PUSH1 0x0 MSTORE PUSH1 0x20 PUSH1 0x0 KECCAK256 SWAP1 PUSH1 0x4 MUL ADD PUSH1 0x0 ADD PUSH1 0x40 MLOAD PUSH1 0x20 ADD PUSH2 0x1F26 SWAP2 SWAP1 PUSH2 0x4594 JUMP JUMPDEST PUSH1 0x40 MLOAD PUSH1 0x20 DUP2 DUP4 SUB SUB DUP2 MSTORE SWAP1 PUSH1 0x40 MSTORE DUP1 MLOAD SWAP1 PUSH1 0x20 ADD KECCAK256 PUSH1 0x0 SHR DUP7 PUSH1 0x40 MLOAD PUSH1 0x20 ADD PUSH2 0x1F50 SWAP2 SWAP1 PUSH2 0x457D JUMP JUMPDEST PUSH1 0x40 MLOAD PUSH1 0x20 DUP2 DUP4 SUB SUB DUP2 MSTORE SWAP1 PUSH1 0x40 MSTORE DUP1 MLOAD SWAP1 PUSH1 0x20 ADD KECCAK256 PUSH1 0x0 SHR EQ ISZERO PUSH2 0x1F79 JUMPI PUSH1 0x1 SWAP2 POP PUSH1 0x3 SLOAD SWAP1 POP JUMPDEST PUSH1 0x3 PUSH1 0x0 DUP2 SLOAD DUP1 SWAP3 SWAP2 SWAP1 PUSH2 0x1F8C SWAP1 PUSH2 0x4F1C JUMP JUMPDEST SWAP2 SWAP1 POP SSTORE POP PUSH2 0x1EE0 JUMP JUMPDEST PUSH1 0x1 ISZERO ISZERO DUP3 ISZERO ISZERO EQ PUSH2 0x1FDD JUMPI PUSH1 0x40 MLOAD PUSH32 0x8C379A000000000000000000000000000000000000000000000000000000000 DUP2 MSTORE PUSH1 0x4 ADD PUSH2 0x1FD4 SWAP1 PUSH2 0x4BBD JUMP JUMPDEST PUSH1 0x40 MLOAD DUP1 SWAP2 SUB SWAP1 REVERT JUMPDEST PUSH1 0x0 DUP6 EQ DUP1 PUSH2 0x1FEC JUMPI POP PUSH1 0x0 DUP5 EQ JUMPDEST ISZERO PUSH2 0x21DC JUMPI PUSH1 0x2 PUSH1 0x1 PUSH1 0x2 DUP1 SLOAD SWAP1 POP PUSH2 0x2005 SWAP2 SWAP1 PUSH2 0x4DDA JUMP JUMPDEST DUP2 SLOAD DUP2 LT PUSH2 0x2016 JUMPI PUSH2 0x2015 PUSH2 0x50D1 JUMP JUMPDEST JUMPDEST SWAP1 PUSH1 0x0 MSTORE PUSH1 0x20 PUSH1 0x0 KECCAK256 SWAP1 PUSH1 0x4 MUL ADD PUSH1 0x0 ADD PUSH1 0x2 DUP3 DUP2 SLOAD DUP2 LT PUSH2 0x203B JUMPI PUSH2 0x203A PUSH2 0x50D1 JUMP JUMPDEST JUMPDEST SWAP1 PUSH1 0x0 MSTORE PUSH1 0x20 PUSH1 0x0 KECCAK256 SWAP1 PUSH1 0x4 MUL ADD PUSH1 0x0 ADD SWAP1 DUP1 SLOAD PUSH2 0x2058 SWAP1 PUSH2 0x4EB9 JUMP JUMPDEST PUSH2 0x2063 SWAP3 SWAP2 SWAP1 PUSH2 0x3AE5 JUMP JUMPDEST POP PUSH1 0x2 PUSH1 0x1 PUSH1 0x2 DUP1 SLOAD SWAP1 POP PUSH2 0x2078 SWAP2 SWAP1 PUSH2 0x4DDA JUMP JUMPDEST DUP2 SLOAD DUP2 LT PUSH2 0x2089 JUMPI PUSH2 0x2088 PUSH2 0x50D1 JUMP JUMPDEST JUMPDEST SWAP1 PUSH1 0x0 MSTORE PUSH1 0x20 PUSH1 0x0 KECCAK256 SWAP1 PUSH1 0x4 MUL ADD PUSH1 0x2 ADD SLOAD PUSH1 0x2 DUP3 DUP2 SLOAD DUP2 LT PUSH2 0x20AF JUMPI PUSH2 0x20AE PUSH2 0x50D1 JUMP JUMPDEST JUMPDEST SWAP1 PUSH1 0x0 MSTORE PUSH1 0x20 PUSH1 0x0 KECCAK256 SWAP1 PUSH1 0x4 MUL ADD PUSH1 0x2 ADD DUP2 SWAP1 SSTORE POP PUSH1 0x2 PUSH1 0x1 PUSH1 0x2 DUP1 SLOAD SWAP1 POP PUSH2 0x20D8 SWAP2 SWAP1 PUSH2 0x4DDA JUMP JUMPDEST DUP2 SLOAD DUP2 LT PUSH2 0x20E9 JUMPI PUSH2 0x20E8 PUSH2 0x50D1 JUMP JUMPDEST JUMPDEST SWAP1 PUSH1 0x0 MSTORE PUSH1 0x20 PUSH1 0x0 KECCAK256 SWAP1 PUSH1 0x4 MUL ADD PUSH1 0x1 ADD SLOAD PUSH1 0x2 DUP3 DUP2 SLOAD DUP2 LT PUSH2 0x210F JUMPI PUSH2 0x210E PUSH2 0x50D1 JUMP JUMPDEST JUMPDEST SWAP1 PUSH1 0x0 MSTORE PUSH1 0x20 PUSH1 0x0 KECCAK256 SWAP1 PUSH1 0x4 MUL ADD PUSH1 0x1 ADD DUP2 SWAP1 SSTORE POP PUSH1 0x2 PUSH1 0x1 PUSH1 0x2 DUP1 SLOAD SWAP1 POP PUSH2 0x2138 SWAP2 SWAP1 PUSH2 0x4DDA JUMP JUMPDEST DUP2 SLOAD DUP2 LT PUSH2 0x2149 JUMPI PUSH2 0x2148 PUSH2 0x50D1 JUMP JUMPDEST JUMPDEST SWAP1 PUSH1 0x0 MSTORE PUSH1 0x20 PUSH1 0x0 KECCAK256 SWAP1 PUSH1 0x4 MUL ADD PUSH1 0x3 ADD SLOAD PUSH1 0x2 DUP3 DUP2 SLOAD DUP2 LT PUSH2 0x216F JUMPI PUSH2 0x216E PUSH2 0x50D1 JUMP JUMPDEST JUMPDEST SWAP1 PUSH1 0x0 MSTORE PUSH1 0x20 PUSH1 0x0 KECCAK256 SWAP1 PUSH1 0x4 MUL ADD PUSH1 0x3 ADD DUP2 SWAP1 SSTORE POP PUSH1 0x2 DUP1 SLOAD DUP1 PUSH2 0x2196 JUMPI PUSH2 0x2195 PUSH2 0x50A2 JUMP JUMPDEST JUMPDEST PUSH1 0x1 SWAP1 SUB DUP2 DUP2 SWAP1 PUSH1 0x0 MSTORE PUSH1 0x20 PUSH1 0x0 KECCAK256 SWAP1 PUSH1 0x4 MUL ADD PUSH1 0x0 DUP1 DUP3 ADD PUSH1 0x0 PUSH2 0x21BB SWAP2 SWAP1 PUSH2 0x3B72 JUMP JUMPDEST PUSH1 0x1 DUP3 ADD PUSH1 0x0 SWAP1 SSTORE PUSH1 0x2 DUP3 ADD PUSH1 0x0 SWAP1 SSTORE PUSH1 0x3 DUP3 ADD PUSH1 0x0 SWAP1 SSTORE POP POP SWAP1 SSTORE PUSH2 0x2298 JUMP JUMPDEST DUP5 PUSH1 0x2 DUP3 DUP2 SLOAD DUP2 LT PUSH2 0x21F1 JUMPI PUSH2 0x21F0 PUSH2 0x50D1 JUMP JUMPDEST JUMPDEST SWAP1 PUSH1 0x0 MSTORE PUSH1 0x20 PUSH1 0x0 KECCAK256 SWAP1 PUSH1 0x4 MUL ADD PUSH1 0x2 ADD DUP2 SWAP1 SSTORE POP DUP4 PUSH1 0x2 DUP3 DUP2 SLOAD DUP2 LT PUSH2 0x221B JUMPI PUSH2 0x221A PUSH2 0x50D1 JUMP JUMPDEST JUMPDEST SWAP1 PUSH1 0x0 MSTORE PUSH1 0x20 PUSH1 0x0 KECCAK256 SWAP1 PUSH1 0x4 MUL ADD PUSH1 0x1 ADD DUP2 SWAP1 SSTORE POP DUP3 PUSH1 0x2 DUP3 DUP2 SLOAD DUP2 LT PUSH2 0x2245 JUMPI PUSH2 0x2244 PUSH2 0x50D1 JUMP JUMPDEST JUMPDEST SWAP1 PUSH1 0x0 MSTORE PUSH1 0x20 PUSH1 0x0 KECCAK256 SWAP1 PUSH1 0x4 MUL ADD PUSH1 0x3 ADD DUP2 SWAP1 SSTORE POP PUSH32 0x967D29D9CD5E63A44833C45A6D292DB030510A8ABB92662571394E2EDD6E6093 DUP7 DUP6 DUP8 DUP7 PUSH1 0x40 MLOAD PUSH2 0x228F SWAP5 SWAP4 SWAP3 SWAP2 SWAP1 PUSH2 0x47C8 JUMP JUMPDEST PUSH1 0x40 MLOAD DUP1 SWAP2 SUB SWAP1 LOG1 JUMPDEST POP POP POP POP POP POP JUMP JUMPDEST PUSH1 0x7 DUP2 DUP2 SLOAD DUP2 LT PUSH2 0x22B0 JUMPI PUSH1 0x0 DUP1 REVERT JUMPDEST SWAP1 PUSH1 0x0 MSTORE PUSH1 0x20 PUSH1 0x0 KECCAK256 SWAP1 PUSH1 0x7 MUL ADD PUSH1 0x0 SWAP2 POP SWAP1 POP DUP1 PUSH1 0x0 ADD PUSH1 0x0 SWAP1 SLOAD SWAP1 PUSH2 0x100 EXP SWAP1 DIV PUSH20 0xFFFFFFFFFFFFFFFFFFFFFFFFFFFFFFFFFFFFFFFF AND SWAP1 DUP1 PUSH1 0x1 ADD PUSH1 0x0 SWAP1 SLOAD SWAP1 PUSH2 0x100 EXP SWAP1 DIV PUSH20 0xFFFFFFFFFFFFFFFFFFFFFFFFFFFFFFFFFFFFFFFF AND SWAP1 DUP1 PUSH1 0x2 ADD DUP1 SLOAD PUSH2 0x231F SWAP1 PUSH2 0x4EB9 JUMP JUMPDEST DUP1 PUSH1 0x1F ADD PUSH1 0x20 DUP1 SWAP2 DIV MUL PUSH1 0x20 ADD PUSH1 0x40 MLOAD SWAP1 DUP2 ADD PUSH1 0x40 MSTORE DUP1 SWAP3 SWAP2 SWAP1 DUP2 DUP2 MSTORE PUSH1 0x20 ADD DUP3 DUP1 SLOAD PUSH2 0x234B SWAP1 PUSH2 0x4EB9 JUMP JUMPDEST DUP1 ISZERO PUSH2 0x2398 JUMPI DUP1 PUSH1 0x1F LT PUSH2 0x236D JUMPI PUSH2 0x100 DUP1 DUP4 SLOAD DIV MUL DUP4 MSTORE SWAP2 PUSH1 0x20 ADD SWAP2 PUSH2 0x2398 JUMP JUMPDEST DUP3 ADD SWAP2 SWAP1 PUSH1 0x0 MSTORE PUSH1 0x20 PUSH1 0x0 KECCAK256 SWAP1 JUMPDEST DUP2 SLOAD DUP2 MSTORE SWAP1 PUSH1 0x1 ADD SWAP1 PUSH1 0x20 ADD DUP1 DUP4 GT PUSH2 0x237B JUMPI DUP3 SWAP1 SUB PUSH1 0x1F AND DUP3 ADD SWAP2 JUMPDEST POP POP POP POP POP SWAP1 DUP1 PUSH1 0x3 ADD SLOAD SWAP1 DUP1 PUSH1 0x4 ADD SLOAD SWAP1 DUP1 PUSH1 0x5 ADD SLOAD SWAP1 DUP1 PUSH1 0x6 ADD SLOAD SWAP1 POP DUP8 JUMP JUMPDEST PUSH1 0x0 DUP1 PUSH1 0x0 PUSH1 0x3 DUP2 SWAP1 SSTORE POP JUMPDEST PUSH1 0x1 DUP1 SLOAD SWAP1 POP PUSH1 0x3 SLOAD LT ISZERO PUSH2 0x249D JUMPI PUSH1 0x1 PUSH1 0x3 SLOAD DUP2 SLOAD DUP2 LT PUSH2 0x23EB JUMPI PUSH2 0x23EA PUSH2 0x50D1 JUMP JUMPDEST JUMPDEST SWAP1 PUSH1 0x0 MSTORE PUSH1 0x20 PUSH1 0x0 KECCAK256 SWAP1 PUSH1 0x2 MUL ADD PUSH1 0x0 ADD PUSH1 0x0 SWAP1 SLOAD SWAP1 PUSH2 0x100 EXP SWAP1 DIV PUSH20 0xFFFFFFFFFFFFFFFFFFFFFFFFFFFFFFFFFFFFFFFF AND PUSH1 0x40 MLOAD PUSH1 0x20 ADD PUSH2 0x242D SWAP2 SWAP1 PUSH2 0x4562 JUMP JUMPDEST PUSH1 0x40 MLOAD PUSH1 0x20 DUP2 DUP4 SUB SUB DUP2 MSTORE SWAP1 PUSH1 0x40 MSTORE DUP1 MLOAD SWAP1 PUSH1 0x20 ADD KECCAK256 PUSH1 0x0 SHR CALLER PUSH1 0x40 MLOAD PUSH1 0x20 ADD PUSH2 0x2457 SWAP2 SWAP1 PUSH2 0x4562 JUMP JUMPDEST PUSH1 0x40 MLOAD PUSH1 0x20 DUP2 DUP4 SUB SUB DUP2 MSTORE SWAP1 PUSH1 0x40 MSTORE DUP1 MLOAD SWAP1 PUSH1 0x20 ADD KECCAK256 PUSH1 0x0 SHR EQ ISZERO PUSH2 0x2480 JUMPI PUSH1 0x1 SWAP2 POP PUSH1 0x3 SLOAD SWAP1 POP JUMPDEST PUSH1 0x3 PUSH1 0x0 DUP2 SLOAD DUP1 SWAP3 SWAP2 SWAP1 PUSH2 0x2493 SWAP1 PUSH2 0x4F1C JUMP JUMPDEST SWAP2 SWAP1 POP SSTORE POP PUSH2 0x23C6 JUMP JUMPDEST PUSH1 0x1 ISZERO ISZERO DUP3 ISZERO ISZERO EQ PUSH2 0x24E4 JUMPI PUSH1 0x40 MLOAD PUSH32 0x8C379A000000000000000000000000000000000000000000000000000000000 DUP2 MSTORE PUSH1 0x4 ADD PUSH2 0x24DB SWAP1 PUSH2 0x4B7D JUMP JUMPDEST PUSH1 0x40 MLOAD DUP1 SWAP2 SUB SWAP1 REVERT JUMPDEST PUSH1 0x0 SWAP2 POP PUSH1 0x0 PUSH1 0x3 DUP2 SWAP1 SSTORE POP JUMPDEST PUSH1 0x2 DUP1 SLOAD SWAP1 POP PUSH1 0x3 SLOAD LT ISZERO PUSH2 0x25A2 JUMPI PUSH1 0x2 PUSH1 0x3 SLOAD DUP2 SLOAD DUP2 LT PUSH2 0x2516 JUMPI PUSH2 0x2515 PUSH2 0x50D1 JUMP JUMPDEST JUMPDEST SWAP1 PUSH1 0x0 MSTORE PUSH1 0x20 PUSH1 0x0 KECCAK256 SWAP1 PUSH1 0x4 MUL ADD PUSH1 0x0 ADD PUSH1 0x40 MLOAD PUSH1 0x20 ADD PUSH2 0x2537 SWAP2 SWAP1 PUSH2 0x4594 JUMP JUMPDEST PUSH1 0x40 MLOAD PUSH1 0x20 DUP2 DUP4 SUB SUB DUP2 MSTORE SWAP1 PUSH1 0x40 MSTORE DUP1 MLOAD SWAP1 PUSH1 0x20 ADD KECCAK256 PUSH1 0x0 SHR DUP5 PUSH1 0x40 MLOAD PUSH1 0x20 ADD PUSH2 0x2561 SWAP2 SWAP1 PUSH2 0x457D JUMP JUMPDEST PUSH1 0x40 MLOAD PUSH1 0x20 DUP2 DUP4 SUB SUB DUP2 MSTORE SWAP1 PUSH1 0x40 MSTORE DUP1 MLOAD SWAP1 PUSH1 0x20 ADD KECCAK256 PUSH1 0x0 SHR EQ ISZERO PUSH2 0x2585 JUMPI PUSH1 0x1 SWAP2 POP JUMPDEST PUSH1 0x3 PUSH1 0x0 DUP2 SLOAD DUP1 SWAP3 SWAP2 SWAP1 PUSH2 0x2598 SWAP1 PUSH2 0x4F1C JUMP JUMPDEST SWAP2 SWAP1 POP SSTORE POP PUSH2 0x24F1 JUMP JUMPDEST PUSH1 0x1 ISZERO ISZERO DUP3 ISZERO ISZERO EQ PUSH2 0x25E9 JUMPI PUSH1 0x40 MLOAD PUSH32 0x8C379A000000000000000000000000000000000000000000000000000000000 DUP2 MSTORE PUSH1 0x4 ADD PUSH2 0x25E0 SWAP1 PUSH2 0x4A7D JUMP JUMPDEST PUSH1 0x40 MLOAD DUP1 SWAP2 SUB SWAP1 REVERT JUMPDEST PUSH1 0x0 SWAP2 POP PUSH1 0x1 PUSH1 0x5 PUSH1 0x0 DUP8 PUSH20 0xFFFFFFFFFFFFFFFFFFFFFFFFFFFFFFFFFFFFFFFF AND PUSH20 0xFFFFFFFFFFFFFFFFFFFFFFFFFFFFFFFFFFFFFFFF AND DUP2 MSTORE PUSH1 0x20 ADD SWAP1 DUP2 MSTORE PUSH1 0x20 ADD PUSH1 0x0 KECCAK256 PUSH1 0x4 ADD SLOAD EQ PUSH2 0x2672 JUMPI PUSH1 0x40 MLOAD PUSH32 0x8C379A000000000000000000000000000000000000000000000000000000000 DUP2 MSTORE PUSH1 0x4 ADD PUSH2 0x2669 SWAP1 PUSH2 0x497D JUMP JUMPDEST PUSH1 0x40 MLOAD DUP1 SWAP2 SUB SWAP1 REVERT JUMPDEST PUSH1 0x0 PUSH1 0x3 DUP2 SWAP1 SSTORE POP JUMPDEST PUSH1 0x6 DUP1 SLOAD SWAP1 POP PUSH1 0x3 SLOAD LT ISZERO PUSH2 0x28B1 JUMPI PUSH1 0x6 PUSH1 0x3 SLOAD DUP2 SLOAD DUP2 LT PUSH2 0x26A0 JUMPI PUSH2 0x269F PUSH2 0x50D1 JUMP JUMPDEST JUMPDEST SWAP1 PUSH1 0x0 MSTORE PUSH1 0x20 PUSH1 0x0 KECCAK256 SWAP1 PUSH1 0x4 MUL ADD PUSH1 0x0 ADD PUSH1 0x40 MLOAD PUSH1 0x20 ADD PUSH2 0x26C1 SWAP2 SWAP1 PUSH2 0x4594 JUMP JUMPDEST PUSH1 0x40 MLOAD PUSH1 0x20 DUP2 DUP4 SUB SUB DUP2 MSTORE SWAP1 PUSH1 0x40 MSTORE DUP1 MLOAD SWAP1 PUSH1 0x20 ADD KECCAK256 PUSH1 0x0 SHR PUSH1 0x1 DUP3 DUP2 SLOAD DUP2 LT PUSH2 0x26EE JUMPI PUSH2 0x26ED PUSH2 0x50D1 JUMP JUMPDEST JUMPDEST SWAP1 PUSH1 0x0 MSTORE PUSH1 0x20 PUSH1 0x0 KECCAK256 SWAP1 PUSH1 0x2 MUL ADD PUSH1 0x1 ADD PUSH1 0x40 MLOAD PUSH1 0x20 ADD PUSH2 0x270F SWAP2 SWAP1 PUSH2 0x4594 JUMP JUMPDEST PUSH1 0x40 MLOAD PUSH1 0x20 DUP2 DUP4 SUB SUB DUP2 MSTORE SWAP1 PUSH1 0x40 MSTORE DUP1 MLOAD SWAP1 PUSH1 0x20 ADD KECCAK256 PUSH1 0x0 SHR EQ ISZERO PUSH2 0x2894 JUMPI PUSH1 0x6 PUSH1 0x3 SLOAD DUP2 SLOAD DUP2 LT PUSH2 0x2744 JUMPI PUSH2 0x2743 PUSH2 0x50D1 JUMP JUMPDEST JUMPDEST SWAP1 PUSH1 0x0 MSTORE PUSH1 0x20 PUSH1 0x0 KECCAK256 SWAP1 PUSH1 0x4 MUL ADD PUSH1 0x1 ADD PUSH1 0x0 SWAP1 SLOAD SWAP1 PUSH2 0x100 EXP SWAP1 DIV PUSH20 0xFFFFFFFFFFFFFFFFFFFFFFFFFFFFFFFFFFFFFFFF AND PUSH1 0x40 MLOAD PUSH1 0x20 ADD PUSH2 0x2786 SWAP2 SWAP1 PUSH2 0x4562 JUMP JUMPDEST PUSH1 0x40 MLOAD PUSH1 0x20 DUP2 DUP4 SUB SUB DUP2 MSTORE SWAP1 PUSH1 0x40 MSTORE DUP1 MLOAD SWAP1 PUSH1 0x20 ADD KECCAK256 PUSH1 0x0 SHR DUP6 PUSH1 0x40 MLOAD PUSH1 0x20 ADD PUSH2 0x27B0 SWAP2 SWAP1 PUSH2 0x4562 JUMP JUMPDEST PUSH1 0x40 MLOAD PUSH1 0x20 DUP2 DUP4 SUB SUB DUP2 MSTORE SWAP1 PUSH1 0x40 MSTORE DUP1 MLOAD SWAP1 PUSH1 0x20 ADD KECCAK256 PUSH1 0x0 SHR EQ ISZERO PUSH2 0x2893 JUMPI PUSH1 0x6 PUSH1 0x3 SLOAD DUP2 SLOAD DUP2 LT PUSH2 0x27E5 JUMPI PUSH2 0x27E4 PUSH2 0x50D1 JUMP JUMPDEST JUMPDEST SWAP1 PUSH1 0x0 MSTORE PUSH1 0x20 PUSH1 0x0 KECCAK256 SWAP1 PUSH1 0x4 MUL ADD PUSH1 0x2 ADD PUSH1 0x40 MLOAD PUSH1 0x20 ADD PUSH2 0x2806 SWAP2 SWAP1 PUSH2 0x4594 JUMP JUMPDEST PUSH1 0x40 MLOAD PUSH1 0x20 DUP2 DUP4 SUB SUB DUP2 MSTORE SWAP1 PUSH1 0x40 MSTORE DUP1 MLOAD SWAP1 PUSH1 0x20 ADD KECCAK256 PUSH1 0x0 SHR DUP5 PUSH1 0x40 MLOAD PUSH1 0x20 ADD PUSH2 0x2830 SWAP2 SWAP1 PUSH2 0x457D JUMP JUMPDEST PUSH1 0x40 MLOAD PUSH1 0x20 DUP2 DUP4 SUB SUB DUP2 MSTORE SWAP1 PUSH1 0x40 MSTORE DUP1 MLOAD SWAP1 PUSH1 0x20 ADD KECCAK256 PUSH1 0x0 SHR EQ ISZERO PUSH2 0x2892 JUMPI DUP3 PUSH1 0x6 PUSH1 0x3 SLOAD DUP2 SLOAD DUP2 LT PUSH2 0x2866 JUMPI PUSH2 0x2865 PUSH2 0x50D1 JUMP JUMPDEST JUMPDEST SWAP1 PUSH1 0x0 MSTORE PUSH1 0x20 PUSH1 0x0 KECCAK256 SWAP1 PUSH1 0x4 MUL ADD PUSH1 0x3 ADD PUSH1 0x0 DUP3 DUP3 SLOAD PUSH2 0x2886 SWAP2 SWAP1 PUSH2 0x4CC5 JUMP JUMPDEST SWAP3 POP POP DUP2 SWAP1 SSTORE POP PUSH1 0x1 SWAP2 POP JUMPDEST JUMPDEST JUMPDEST PUSH1 0x3 PUSH1 0x0 DUP2 SLOAD DUP1 SWAP3 SWAP2 SWAP1 PUSH2 0x28A7 SWAP1 PUSH2 0x4F1C JUMP JUMPDEST SWAP2 SWAP1 POP SSTORE POP PUSH2 0x267B JUMP JUMPDEST PUSH1 0x0 ISZERO ISZERO DUP3 ISZERO ISZERO EQ ISZERO PUSH2 0x2A5B JUMPI PUSH1 0x6 PUSH1 0x40 MLOAD DUP1 PUSH1 0x80 ADD PUSH1 0x40 MSTORE DUP1 PUSH1 0x1 DUP5 DUP2 SLOAD DUP2 LT PUSH2 0x28DF JUMPI PUSH2 0x28DE PUSH2 0x50D1 JUMP JUMPDEST JUMPDEST SWAP1 PUSH1 0x0 MSTORE PUSH1 0x20 PUSH1 0x0 KECCAK256 SWAP1 PUSH1 0x2 MUL ADD PUSH1 0x1 ADD DUP1 SLOAD PUSH2 0x28FB SWAP1 PUSH2 0x4EB9 JUMP JUMPDEST DUP1 PUSH1 0x1F ADD PUSH1 0x20 DUP1 SWAP2 DIV MUL PUSH1 0x20 ADD PUSH1 0x40 MLOAD SWAP1 DUP2 ADD PUSH1 0x40 MSTORE DUP1 SWAP3 SWAP2 SWAP1 DUP2 DUP2 MSTORE PUSH1 0x20 ADD DUP3 DUP1 SLOAD PUSH2 0x2927 SWAP1 PUSH2 0x4EB9 JUMP JUMPDEST DUP1 ISZERO PUSH2 0x2974 JUMPI DUP1 PUSH1 0x1F LT PUSH2 0x2949 JUMPI PUSH2 0x100 DUP1 DUP4 SLOAD DIV MUL DUP4 MSTORE SWAP2 PUSH1 0x20 ADD SWAP2 PUSH2 0x2974 JUMP JUMPDEST DUP3 ADD SWAP2 SWAP1 PUSH1 0x0 MSTORE PUSH1 0x20 PUSH1 0x0 KECCAK256 SWAP1 JUMPDEST DUP2 SLOAD DUP2 MSTORE SWAP1 PUSH1 0x1 ADD SWAP1 PUSH1 0x20 ADD DUP1 DUP4 GT PUSH2 0x2957 JUMPI DUP3 SWAP1 SUB PUSH1 0x1F AND DUP3 ADD SWAP2 JUMPDEST POP POP POP POP POP DUP2 MSTORE PUSH1 0x20 ADD DUP8 PUSH20 0xFFFFFFFFFFFFFFFFFFFFFFFFFFFFFFFFFFFFFFFF AND DUP2 MSTORE PUSH1 0x20 ADD DUP7 DUP2 MSTORE PUSH1 0x20 ADD DUP6 DUP2 MSTORE POP SWAP1 DUP1 PUSH1 0x1 DUP2 SLOAD ADD DUP1 DUP3 SSTORE DUP1 SWAP2 POP POP PUSH1 0x1 SWAP1 SUB SWAP1 PUSH1 0x0 MSTORE PUSH1 0x20 PUSH1 0x0 KECCAK256 SWAP1 PUSH1 0x4 MUL ADD PUSH1 0x0 SWAP1 SWAP2 SWAP1 SWAP2 SWAP1 SWAP2 POP PUSH1 0x0 DUP3 ADD MLOAD DUP2 PUSH1 0x0 ADD SWAP1 DUP1 MLOAD SWAP1 PUSH1 0x20 ADD SWAP1 PUSH2 0x29E9 SWAP3 SWAP2 SWAP1 PUSH2 0x3A3B JUMP JUMPDEST POP PUSH1 0x20 DUP3 ADD MLOAD DUP2 PUSH1 0x1 ADD PUSH1 0x0 PUSH2 0x100 EXP DUP2 SLOAD DUP2 PUSH20 0xFFFFFFFFFFFFFFFFFFFFFFFFFFFFFFFFFFFFFFFF MUL NOT AND SWAP1 DUP4 PUSH20 0xFFFFFFFFFFFFFFFFFFFFFFFFFFFFFFFFFFFFFFFF AND MUL OR SWAP1 SSTORE POP PUSH1 0x40 DUP3 ADD MLOAD DUP2 PUSH1 0x2 ADD SWAP1 DUP1 MLOAD SWAP1 PUSH1 0x20 ADD SWAP1 PUSH2 0x2A4D SWAP3 SWAP2 SWAP1 PUSH2 0x3A3B JUMP JUMPDEST POP PUSH1 0x60 DUP3 ADD MLOAD DUP2 PUSH1 0x3 ADD SSTORE POP POP JUMPDEST POP POP POP POP POP JUMP JUMPDEST PUSH1 0x6 DUP2 DUP2 SLOAD DUP2 LT PUSH2 0x2A72 JUMPI PUSH1 0x0 DUP1 REVERT JUMPDEST SWAP1 PUSH1 0x0 MSTORE PUSH1 0x20 PUSH1 0x0 KECCAK256 SWAP1 PUSH1 0x4 MUL ADD PUSH1 0x0 SWAP2 POP SWAP1 POP DUP1 PUSH1 0x0 ADD DUP1 SLOAD PUSH2 0x2A95 SWAP1 PUSH2 0x4EB9 JUMP JUMPDEST DUP1 PUSH1 0x1F ADD PUSH1 0x20 DUP1 SWAP2 DIV MUL PUSH1 0x20 ADD PUSH1 0x40 MLOAD SWAP1 DUP2 ADD PUSH1 0x40 MSTORE DUP1 SWAP3 SWAP2 SWAP1 DUP2 DUP2 MSTORE PUSH1 0x20 ADD DUP3 DUP1 SLOAD PUSH2 0x2AC1 SWAP1 PUSH2 0x4EB9 JUMP JUMPDEST DUP1 ISZERO PUSH2 0x2B0E JUMPI DUP1 PUSH1 0x1F LT PUSH2 0x2AE3 JUMPI PUSH2 0x100 DUP1 DUP4 SLOAD DIV MUL DUP4 MSTORE SWAP2 PUSH1 0x20 ADD SWAP2 PUSH2 0x2B0E JUMP JUMPDEST DUP3 ADD SWAP2 SWAP1 PUSH1 0x0 MSTORE PUSH1 0x20 PUSH1 0x0 KECCAK256 SWAP1 JUMPDEST DUP2 SLOAD DUP2 MSTORE SWAP1 PUSH1 0x1 ADD SWAP1 PUSH1 0x20 ADD DUP1 DUP4 GT PUSH2 0x2AF1 JUMPI DUP3 SWAP1 SUB PUSH1 0x1F AND DUP3 ADD SWAP2 JUMPDEST POP POP POP POP POP SWAP1 DUP1 PUSH1 0x1 ADD PUSH1 0x0 SWAP1 SLOAD SWAP1 PUSH2 0x100 EXP SWAP1 DIV PUSH20 0xFFFFFFFFFFFFFFFFFFFFFFFFFFFFFFFFFFFFFFFF AND SWAP1 DUP1 PUSH1 0x2 ADD DUP1 SLOAD PUSH2 0x2B49 SWAP1 PUSH2 0x4EB9 JUMP JUMPDEST DUP1 PUSH1 0x1F ADD PUSH1 0x20 DUP1 SWAP2 DIV MUL PUSH1 0x20 ADD PUSH1 0x40 MLOAD SWAP1 DUP2 ADD PUSH1 0x40 MSTORE DUP1 SWAP3 SWAP2 SWAP1 DUP2 DUP2 MSTORE PUSH1 0x20 ADD DUP3 DUP1 SLOAD PUSH2 0x2B75 SWAP1 PUSH2 0x4EB9 JUMP JUMPDEST DUP1 ISZERO PUSH2 0x2BC2 JUMPI DUP1 PUSH1 0x1F LT PUSH2 0x2B97 JUMPI PUSH2 0x100 DUP1 DUP4 SLOAD DIV MUL DUP4 MSTORE SWAP2 PUSH1 0x20 ADD SWAP2 PUSH2 0x2BC2 JUMP JUMPDEST DUP3 ADD SWAP2 SWAP1 PUSH1 0x0 MSTORE PUSH1 0x20 PUSH1 0x0 KECCAK256 SWAP1 JUMPDEST DUP2 SLOAD DUP2 MSTORE SWAP1 PUSH1 0x1 ADD SWAP1 PUSH1 0x20 ADD DUP1 DUP4 GT PUSH2 0x2BA5 JUMPI DUP3 SWAP1 SUB PUSH1 0x1F AND DUP3 ADD SWAP2 JUMPDEST POP POP POP POP POP SWAP1 DUP1 PUSH1 0x3 ADD SLOAD SWAP1 POP DUP5 JUMP JUMPDEST PUSH1 0x0 DUP1 PUSH1 0x0 PUSH1 0x3 DUP2 SWAP1 SSTORE POP JUMPDEST PUSH1 0x1 DUP1 SLOAD SWAP1 POP PUSH1 0x3 SLOAD LT ISZERO PUSH2 0x2CB5 JUMPI PUSH1 0x1 PUSH1 0x3 SLOAD DUP2 SLOAD DUP2 LT PUSH2 0x2C03 JUMPI PUSH2 0x2C02 PUSH2 0x50D1 JUMP JUMPDEST JUMPDEST SWAP1 PUSH1 0x0 MSTORE PUSH1 0x20 PUSH1 0x0 KECCAK256 SWAP1 PUSH1 0x2 MUL ADD PUSH1 0x0 ADD PUSH1 0x0 SWAP1 SLOAD SWAP1 PUSH2 0x100 EXP SWAP1 DIV PUSH20 0xFFFFFFFFFFFFFFFFFFFFFFFFFFFFFFFFFFFFFFFF AND PUSH1 0x40 MLOAD PUSH1 0x20 ADD PUSH2 0x2C45 SWAP2 SWAP1 PUSH2 0x4562 JUMP JUMPDEST PUSH1 0x40 MLOAD PUSH1 0x20 DUP2 DUP4 SUB SUB DUP2 MSTORE SWAP1 PUSH1 0x40 MSTORE DUP1 MLOAD SWAP1 PUSH1 0x20 ADD KECCAK256 PUSH1 0x0 SHR CALLER PUSH1 0x40 MLOAD PUSH1 0x20 ADD PUSH2 0x2C6F SWAP2 SWAP1 PUSH2 0x4562 JUMP JUMPDEST PUSH1 0x40 MLOAD PUSH1 0x20 DUP2 DUP4 SUB SUB DUP2 MSTORE SWAP1 PUSH1 0x40 MSTORE DUP1 MLOAD SWAP1 PUSH1 0x20 ADD KECCAK256 PUSH1 0x0 SHR EQ ISZERO PUSH2 0x2C98 JUMPI PUSH1 0x1 SWAP2 POP PUSH1 0x3 SLOAD SWAP1 POP JUMPDEST PUSH1 0x3 PUSH1 0x0 DUP2 SLOAD DUP1 SWAP3 SWAP2 SWAP1 PUSH2 0x2CAB SWAP1 PUSH2 0x4F1C JUMP JUMPDEST SWAP2 SWAP1 POP SSTORE POP PUSH2 0x2BDE JUMP JUMPDEST PUSH1 0x1 ISZERO ISZERO DUP3 ISZERO ISZERO EQ PUSH2 0x2CFC JUMPI PUSH1 0x40 MLOAD PUSH32 0x8C379A000000000000000000000000000000000000000000000000000000000 DUP2 MSTORE PUSH1 0x4 ADD PUSH2 0x2CF3 SWAP1 PUSH2 0x4BDD JUMP JUMPDEST PUSH1 0x40 MLOAD DUP1 SWAP2 SUB SWAP1 REVERT JUMPDEST PUSH1 0x0 PUSH1 0x4 PUSH1 0x0 DUP11 PUSH20 0xFFFFFFFFFFFFFFFFFFFFFFFFFFFFFFFFFFFFFFFF AND PUSH20 0xFFFFFFFFFFFFFFFFFFFFFFFFFFFFFFFFFFFFFFFF AND DUP2 MSTORE PUSH1 0x20 ADD SWAP1 DUP2 MSTORE PUSH1 0x20 ADD PUSH1 0x0 KECCAK256 PUSH1 0x7 ADD SLOAD EQ PUSH2 0x2D81 JUMPI PUSH1 0x40 MLOAD PUSH32 0x8C379A000000000000000000000000000000000000000000000000000000000 DUP2 MSTORE PUSH1 0x4 ADD PUSH2 0x2D78 SWAP1 PUSH2 0x4B3D JUMP JUMPDEST PUSH1 0x40 MLOAD DUP1 SWAP2 SUB SWAP1 REVERT JUMPDEST PUSH1 0x1 DUP2 DUP2 SLOAD DUP2 LT PUSH2 0x2D95 JUMPI PUSH2 0x2D94 PUSH2 0x50D1 JUMP JUMPDEST JUMPDEST SWAP1 PUSH1 0x0 MSTORE PUSH1 0x20 PUSH1 0x0 KECCAK256 SWAP1 PUSH1 0x2 MUL ADD PUSH1 0x1 ADD PUSH1 0x4 PUSH1 0x0 DUP11 PUSH20 0xFFFFFFFFFFFFFFFFFFFFFFFFFFFFFFFFFFFFFFFF AND PUSH20 0xFFFFFFFFFFFFFFFFFFFFFFFFFFFFFFFFFFFFFFFF AND DUP2 MSTORE PUSH1 0x20 ADD SWAP1 DUP2 MSTORE PUSH1 0x20 ADD PUSH1 0x0 KECCAK256 PUSH1 0x0 ADD SWAP1 DUP1 SLOAD PUSH2 0x2DF4 SWAP1 PUSH2 0x4EB9 JUMP JUMPDEST PUSH2 0x2DFF SWAP3 SWAP2 SWAP1 PUSH2 0x3AE5 JUMP JUMPDEST POP DUP8 PUSH1 0x4 PUSH1 0x0 DUP11 PUSH20 0xFFFFFFFFFFFFFFFFFFFFFFFFFFFFFFFFFFFFFFFF AND PUSH20 0xFFFFFFFFFFFFFFFFFFFFFFFFFFFFFFFFFFFFFFFF AND DUP2 MSTORE PUSH1 0x20 ADD SWAP1 DUP2 MSTORE PUSH1 0x20 ADD PUSH1 0x0 KECCAK256 PUSH1 0x1 ADD PUSH1 0x0 PUSH2 0x100 EXP DUP2 SLOAD DUP2 PUSH20 0xFFFFFFFFFFFFFFFFFFFFFFFFFFFFFFFFFFFFFFFF MUL NOT AND SWAP1 DUP4 PUSH20 0xFFFFFFFFFFFFFFFFFFFFFFFFFFFFFFFFFFFFFFFF AND MUL OR SWAP1 SSTORE POP DUP7 PUSH1 0x4 PUSH1 0x0 DUP11 PUSH20 0xFFFFFFFFFFFFFFFFFFFFFFFFFFFFFFFFFFFFFFFF AND PUSH20 0xFFFFFFFFFFFFFFFFFFFFFFFFFFFFFFFFFFFFFFFF AND DUP2 MSTORE PUSH1 0x20 ADD SWAP1 DUP2 MSTORE PUSH1 0x20 ADD PUSH1 0x0 KECCAK256 PUSH1 0x2 ADD SWAP1 DUP1 MLOAD SWAP1 PUSH1 0x20 ADD SWAP1 PUSH2 0x2ED7 SWAP3 SWAP2 SWAP1 PUSH2 0x3A3B JUMP JUMPDEST POP DUP6 PUSH1 0x4 PUSH1 0x0 DUP11 PUSH20 0xFFFFFFFFFFFFFFFFFFFFFFFFFFFFFFFFFFFFFFFF AND PUSH20 0xFFFFFFFFFFFFFFFFFFFFFFFFFFFFFFFFFFFFFFFF AND DUP2 MSTORE PUSH1 0x20 ADD SWAP1 DUP2 MSTORE PUSH1 0x20 ADD PUSH1 0x0 KECCAK256 PUSH1 0x3 ADD SWAP1 DUP1 MLOAD SWAP1 PUSH1 0x20 ADD SWAP1 PUSH2 0x2F2E SWAP3 SWAP2 SWAP1 PUSH2 0x3A3B JUMP JUMPDEST POP DUP5 PUSH1 0x4 PUSH1 0x0 DUP11 PUSH20 0xFFFFFFFFFFFFFFFFFFFFFFFFFFFFFFFFFFFFFFFF AND PUSH20 0xFFFFFFFFFFFFFFFFFFFFFFFFFFFFFFFFFFFFFFFF AND DUP2 MSTORE PUSH1 0x20 ADD SWAP1 DUP2 MSTORE PUSH1 0x20 ADD PUSH1 0x0 KECCAK256 PUSH1 0x4 ADD DUP2 SWAP1 SSTORE POP DUP4 PUSH1 0x4 PUSH1 0x0 DUP11 PUSH20 0xFFFFFFFFFFFFFFFFFFFFFFFFFFFFFFFFFFFFFFFF AND PUSH20 0xFFFFFFFFFFFFFFFFFFFFFFFFFFFFFFFFFFFFFFFF AND DUP2 MSTORE PUSH1 0x20 ADD SWAP1 DUP2 MSTORE PUSH1 0x20 ADD PUSH1 0x0 KECCAK256 PUSH1 0x5 ADD SWAP1 DUP1 MLOAD SWAP1 PUSH1 0x20 ADD SWAP1 PUSH2 0x2FCC SWAP3 SWAP2 SWAP1 PUSH2 0x3A3B JUMP JUMPDEST POP DUP3 PUSH1 0x4 PUSH1 0x0 DUP11 PUSH20 0xFFFFFFFFFFFFFFFFFFFFFFFFFFFFFFFFFFFFFFFF AND PUSH20 0xFFFFFFFFFFFFFFFFFFFFFFFFFFFFFFFFFFFFFFFF AND DUP2 MSTORE PUSH1 0x20 ADD SWAP1 DUP2 MSTORE PUSH1 0x20 ADD PUSH1 0x0 KECCAK256 PUSH1 0x6 ADD SWAP1 DUP1 MLOAD SWAP1 PUSH1 0x20 ADD SWAP1 PUSH2 0x3023 SWAP3 SWAP2 SWAP1 PUSH2 0x3A3B JUMP JUMPDEST POP PUSH1 0x1 PUSH1 0x4 PUSH1 0x0 DUP11 PUSH20 0xFFFFFFFFFFFFFFFFFFFFFFFFFFFFFFFFFFFFFFFF AND PUSH20 0xFFFFFFFFFFFFFFFFFFFFFFFFFFFFFFFFFFFFFFFF AND DUP2 MSTORE PUSH1 0x20 ADD SWAP1 DUP2 MSTORE PUSH1 0x20 ADD PUSH1 0x0 KECCAK256 PUSH1 0x7 ADD DUP2 SWAP1 SSTORE POP PUSH32 0xF1D38A96E959122B68AF7CA2F331211BDF7D2D06138A1D0B885C1A5D791386B3 PUSH1 0x1 DUP3 DUP2 SLOAD DUP2 LT PUSH2 0x30A1 JUMPI PUSH2 0x30A0 PUSH2 0x50D1 JUMP JUMPDEST JUMPDEST SWAP1 PUSH1 0x0 MSTORE PUSH1 0x20 PUSH1 0x0 KECCAK256 SWAP1 PUSH1 0x2 MUL ADD PUSH1 0x1 ADD DUP10 DUP10 DUP10 DUP10 DUP10 DUP10 PUSH1 0x1 PUSH1 0x40 MLOAD PUSH2 0x30CE SWAP9 SWAP8 SWAP7 SWAP6 SWAP5 SWAP4 SWAP3 SWAP2 SWAP1 PUSH2 0x487C JUMP JUMPDEST PUSH1 0x40 MLOAD DUP1 SWAP2 SUB SWAP1 LOG1 POP POP POP POP POP POP POP POP JUMP JUMPDEST PUSH1 0x0 DUP1 PUSH1 0x0 PUSH1 0x3 DUP2 SWAP1 SSTORE POP JUMPDEST PUSH1 0x1 DUP1 SLOAD SWAP1 POP PUSH1 0x3 SLOAD LT ISZERO PUSH2 0x31C3 JUMPI PUSH1 0x1 PUSH1 0x3 SLOAD DUP2 SLOAD DUP2 LT PUSH2 0x3111 JUMPI PUSH2 0x3110 PUSH2 0x50D1 JUMP JUMPDEST JUMPDEST SWAP1 PUSH1 0x0 MSTORE PUSH1 0x20 PUSH1 0x0 KECCAK256 SWAP1 PUSH1 0x2 MUL ADD PUSH1 0x0 ADD PUSH1 0x0 SWAP1 SLOAD SWAP1 PUSH2 0x100 EXP SWAP1 DIV PUSH20 0xFFFFFFFFFFFFFFFFFFFFFFFFFFFFFFFFFFFFFFFF AND PUSH1 0x40 MLOAD PUSH1 0x20 ADD PUSH2 0x3153 SWAP2 SWAP1 PUSH2 0x4562 JUMP JUMPDEST PUSH1 0x40 MLOAD PUSH1 0x20 DUP2 DUP4 SUB SUB DUP2 MSTORE SWAP1 PUSH1 0x40 MSTORE DUP1 MLOAD SWAP1 PUSH1 0x20 ADD KECCAK256 PUSH1 0x0 SHR CALLER PUSH1 0x40 MLOAD PUSH1 0x20 ADD PUSH2 0x317D SWAP2 SWAP1 PUSH2 0x4562 JUMP JUMPDEST PUSH1 0x40 MLOAD PUSH1 0x20 DUP2 DUP4 SUB SUB DUP2 MSTORE SWAP1 PUSH1 0x40 MSTORE DUP1 MLOAD SWAP1 PUSH1 0x20 ADD KECCAK256 PUSH1 0x0 SHR EQ ISZERO PUSH2 0x31A6 JUMPI PUSH1 0x1 SWAP2 POP PUSH1 0x3 SLOAD SWAP1 POP JUMPDEST PUSH1 0x3 PUSH1 0x0 DUP2 SLOAD DUP1 SWAP3 SWAP2 SWAP1 PUSH2 0x31B9 SWAP1 PUSH2 0x4F1C JUMP JUMPDEST SWAP2 SWAP1 POP SSTORE POP PUSH2 0x30EC JUMP JUMPDEST PUSH1 0x1 ISZERO ISZERO DUP3 ISZERO ISZERO EQ PUSH2 0x320A JUMPI PUSH1 0x40 MLOAD PUSH32 0x8C379A000000000000000000000000000000000000000000000000000000000 DUP2 MSTORE PUSH1 0x4 ADD PUSH2 0x3201 SWAP1 PUSH2 0x4A9D JUMP JUMPDEST PUSH1 0x40 MLOAD DUP1 SWAP2 SUB SWAP1 REVERT JUMPDEST PUSH1 0x0 PUSH1 0x5 PUSH1 0x0 DUP8 PUSH20 0xFFFFFFFFFFFFFFFFFFFFFFFFFFFFFFFFFFFFFFFF AND PUSH20 0xFFFFFFFFFFFFFFFFFFFFFFFFFFFFFFFFFFFFFFFF AND DUP2 MSTORE PUSH1 0x20 ADD SWAP1 DUP2 MSTORE PUSH1 0x20 ADD PUSH1 0x0 KECCAK256 PUSH1 0x4 ADD SLOAD EQ PUSH2 0x328F JUMPI PUSH1 0x40 MLOAD PUSH32 0x8C379A000000000000000000000000000000000000000000000000000000000 DUP2 MSTORE PUSH1 0x4 ADD PUSH2 0x3286 SWAP1 PUSH2 0x4A1D JUMP JUMPDEST PUSH1 0x40 MLOAD DUP1 SWAP2 SUB SWAP1 REVERT JUMPDEST PUSH1 0x1 DUP2 DUP2 SLOAD DUP2 LT PUSH2 0x32A3 JUMPI PUSH2 0x32A2 PUSH2 0x50D1 JUMP JUMPDEST JUMPDEST SWAP1 PUSH1 0x0 MSTORE PUSH1 0x20 PUSH1 0x0 KECCAK256 SWAP1 PUSH1 0x2 MUL ADD PUSH1 0x1 ADD PUSH1 0x5 PUSH1 0x0 DUP8 PUSH20 0xFFFFFFFFFFFFFFFFFFFFFFFFFFFFFFFFFFFFFFFF AND PUSH20 0xFFFFFFFFFFFFFFFFFFFFFFFFFFFFFFFFFFFFFFFF AND DUP2 MSTORE PUSH1 0x20 ADD SWAP1 DUP2 MSTORE PUSH1 0x20 ADD PUSH1 0x0 KECCAK256 PUSH1 0x0 ADD SWAP1 DUP1 SLOAD PUSH2 0x3302 SWAP1 PUSH2 0x4EB9 JUMP JUMPDEST PUSH2 0x330D SWAP3 SWAP2 SWAP1 PUSH2 0x3AE5 JUMP JUMPDEST POP DUP5 PUSH1 0x5 PUSH1 0x0 DUP8 PUSH20 0xFFFFFFFFFFFFFFFFFFFFFFFFFFFFFFFFFFFFFFFF AND PUSH20 0xFFFFFFFFFFFFFFFFFFFFFFFFFFFFFFFFFFFFFFFF AND DUP2 MSTORE PUSH1 0x20 ADD SWAP1 DUP2 MSTORE PUSH1 0x20 ADD PUSH1 0x0 KECCAK256 PUSH1 0x1 ADD PUSH1 0x0 PUSH2 0x100 EXP DUP2 SLOAD DUP2 PUSH20 0xFFFFFFFFFFFFFFFFFFFFFFFFFFFFFFFFFFFFFFFF MUL NOT AND SWAP1 DUP4 PUSH20 0xFFFFFFFFFFFFFFFFFFFFFFFFFFFFFFFFFFFFFFFF AND MUL OR SWAP1 SSTORE POP DUP4 PUSH1 0x5 PUSH1 0x0 DUP8 PUSH20 0xFFFFFFFFFFFFFFFFFFFFFFFFFFFFFFFFFFFFFFFF AND PUSH20 0xFFFFFFFFFFFFFFFFFFFFFFFFFFFFFFFFFFFFFFFF AND DUP2 MSTORE PUSH1 0x20 ADD SWAP1 DUP2 MSTORE PUSH1 0x20 ADD PUSH1 0x0 KECCAK256 PUSH1 0x2 ADD SWAP1 DUP1 MLOAD SWAP1 PUSH1 0x20 ADD SWAP1 PUSH2 0x33E5 SWAP3 SWAP2 SWAP1 PUSH2 0x3A3B JUMP JUMPDEST POP DUP3 PUSH1 0x5 PUSH1 0x0 DUP8 PUSH20 0xFFFFFFFFFFFFFFFFFFFFFFFFFFFFFFFFFFFFFFFF AND PUSH20 0xFFFFFFFFFFFFFFFFFFFFFFFFFFFFFFFFFFFFFFFF AND DUP2 MSTORE PUSH1 0x20 ADD SWAP1 DUP2 MSTORE PUSH1 0x20 ADD PUSH1 0x0 KECCAK256 PUSH1 0x3 ADD SWAP1 DUP1 MLOAD SWAP1 PUSH1 0x20 ADD SWAP1 PUSH2 0x343C SWAP3 SWAP2 SWAP1 PUSH2 0x3A3B JUMP JUMPDEST POP PUSH1 0x1 PUSH1 0x5 PUSH1 0x0 DUP8 PUSH20 0xFFFFFFFFFFFFFFFFFFFFFFFFFFFFFFFFFFFFFFFF AND PUSH20 0xFFFFFFFFFFFFFFFFFFFFFFFFFFFFFFFFFFFFFFFF AND DUP2 MSTORE PUSH1 0x20 ADD SWAP1 DUP2 MSTORE PUSH1 0x20 ADD PUSH1 0x0 KECCAK256 PUSH1 0x4 ADD DUP2 SWAP1 SSTORE POP PUSH32 0x7F97CF19BCBFBD8C842517C4D9BA40083A7540311F006283B99144858913CEF0 PUSH1 0x1 DUP3 DUP2 SLOAD DUP2 LT PUSH2 0x34BA JUMPI PUSH2 0x34B9 PUSH2 0x50D1 JUMP JUMPDEST JUMPDEST SWAP1 PUSH1 0x0 MSTORE PUSH1 0x20 PUSH1 0x0 KECCAK256 SWAP1 PUSH1 0x2 MUL ADD PUSH1 0x1 ADD DUP7 DUP7 DUP7 PUSH1 0x1 PUSH1 0x40 MLOAD PUSH2 0x34E1 SWAP6 SWAP5 SWAP4 SWAP3 SWAP2 SWAP1 PUSH2 0x4814 JUMP JUMPDEST PUSH1 0x40 MLOAD DUP1 SWAP2 SUB SWAP1 LOG1 POP POP POP POP POP JUMP JUMPDEST PUSH2 0x34F8 PUSH2 0x3BB2 JUMP JUMPDEST PUSH1 0x0 DUP1 DUP1 PUSH2 0x3505 DUP6 PUSH2 0x3701 JUMP JUMPDEST DUP5 PUSH1 0x0 ADD SWAP1 PUSH2 0xFFFF AND SWAP1 DUP2 PUSH2 0xFFFF AND DUP2 MSTORE POP POP PUSH2 0x3527 PUSH2 0x7B2 PUSH2 0xFFFF AND PUSH2 0x3818 JUMP JUMPDEST PUSH2 0x3538 DUP6 PUSH1 0x0 ADD MLOAD PUSH2 0xFFFF AND PUSH2 0x3818 JUMP JUMPDEST PUSH2 0x3542 SWAP2 SWAP1 PUSH2 0x4DDA JUMP JUMPDEST SWAP2 POP DUP2 PUSH4 0x1E28500 PUSH2 0x3554 SWAP2 SWAP1 PUSH2 0x4D4C JUMP JUMPDEST DUP4 PUSH2 0x355F SWAP2 SWAP1 PUSH2 0x4CC5 JUMP JUMPDEST SWAP3 POP DUP2 PUSH2 0x7B2 DUP6 PUSH1 0x0 ADD MLOAD PUSH2 0x3574 SWAP2 SWAP1 PUSH2 0x4DA6 JUMP JUMPDEST PUSH2 0xFFFF AND PUSH2 0x3582 SWAP2 SWAP1 PUSH2 0x4DDA JUMP JUMPDEST PUSH4 0x1E13380 PUSH2 0x3591 SWAP2 SWAP1 PUSH2 0x4D4C JUMP JUMPDEST DUP4 PUSH2 0x359C SWAP2 SWAP1 PUSH2 0x4CC5 JUMP JUMPDEST SWAP3 POP PUSH1 0x0 PUSH1 0x1 SWAP2 POP JUMPDEST PUSH1 0xC DUP3 PUSH1 0xFF AND GT PUSH2 0x361C JUMPI PUSH2 0x35BE DUP3 DUP7 PUSH1 0x0 ADD MLOAD PUSH2 0x386C JUMP JUMPDEST PUSH1 0xFF AND PUSH3 0x15180 PUSH2 0x35CF SWAP2 SWAP1 PUSH2 0x4D4C JUMP JUMPDEST SWAP1 POP DUP6 DUP5 DUP3 PUSH2 0x35DE SWAP2 SWAP1 PUSH2 0x4CC5 JUMP JUMPDEST GT ISZERO PUSH2 0x35FB JUMPI DUP2 DUP6 PUSH1 0x20 ADD SWAP1 PUSH1 0xFF AND SWAP1 DUP2 PUSH1 0xFF AND DUP2 MSTORE POP POP PUSH2 0x361C JUMP JUMPDEST DUP1 DUP5 PUSH2 0x3607 SWAP2 SWAP1 PUSH2 0x4CC5 JUMP JUMPDEST SWAP4 POP DUP2 DUP1 PUSH2 0x3614 SWAP1 PUSH2 0x4F65 JUMP JUMPDEST SWAP3 POP POP PUSH2 0x35A5 JUMP JUMPDEST PUSH1 0x1 SWAP2 POP JUMPDEST PUSH2 0x3633 DUP6 PUSH1 0x20 ADD MLOAD DUP7 PUSH1 0x0 ADD MLOAD PUSH2 0x386C JUMP JUMPDEST PUSH1 0xFF AND DUP3 PUSH1 0xFF AND GT PUSH2 0x3690 JUMPI DUP6 DUP5 PUSH3 0x15180 PUSH2 0x364F SWAP2 SWAP1 PUSH2 0x4CC5 JUMP JUMPDEST GT ISZERO PUSH2 0x366C JUMPI DUP2 DUP6 PUSH1 0x40 ADD SWAP1 PUSH1 0xFF AND SWAP1 DUP2 PUSH1 0xFF AND DUP2 MSTORE POP POP PUSH2 0x3690 JUMP JUMPDEST PUSH3 0x15180 DUP5 PUSH2 0x367B SWAP2 SWAP1 PUSH2 0x4CC5 JUMP JUMPDEST SWAP4 POP DUP2 DUP1 PUSH2 0x3688 SWAP1 PUSH2 0x4F65 JUMP JUMPDEST SWAP3 POP POP PUSH2 0x3621 JUMP JUMPDEST PUSH2 0x3699 DUP7 PUSH2 0x3938 JUMP JUMPDEST DUP6 PUSH1 0x60 ADD SWAP1 PUSH1 0xFF AND SWAP1 DUP2 PUSH1 0xFF AND DUP2 MSTORE POP POP PUSH2 0x36B3 DUP7 PUSH2 0x3965 JUMP JUMPDEST DUP6 PUSH1 0x80 ADD SWAP1 PUSH1 0xFF AND SWAP1 DUP2 PUSH1 0xFF AND DUP2 MSTORE POP POP PUSH2 0x36CD DUP7 PUSH2 0x3986 JUMP JUMPDEST DUP6 PUSH1 0xA0 ADD SWAP1 PUSH1 0xFF AND SWAP1 DUP2 PUSH1 0xFF AND DUP2 MSTORE POP POP PUSH2 0x36E7 DUP7 PUSH2 0x399C JUMP JUMPDEST DUP6 PUSH1 0xC0 ADD SWAP1 PUSH1 0xFF AND SWAP1 DUP2 PUSH1 0xFF AND DUP2 MSTORE POP POP POP POP POP POP SWAP2 SWAP1 POP JUMP JUMPDEST PUSH1 0x0 DUP1 PUSH1 0x0 SWAP1 POP PUSH1 0x0 DUP1 PUSH4 0x1E13380 DUP6 PUSH2 0x371B SWAP2 SWAP1 PUSH2 0x4D1B JUMP JUMPDEST PUSH2 0x7B2 PUSH2 0xFFFF AND PUSH2 0x372C SWAP2 SWAP1 PUSH2 0x4CC5 JUMP JUMPDEST SWAP2 POP PUSH2 0x373D PUSH2 0x7B2 PUSH2 0xFFFF AND PUSH2 0x3818 JUMP JUMPDEST PUSH2 0x374A DUP4 PUSH2 0xFFFF AND PUSH2 0x3818 JUMP JUMPDEST PUSH2 0x3754 SWAP2 SWAP1 PUSH2 0x4DDA JUMP JUMPDEST SWAP1 POP DUP1 PUSH4 0x1E28500 PUSH2 0x3766 SWAP2 SWAP1 PUSH2 0x4D4C JUMP JUMPDEST DUP4 PUSH2 0x3771 SWAP2 SWAP1 PUSH2 0x4CC5 JUMP JUMPDEST SWAP3 POP DUP1 PUSH2 0x7B2 DUP4 PUSH2 0x3782 SWAP2 SWAP1 PUSH2 0x4DA6 JUMP JUMPDEST PUSH2 0xFFFF AND PUSH2 0x3790 SWAP2 SWAP1 PUSH2 0x4DDA JUMP JUMPDEST PUSH4 0x1E13380 PUSH2 0x379F SWAP2 SWAP1 PUSH2 0x4D4C JUMP JUMPDEST DUP4 PUSH2 0x37AA SWAP2 SWAP1 PUSH2 0x4CC5 JUMP JUMPDEST SWAP3 POP JUMPDEST DUP5 DUP4 GT ISZERO PUSH2 0x380D JUMPI PUSH2 0x37CA PUSH1 0x1 DUP4 PUSH2 0x37C5 SWAP2 SWAP1 PUSH2 0x4DA6 JUMP JUMPDEST PUSH2 0x39CC JUMP JUMPDEST ISZERO PUSH2 0x37E6 JUMPI PUSH4 0x1E28500 DUP4 PUSH2 0x37DF SWAP2 SWAP1 PUSH2 0x4DDA JUMP JUMPDEST SWAP3 POP PUSH2 0x37F9 JUMP JUMPDEST PUSH4 0x1E13380 DUP4 PUSH2 0x37F6 SWAP2 SWAP1 PUSH2 0x4DDA JUMP JUMPDEST SWAP3 POP JUMPDEST PUSH1 0x1 DUP3 PUSH2 0x3806 SWAP2 SWAP1 PUSH2 0x4DA6 JUMP JUMPDEST SWAP2 POP PUSH2 0x37AD JUMP JUMPDEST DUP2 SWAP4 POP POP POP POP SWAP2 SWAP1 POP JUMP JUMPDEST PUSH1 0x0 PUSH1 0x1 DUP3 PUSH2 0x3827 SWAP2 SWAP1 PUSH2 0x4DDA JUMP JUMPDEST SWAP2 POP PUSH2 0x190 DUP3 PUSH2 0x3837 SWAP2 SWAP1 PUSH2 0x4D1B JUMP JUMPDEST PUSH1 0x64 DUP4 PUSH2 0x3844 SWAP2 SWAP1 PUSH2 0x4D1B JUMP JUMPDEST PUSH1 0x4 DUP5 PUSH2 0x3851 SWAP2 SWAP1 PUSH2 0x4D1B JUMP JUMPDEST PUSH2 0x385B SWAP2 SWAP1 PUSH2 0x4DDA JUMP JUMPDEST PUSH2 0x3865 SWAP2 SWAP1 PUSH2 0x4CC5 JUMP JUMPDEST SWAP1 POP SWAP2 SWAP1 POP JUMP JUMPDEST PUSH1 0x0 PUSH1 0x1 DUP4 PUSH1 0xFF AND EQ DUP1 PUSH2 0x3883 JUMPI POP PUSH1 0x3 DUP4 PUSH1 0xFF AND EQ JUMPDEST DUP1 PUSH2 0x3891 JUMPI POP PUSH1 0x5 DUP4 PUSH1 0xFF AND EQ JUMPDEST DUP1 PUSH2 0x389F JUMPI POP PUSH1 0x7 DUP4 PUSH1 0xFF AND EQ JUMPDEST DUP1 PUSH2 0x38AD JUMPI POP PUSH1 0x8 DUP4 PUSH1 0xFF AND EQ JUMPDEST DUP1 PUSH2 0x38BB JUMPI POP PUSH1 0xA DUP4 PUSH1 0xFF AND EQ JUMPDEST DUP1 PUSH2 0x38C9 JUMPI POP PUSH1 0xC DUP4 PUSH1 0xFF AND EQ JUMPDEST ISZERO PUSH2 0x38D7 JUMPI PUSH1 0x1F SWAP1 POP PUSH2 0x3932 JUMP JUMPDEST PUSH1 0x4 DUP4 PUSH1 0xFF AND EQ DUP1 PUSH2 0x38EC JUMPI POP PUSH1 0x6 DUP4 PUSH1 0xFF AND EQ JUMPDEST DUP1 PUSH2 0x38FA JUMPI POP PUSH1 0x9 DUP4 PUSH1 0xFF AND EQ JUMPDEST DUP1 PUSH2 0x3908 JUMPI POP PUSH1 0xB DUP4 PUSH1 0xFF AND EQ JUMPDEST ISZERO PUSH2 0x3916 JUMPI PUSH1 0x1E SWAP1 POP PUSH2 0x3932 JUMP JUMPDEST PUSH2 0x391F DUP3 PUSH2 0x39CC JUMP JUMPDEST ISZERO PUSH2 0x392D JUMPI PUSH1 0x1D SWAP1 POP PUSH2 0x3932 JUMP JUMPDEST PUSH1 0x1C SWAP1 POP JUMPDEST SWAP3 SWAP2 POP POP JUMP JUMPDEST PUSH1 0x0 PUSH1 0x18 PUSH1 0x3C DUP1 DUP5 PUSH2 0x394A SWAP2 SWAP1 PUSH2 0x4D1B JUMP JUMPDEST PUSH2 0x3954 SWAP2 SWAP1 PUSH2 0x4D1B JUMP JUMPDEST PUSH2 0x395E SWAP2 SWAP1 PUSH2 0x4FE4 JUMP JUMPDEST SWAP1 POP SWAP2 SWAP1 POP JUMP JUMPDEST PUSH1 0x0 PUSH1 0x3C DUP1 DUP4 PUSH2 0x3975 SWAP2 SWAP1 PUSH2 0x4D1B JUMP JUMPDEST PUSH2 0x397F SWAP2 SWAP1 PUSH2 0x4FE4 JUMP JUMPDEST SWAP1 POP SWAP2 SWAP1 POP JUMP JUMPDEST PUSH1 0x0 PUSH1 0x3C DUP3 PUSH2 0x3995 SWAP2 SWAP1 PUSH2 0x4FE4 JUMP JUMPDEST SWAP1 POP SWAP2 SWAP1 POP JUMP JUMPDEST PUSH1 0x0 PUSH1 0x7 PUSH1 0x4 PUSH3 0x15180 DUP5 PUSH2 0x39B1 SWAP2 SWAP1 PUSH2 0x4D1B JUMP JUMPDEST PUSH2 0x39BB SWAP2 SWAP1 PUSH2 0x4CC5 JUMP JUMPDEST PUSH2 0x39C5 SWAP2 SWAP1 PUSH2 0x4FE4 JUMP JUMPDEST SWAP1 POP SWAP2 SWAP1 POP JUMP JUMPDEST PUSH1 0x0 DUP1 PUSH1 0x4 DUP4 PUSH2 0x39DC SWAP2 SWAP1 PUSH2 0x4FB3 JUMP JUMPDEST PUSH2 0xFFFF AND EQ PUSH2 0x39EE JUMPI PUSH1 0x0 SWAP1 POP PUSH2 0x3A36 JUMP JUMPDEST PUSH1 0x0 PUSH1 0x64 DUP4 PUSH2 0x39FD SWAP2 SWAP1 PUSH2 0x4FB3 JUMP JUMPDEST PUSH2 0xFFFF AND EQ PUSH2 0x3A0F JUMPI PUSH1 0x1 SWAP1 POP PUSH2 0x3A36 JUMP JUMPDEST PUSH1 0x0 PUSH2 0x190 DUP4 PUSH2 0x3A1F SWAP2 SWAP1 PUSH2 0x4FB3 JUMP JUMPDEST PUSH2 0xFFFF AND EQ PUSH2 0x3A31 JUMPI PUSH1 0x0 SWAP1 POP PUSH2 0x3A36 JUMP JUMPDEST PUSH1 0x1 SWAP1 POP JUMPDEST SWAP2 SWAP1 POP JUMP JUMPDEST DUP3 DUP1 SLOAD PUSH2 0x3A47 SWAP1 PUSH2 0x4EB9 JUMP JUMPDEST SWAP1 PUSH1 0x0 MSTORE PUSH1 0x20 PUSH1 0x0 KECCAK256 SWAP1 PUSH1 0x1F ADD PUSH1 0x20 SWAP1 DIV DUP2 ADD SWAP3 DUP3 PUSH2 0x3A69 JUMPI PUSH1 0x0 DUP6 SSTORE PUSH2 0x3AB0 JUMP JUMPDEST DUP3 PUSH1 0x1F LT PUSH2 0x3A82 JUMPI DUP1 MLOAD PUSH1 0xFF NOT AND DUP4 DUP1 ADD OR DUP6 SSTORE PUSH2 0x3AB0 JUMP JUMPDEST DUP3 DUP1 ADD PUSH1 0x1 ADD DUP6 SSTORE DUP3 ISZERO PUSH2 0x3AB0 JUMPI SWAP2 DUP3 ADD JUMPDEST DUP3 DUP2 GT ISZERO PUSH2 0x3AAF JUMPI DUP3 MLOAD DUP3 SSTORE SWAP2 PUSH1 0x20 ADD SWAP2 SWAP1 PUSH1 0x1 ADD SWAP1 PUSH2 0x3A94 JUMP JUMPDEST JUMPDEST POP SWAP1 POP PUSH2 0x3ABD SWAP2 SWAP1 PUSH2 0x3C05 JUMP JUMPDEST POP SWAP1 JUMP JUMPDEST POP DUP1 SLOAD PUSH1 0x0 DUP3 SSTORE PUSH1 0x7 MUL SWAP1 PUSH1 0x0 MSTORE PUSH1 0x20 PUSH1 0x0 KECCAK256 SWAP1 DUP2 ADD SWAP1 PUSH2 0x3AE2 SWAP2 SWAP1 PUSH2 0x3C22 JUMP JUMPDEST POP JUMP JUMPDEST DUP3 DUP1 SLOAD PUSH2 0x3AF1 SWAP1 PUSH2 0x4EB9 JUMP JUMPDEST SWAP1 PUSH1 0x0 MSTORE PUSH1 0x20 PUSH1 0x0 KECCAK256 SWAP1 PUSH1 0x1F ADD PUSH1 0x20 SWAP1 DIV DUP2 ADD SWAP3 DUP3 PUSH2 0x3B13 JUMPI PUSH1 0x0 DUP6 SSTORE PUSH2 0x3B61 JUMP JUMPDEST DUP3 PUSH1 0x1F LT PUSH2 0x3B24 JUMPI DUP1 SLOAD DUP6 SSTORE PUSH2 0x3B61 JUMP JUMPDEST DUP3 DUP1 ADD PUSH1 0x1 ADD DUP6 SSTORE DUP3 ISZERO PUSH2 0x3B61 JUMPI PUSH1 0x0 MSTORE PUSH1 0x20 PUSH1 0x0 KECCAK256 SWAP2 PUSH1 0x1F ADD PUSH1 0x20 SWAP1 DIV DUP3 ADD JUMPDEST DUP3 DUP2 GT ISZERO PUSH2 0x3B60 JUMPI DUP3 SLOAD DUP3 SSTORE SWAP2 PUSH1 0x1 ADD SWAP2 SWAP1 PUSH1 0x1 ADD SWAP1 PUSH2 0x3B45 JUMP JUMPDEST JUMPDEST POP SWAP1 POP PUSH2 0x3B6E SWAP2 SWAP1 PUSH2 0x3C05 JUMP JUMPDEST POP SWAP1 JUMP JUMPDEST POP DUP1 SLOAD PUSH2 0x3B7E SWAP1 PUSH2 0x4EB9 JUMP JUMPDEST PUSH1 0x0 DUP3 SSTORE DUP1 PUSH1 0x1F LT PUSH2 0x3B90 JUMPI POP PUSH2 0x3BAF JUMP JUMPDEST PUSH1 0x1F ADD PUSH1 0x20 SWAP1 DIV SWAP1 PUSH1 0x0 MSTORE PUSH1 0x20 PUSH1 0x0 KECCAK256 SWAP1 DUP2 ADD SWAP1 PUSH2 0x3BAE SWAP2 SWAP1 PUSH2 0x3C05 JUMP JUMPDEST JUMPDEST POP JUMP JUMPDEST PUSH1 0x40 MLOAD DUP1 PUSH1 0xE0 ADD PUSH1 0x40 MSTORE DUP1 PUSH1 0x0 PUSH2 0xFFFF AND DUP2 MSTORE PUSH1 0x20 ADD PUSH1 0x0 PUSH1 0xFF AND DUP2 MSTORE PUSH1 0x20 ADD PUSH1 0x0 PUSH1 0xFF AND DUP2 MSTORE PUSH1 0x20 ADD PUSH1 0x0 PUSH1 0xFF AND DUP2 MSTORE PUSH1 0x20 ADD PUSH1 0x0 PUSH1 0xFF AND DUP2 MSTORE PUSH1 0x20 ADD PUSH1 0x0 PUSH1 0xFF AND DUP2 MSTORE PUSH1 0x20 ADD PUSH1 0x0 PUSH1 0xFF AND DUP2 MSTORE POP SWAP1 JUMP JUMPDEST JUMPDEST DUP1 DUP3 GT ISZERO PUSH2 0x3C1E JUMPI PUSH1 0x0 DUP2 PUSH1 0x0 SWAP1 SSTORE POP PUSH1 0x1 ADD PUSH2 0x3C06 JUMP JUMPDEST POP SWAP1 JUMP JUMPDEST JUMPDEST DUP1 DUP3 GT ISZERO PUSH2 0x3CB3 JUMPI PUSH1 0x0 DUP1 DUP3 ADD PUSH1 0x0 PUSH2 0x100 EXP DUP2 SLOAD SWAP1 PUSH20 0xFFFFFFFFFFFFFFFFFFFFFFFFFFFFFFFFFFFFFFFF MUL NOT AND SWAP1 SSTORE PUSH1 0x1 DUP3 ADD PUSH1 0x0 PUSH2 0x100 EXP DUP2 SLOAD SWAP1 PUSH20 0xFFFFFFFFFFFFFFFFFFFFFFFFFFFFFFFFFFFFFFFF MUL NOT AND SWAP1 SSTORE PUSH1 0x2 DUP3 ADD PUSH1 0x0 PUSH2 0x3C8A SWAP2 SWAP1 PUSH2 0x3B72 JUMP JUMPDEST PUSH1 0x3 DUP3 ADD PUSH1 0x0 SWAP1 SSTORE PUSH1 0x4 DUP3 ADD PUSH1 0x0 SWAP1 SSTORE PUSH1 0x5 DUP3 ADD PUSH1 0x0 SWAP1 SSTORE PUSH1 0x6 DUP3 ADD PUSH1 0x0 SWAP1 SSTORE POP PUSH1 0x7 ADD PUSH2 0x3C23 JUMP JUMPDEST POP SWAP1 JUMP JUMPDEST PUSH1 0x0 PUSH2 0x3CCA PUSH2 0x3CC5 DUP5 PUSH2 0x4C58 JUMP JUMPDEST PUSH2 0x4C33 JUMP JUMPDEST SWAP1 POP DUP3 DUP2 MSTORE PUSH1 0x20 DUP2 ADD DUP5 DUP5 DUP5 ADD GT ISZERO PUSH2 0x3CE6 JUMPI PUSH2 0x3CE5 PUSH2 0x5134 JUMP JUMPDEST JUMPDEST PUSH2 0x3CF1 DUP5 DUP3 DUP6 PUSH2 0x4E77 JUMP JUMPDEST POP SWAP4 SWAP3 POP POP POP JUMP JUMPDEST PUSH1 0x0 DUP2 CALLDATALOAD SWAP1 POP PUSH2 0x3D08 DUP2 PUSH2 0x582E JUMP JUMPDEST SWAP3 SWAP2 POP POP JUMP JUMPDEST PUSH1 0x0 DUP3 PUSH1 0x1F DUP4 ADD SLT PUSH2 0x3D23 JUMPI PUSH2 0x3D22 PUSH2 0x512F JUMP JUMPDEST JUMPDEST DUP2 CALLDATALOAD PUSH2 0x3D33 DUP5 DUP3 PUSH1 0x20 DUP7 ADD PUSH2 0x3CB7 JUMP JUMPDEST SWAP2 POP POP SWAP3 SWAP2 POP POP JUMP JUMPDEST PUSH1 0x0 DUP2 CALLDATALOAD SWAP1 POP PUSH2 0x3D4B DUP2 PUSH2 0x5845 JUMP JUMPDEST SWAP3 SWAP2 POP POP JUMP JUMPDEST PUSH1 0x0 PUSH1 0x20 DUP3 DUP5 SUB SLT ISZERO PUSH2 0x3D67 JUMPI PUSH2 0x3D66 PUSH2 0x513E JUMP JUMPDEST JUMPDEST PUSH1 0x0 PUSH2 0x3D75 DUP5 DUP3 DUP6 ADD PUSH2 0x3CF9 JUMP JUMPDEST SWAP2 POP POP SWAP3 SWAP2 POP POP JUMP JUMPDEST PUSH1 0x0 DUP1 PUSH1 0x40 DUP4 DUP6 SUB SLT ISZERO PUSH2 0x3D95 JUMPI PUSH2 0x3D94 PUSH2 0x513E JUMP JUMPDEST JUMPDEST PUSH1 0x0 PUSH2 0x3DA3 DUP6 DUP3 DUP7 ADD PUSH2 0x3CF9 JUMP JUMPDEST SWAP3 POP POP PUSH1 0x20 DUP4 ADD CALLDATALOAD PUSH8 0xFFFFFFFFFFFFFFFF DUP2 GT ISZERO PUSH2 0x3DC4 JUMPI PUSH2 0x3DC3 PUSH2 0x5139 JUMP JUMPDEST JUMPDEST PUSH2 0x3DD0 DUP6 DUP3 DUP7 ADD PUSH2 0x3D0E JUMP JUMPDEST SWAP2 POP POP SWAP3 POP SWAP3 SWAP1 POP JUMP JUMPDEST PUSH1 0x0 DUP1 PUSH1 0x0 PUSH1 0x60 DUP5 DUP7 SUB SLT ISZERO PUSH2 0x3DF3 JUMPI PUSH2 0x3DF2 PUSH2 0x513E JUMP JUMPDEST JUMPDEST PUSH1 0x0 PUSH2 0x3E01 DUP7 DUP3 DUP8 ADD PUSH2 0x3CF9 JUMP JUMPDEST SWAP4 POP POP PUSH1 0x20 DUP5 ADD CALLDATALOAD PUSH8 0xFFFFFFFFFFFFFFFF DUP2 GT ISZERO PUSH2 0x3E22 JUMPI PUSH2 0x3E21 PUSH2 0x5139 JUMP JUMPDEST JUMPDEST PUSH2 0x3E2E DUP7 DUP3 DUP8 ADD PUSH2 0x3D0E JUMP JUMPDEST SWAP3 POP POP PUSH1 0x40 DUP5 ADD CALLDATALOAD PUSH8 0xFFFFFFFFFFFFFFFF DUP2 GT ISZERO PUSH2 0x3E4F JUMPI PUSH2 0x3E4E PUSH2 0x5139 JUMP JUMPDEST JUMPDEST PUSH2 0x3E5B DUP7 DUP3 DUP8 ADD PUSH2 0x3D0E JUMP JUMPDEST SWAP2 POP POP SWAP3 POP SWAP3 POP SWAP3 JUMP JUMPDEST PUSH1 0x0 DUP1 PUSH1 0x0 DUP1 PUSH1 0x0 DUP1 PUSH1 0xC0 DUP8 DUP10 SUB SLT ISZERO PUSH2 0x3E82 JUMPI PUSH2 0x3E81 PUSH2 0x513E JUMP JUMPDEST JUMPDEST PUSH1 0x0 PUSH2 0x3E90 DUP10 DUP3 DUP11 ADD PUSH2 0x3CF9 JUMP JUMPDEST SWAP7 POP POP PUSH1 0x20 DUP8 ADD CALLDATALOAD PUSH8 0xFFFFFFFFFFFFFFFF DUP2 GT ISZERO PUSH2 0x3EB1 JUMPI PUSH2 0x3EB0 PUSH2 0x5139 JUMP JUMPDEST JUMPDEST PUSH2 0x3EBD DUP10 DUP3 DUP11 ADD PUSH2 0x3D0E JUMP JUMPDEST SWAP6 POP POP PUSH1 0x40 DUP8 ADD CALLDATALOAD PUSH8 0xFFFFFFFFFFFFFFFF DUP2 GT ISZERO PUSH2 0x3EDE JUMPI PUSH2 0x3EDD PUSH2 0x5139 JUMP JUMPDEST JUMPDEST PUSH2 0x3EEA DUP10 DUP3 DUP11 ADD PUSH2 0x3D0E JUMP JUMPDEST SWAP5 POP POP PUSH1 0x60 PUSH2 0x3EFB DUP10 DUP3 DUP11 ADD PUSH2 0x3D3C JUMP JUMPDEST SWAP4 POP POP PUSH1 0x80 DUP8 ADD CALLDATALOAD PUSH8 0xFFFFFFFFFFFFFFFF DUP2 GT ISZERO PUSH2 0x3F1C JUMPI PUSH2 0x3F1B PUSH2 0x5139 JUMP JUMPDEST JUMPDEST PUSH2 0x3F28 DUP10 DUP3 DUP11 ADD PUSH2 0x3D0E JUMP JUMPDEST SWAP3 POP POP PUSH1 0xA0 DUP8 ADD CALLDATALOAD PUSH8 0xFFFFFFFFFFFFFFFF DUP2 GT ISZERO PUSH2 0x3F49 JUMPI PUSH2 0x3F48 PUSH2 0x5139 JUMP JUMPDEST JUMPDEST PUSH2 0x3F55 DUP10 DUP3 DUP11 ADD PUSH2 0x3D0E JUMP JUMPDEST SWAP2 POP POP SWAP3 SWAP6 POP SWAP3 SWAP6 POP SWAP3 SWAP6 JUMP JUMPDEST PUSH1 0x0 DUP1 PUSH1 0x0 PUSH1 0x60 DUP5 DUP7 SUB SLT ISZERO PUSH2 0x3F7B JUMPI PUSH2 0x3F7A PUSH2 0x513E JUMP JUMPDEST JUMPDEST PUSH1 0x0 PUSH2 0x3F89 DUP7 DUP3 DUP8 ADD PUSH2 0x3CF9 JUMP JUMPDEST SWAP4 POP POP PUSH1 0x20 DUP5 ADD CALLDATALOAD PUSH8 0xFFFFFFFFFFFFFFFF DUP2 GT ISZERO PUSH2 0x3FAA JUMPI PUSH2 0x3FA9 PUSH2 0x5139 JUMP JUMPDEST JUMPDEST PUSH2 0x3FB6 DUP7 DUP3 DUP8 ADD PUSH2 0x3D0E JUMP JUMPDEST SWAP3 POP POP PUSH1 0x40 PUSH2 0x3FC7 DUP7 DUP3 DUP8 ADD PUSH2 0x3D3C JUMP JUMPDEST SWAP2 POP POP SWAP3 POP SWAP3 POP SWAP3 JUMP JUMPDEST PUSH1 0x0 DUP1 PUSH1 0x0 DUP1 PUSH1 0x80 DUP6 DUP8 SUB SLT ISZERO PUSH2 0x3FEB JUMPI PUSH2 0x3FEA PUSH2 0x513E JUMP JUMPDEST JUMPDEST PUSH1 0x0 DUP6 ADD CALLDATALOAD PUSH8 0xFFFFFFFFFFFFFFFF DUP2 GT ISZERO PUSH2 0x4009 JUMPI PUSH2 0x4008 PUSH2 0x5139 JUMP JUMPDEST JUMPDEST PUSH2 0x4015 DUP8 DUP3 DUP9 ADD PUSH2 0x3D0E JUMP JUMPDEST SWAP5 POP POP PUSH1 0x20 PUSH2 0x4026 DUP8 DUP3 DUP9 ADD PUSH2 0x3D3C JUMP JUMPDEST SWAP4 POP POP PUSH1 0x40 PUSH2 0x4037 DUP8 DUP3 DUP9 ADD PUSH2 0x3D3C JUMP JUMPDEST SWAP3 POP POP PUSH1 0x60 PUSH2 0x4048 DUP8 DUP3 DUP9 ADD PUSH2 0x3D3C JUMP JUMPDEST SWAP2 POP POP SWAP3 SWAP6 SWAP2 SWAP5 POP SWAP3 POP JUMP JUMPDEST PUSH1 0x0 PUSH1 0x20 DUP3 DUP5 SUB SLT ISZERO PUSH2 0x406A JUMPI PUSH2 0x4069 PUSH2 0x513E JUMP JUMPDEST JUMPDEST PUSH1 0x0 PUSH2 0x4078 DUP5 DUP3 DUP6 ADD PUSH2 0x3D3C JUMP JUMPDEST SWAP2 POP POP SWAP3 SWAP2 POP POP JUMP JUMPDEST PUSH2 0x408A DUP2 PUSH2 0x4E0E JUMP JUMPDEST DUP3 MSTORE POP POP JUMP JUMPDEST PUSH2 0x40A1 PUSH2 0x409C DUP3 PUSH2 0x4E0E JUMP JUMPDEST PUSH2 0x4F8F JUMP JUMPDEST DUP3 MSTORE POP POP JUMP JUMPDEST PUSH2 0x40B0 DUP2 PUSH2 0x4E65 JUMP JUMPDEST DUP3 MSTORE POP POP JUMP JUMPDEST PUSH1 0x0 PUSH2 0x40C1 DUP3 PUSH2 0x4C9E JUMP JUMPDEST PUSH2 0x40CB DUP2 DUP6 PUSH2 0x4CA9 JUMP JUMPDEST SWAP4 POP PUSH2 0x40DB DUP2 DUP6 PUSH1 0x20 DUP7 ADD PUSH2 0x4E86 JUMP JUMPDEST PUSH2 0x40E4 DUP2 PUSH2 0x5143 JUMP JUMPDEST DUP5 ADD SWAP2 POP POP SWAP3 SWAP2 POP POP JUMP JUMPDEST PUSH1 0x0 PUSH2 0x40FA DUP3 PUSH2 0x4C9E JUMP JUMPDEST PUSH2 0x4104 DUP2 DUP6 PUSH2 0x4CBA JUMP JUMPDEST SWAP4 POP PUSH2 0x4114 DUP2 DUP6 PUSH1 0x20 DUP7 ADD PUSH2 0x4E86 JUMP JUMPDEST DUP1 DUP5 ADD SWAP2 POP POP SWAP3 SWAP2 POP POP JUMP JUMPDEST PUSH1 0x0 DUP2 SLOAD PUSH2 0x412D DUP2 PUSH2 0x4EB9 JUMP JUMPDEST PUSH2 0x4137 DUP2 DUP7 PUSH2 0x4CA9 JUMP JUMPDEST SWAP5 POP PUSH1 0x1 DUP3 AND PUSH1 0x0 DUP2 EQ PUSH2 0x4152 JUMPI PUSH1 0x1 DUP2 EQ PUSH2 0x4164 JUMPI PUSH2 0x4197 JUMP JUMPDEST PUSH1 0xFF NOT DUP4 AND DUP7 MSTORE PUSH1 0x20 DUP7 ADD SWAP4 POP PUSH2 0x4197 JUMP JUMPDEST PUSH2 0x416D DUP6 PUSH2 0x4C89 JUMP JUMPDEST PUSH1 0x0 JUMPDEST DUP4 DUP2 LT ISZERO PUSH2 0x418F JUMPI DUP2 SLOAD DUP2 DUP10 ADD MSTORE PUSH1 0x1 DUP3 ADD SWAP2 POP PUSH1 0x20 DUP2 ADD SWAP1 POP PUSH2 0x4170 JUMP JUMPDEST DUP1 DUP9 ADD SWAP6 POP POP POP JUMPDEST POP POP POP SWAP3 SWAP2 POP POP JUMP JUMPDEST PUSH1 0x0 DUP2 SLOAD PUSH2 0x41AD DUP2 PUSH2 0x4EB9 JUMP JUMPDEST PUSH2 0x41B7 DUP2 DUP7 PUSH2 0x4CBA JUMP JUMPDEST SWAP5 POP PUSH1 0x1 DUP3 AND PUSH1 0x0 DUP2 EQ PUSH2 0x41D2 JUMPI PUSH1 0x1 DUP2 EQ PUSH2 0x41E3 JUMPI PUSH2 0x4216 JUMP JUMPDEST PUSH1 0xFF NOT DUP4 AND DUP7 MSTORE DUP2 DUP7 ADD SWAP4 POP PUSH2 0x4216 JUMP JUMPDEST PUSH2 0x41EC DUP6 PUSH2 0x4C89 JUMP JUMPDEST PUSH1 0x0 JUMPDEST DUP4 DUP2 LT ISZERO PUSH2 0x420E JUMPI DUP2 SLOAD DUP2 DUP10 ADD MSTORE PUSH1 0x1 DUP3 ADD SWAP2 POP PUSH1 0x20 DUP2 ADD SWAP1 POP PUSH2 0x41EF JUMP JUMPDEST DUP4 DUP9 ADD SWAP6 POP POP POP JUMPDEST POP POP POP SWAP3 SWAP2 POP POP JUMP JUMPDEST PUSH1 0x0 PUSH2 0x422C PUSH1 0x20 DUP4 PUSH2 0x4CA9 JUMP JUMPDEST SWAP2 POP PUSH2 0x4237 DUP3 PUSH2 0x5161 JUMP JUMPDEST PUSH1 0x20 DUP3 ADD SWAP1 POP SWAP2 SWAP1 POP JUMP JUMPDEST PUSH1 0x0 PUSH2 0x424F PUSH1 0x23 DUP4 PUSH2 0x4CA9 JUMP JUMPDEST SWAP2 POP PUSH2 0x425A DUP3 PUSH2 0x518A JUMP JUMPDEST PUSH1 0x40 DUP3 ADD SWAP1 POP SWAP2 SWAP1 POP JUMP JUMPDEST PUSH1 0x0 PUSH2 0x4272 PUSH1 0x27 DUP4 PUSH2 0x4CA9 JUMP JUMPDEST SWAP2 POP PUSH2 0x427D DUP3 PUSH2 0x51D9 JUMP JUMPDEST PUSH1 0x40 DUP3 ADD SWAP1 POP SWAP2 SWAP1 POP JUMP JUMPDEST PUSH1 0x0 PUSH2 0x4295 PUSH1 0x1E DUP4 PUSH2 0x4CA9 JUMP JUMPDEST SWAP2 POP PUSH2 0x42A0 DUP3 PUSH2 0x5228 JUMP JUMPDEST PUSH1 0x20 DUP3 ADD SWAP1 POP SWAP2 SWAP1 POP JUMP JUMPDEST PUSH1 0x0 PUSH2 0x42B8 PUSH1 0x17 DUP4 PUSH2 0x4CA9 JUMP JUMPDEST SWAP2 POP PUSH2 0x42C3 DUP3 PUSH2 0x5251 JUMP JUMPDEST PUSH1 0x20 DUP3 ADD SWAP1 POP SWAP2 SWAP1 POP JUMP JUMPDEST PUSH1 0x0 PUSH2 0x42DB PUSH1 0x27 DUP4 PUSH2 0x4CA9 JUMP JUMPDEST SWAP2 POP PUSH2 0x42E6 DUP3 PUSH2 0x527A JUMP JUMPDEST PUSH1 0x40 DUP3 ADD SWAP1 POP SWAP2 SWAP1 POP JUMP JUMPDEST PUSH1 0x0 PUSH2 0x42FE PUSH1 0x5E DUP4 PUSH2 0x4CA9 JUMP JUMPDEST SWAP2 POP PUSH2 0x4309 DUP3 PUSH2 0x52C9 JUMP JUMPDEST PUSH1 0x60 DUP3 ADD SWAP1 POP SWAP2 SWAP1 POP JUMP JUMPDEST PUSH1 0x0 PUSH2 0x4321 PUSH1 0x3F DUP4 PUSH2 0x4CA9 JUMP JUMPDEST SWAP2 POP PUSH2 0x432C DUP3 PUSH2 0x533E JUMP JUMPDEST PUSH1 0x40 DUP3 ADD SWAP1 POP SWAP2 SWAP1 POP JUMP JUMPDEST PUSH1 0x0 PUSH2 0x4344 PUSH1 0x2F DUP4 PUSH2 0x4CA9 JUMP JUMPDEST SWAP2 POP PUSH2 0x434F DUP3 PUSH2 0x538D JUMP JUMPDEST PUSH1 0x40 DUP3 ADD SWAP1 POP SWAP2 SWAP1 POP JUMP JUMPDEST PUSH1 0x0 PUSH2 0x4367 PUSH1 0x2F DUP4 PUSH2 0x4CA9 JUMP JUMPDEST SWAP2 POP PUSH2 0x4372 DUP3 PUSH2 0x53DC JUMP JUMPDEST PUSH1 0x40 DUP3 ADD SWAP1 POP SWAP2 SWAP1 POP JUMP JUMPDEST PUSH1 0x0 PUSH2 0x438A PUSH1 0x27 DUP4 PUSH2 0x4CA9 JUMP JUMPDEST SWAP2 POP PUSH2 0x4395 DUP3 PUSH2 0x542B JUMP JUMPDEST PUSH1 0x40 DUP3 ADD SWAP1 POP SWAP2 SWAP1 POP JUMP JUMPDEST PUSH1 0x0 PUSH2 0x43AD PUSH1 0x33 DUP4 PUSH2 0x4CA9 JUMP JUMPDEST SWAP2 POP PUSH2 0x43B8 DUP3 PUSH2 0x547A JUMP JUMPDEST PUSH1 0x40 DUP3 ADD SWAP1 POP SWAP2 SWAP1 POP JUMP JUMPDEST PUSH1 0x0 PUSH2 0x43D0 PUSH1 0x3F DUP4 PUSH2 0x4CA9 JUMP JUMPDEST SWAP2 POP PUSH2 0x43DB DUP3 PUSH2 0x54C9 JUMP JUMPDEST PUSH1 0x40 DUP3 ADD SWAP1 POP SWAP2 SWAP1 POP JUMP JUMPDEST PUSH1 0x0 PUSH2 0x43F3 PUSH1 0x2B DUP4 PUSH2 0x4CA9 JUMP JUMPDEST SWAP2 POP PUSH2 0x43FE DUP3 PUSH2 0x5518 JUMP JUMPDEST PUSH1 0x40 DUP3 ADD SWAP1 POP SWAP2 SWAP1 POP JUMP JUMPDEST PUSH1 0x0 PUSH2 0x4416 PUSH1 0x30 DUP4 PUSH2 0x4CA9 JUMP JUMPDEST SWAP2 POP PUSH2 0x4421 DUP3 PUSH2 0x5567 JUMP JUMPDEST PUSH1 0x40 DUP3 ADD SWAP1 POP SWAP2 SWAP1 POP JUMP JUMPDEST PUSH1 0x0 PUSH2 0x4439 PUSH1 0x4B DUP4 PUSH2 0x4CA9 JUMP JUMPDEST SWAP2 POP PUSH2 0x4444 DUP3 PUSH2 0x55B6 JUMP JUMPDEST PUSH1 0x60 DUP3 ADD SWAP1 POP SWAP2 SWAP1 POP JUMP JUMPDEST PUSH1 0x0 PUSH2 0x445C PUSH1 0x1A DUP4 PUSH2 0x4CA9 JUMP JUMPDEST SWAP2 POP PUSH2 0x4467 DUP3 PUSH2 0x562B JUMP JUMPDEST PUSH1 0x20 DUP3 ADD SWAP1 POP SWAP2 SWAP1 POP JUMP JUMPDEST PUSH1 0x0 PUSH2 0x447F PUSH1 0x1B DUP4 PUSH2 0x4CA9 JUMP JUMPDEST SWAP2 POP PUSH2 0x448A DUP3 PUSH2 0x5654 JUMP JUMPDEST PUSH1 0x20 DUP3 ADD SWAP1 POP SWAP2 SWAP1 POP JUMP JUMPDEST PUSH1 0x0 PUSH2 0x44A2 PUSH1 0x58 DUP4 PUSH2 0x4CA9 JUMP JUMPDEST SWAP2 POP PUSH2 0x44AD DUP3 PUSH2 0x567D JUMP JUMPDEST PUSH1 0x60 DUP3 ADD SWAP1 POP SWAP2 SWAP1 POP JUMP JUMPDEST PUSH1 0x0 PUSH2 0x44C5 PUSH1 0x35 DUP4 PUSH2 0x4CA9 JUMP JUMPDEST SWAP2 POP PUSH2 0x44D0 DUP3 PUSH2 0x56F2 JUMP JUMPDEST PUSH1 0x40 DUP3 ADD SWAP1 POP SWAP2 SWAP1 POP JUMP JUMPDEST PUSH1 0x0 PUSH2 0x44E8 PUSH1 0x30 DUP4 PUSH2 0x4CA9 JUMP JUMPDEST SWAP2 POP PUSH2 0x44F3 DUP3 PUSH2 0x5741 JUMP JUMPDEST PUSH1 0x40 DUP3 ADD SWAP1 POP SWAP2 SWAP1 POP JUMP JUMPDEST PUSH1 0x0 PUSH2 0x450B PUSH1 0x1A DUP4 PUSH2 0x4CA9 JUMP JUMPDEST SWAP2 POP PUSH2 0x4516 DUP3 PUSH2 0x5790 JUMP JUMPDEST PUSH1 0x20 DUP3 ADD SWAP1 POP SWAP2 SWAP1 POP JUMP JUMPDEST PUSH1 0x0 PUSH2 0x452E PUSH1 0x41 DUP4 PUSH2 0x4CA9 JUMP JUMPDEST SWAP2 POP PUSH2 0x4539 DUP3 PUSH2 0x57B9 JUMP JUMPDEST PUSH1 0x60 DUP3 ADD SWAP1 POP SWAP2 SWAP1 POP JUMP JUMPDEST PUSH2 0x454D DUP2 PUSH2 0x4E4E JUMP JUMPDEST DUP3 MSTORE POP POP JUMP JUMPDEST PUSH2 0x455C DUP2 PUSH2 0x4E58 JUMP JUMPDEST DUP3 MSTORE POP POP JUMP JUMPDEST PUSH1 0x0 PUSH2 0x456E DUP3 DUP5 PUSH2 0x4090 JUMP JUMPDEST PUSH1 0x14 DUP3 ADD SWAP2 POP DUP2 SWAP1 POP SWAP3 SWAP2 POP POP JUMP JUMPDEST PUSH1 0x0 PUSH2 0x4589 DUP3 DUP5 PUSH2 0x40EF JUMP JUMPDEST SWAP2 POP DUP2 SWAP1 POP SWAP3 SWAP2 POP POP JUMP JUMPDEST PUSH1 0x0 PUSH2 0x45A0 DUP3 DUP5 PUSH2 0x41A0 JUMP JUMPDEST SWAP2 POP DUP2 SWAP1 POP SWAP3 SWAP2 POP POP JUMP JUMPDEST PUSH1 0x0 PUSH1 0x20 DUP3 ADD SWAP1 POP PUSH2 0x45C0 PUSH1 0x0 DUP4 ADD DUP5 PUSH2 0x4081 JUMP JUMPDEST SWAP3 SWAP2 POP POP JUMP JUMPDEST PUSH1 0x0 PUSH1 0xE0 DUP3 ADD SWAP1 POP PUSH2 0x45DB PUSH1 0x0 DUP4 ADD DUP11 PUSH2 0x4081 JUMP JUMPDEST PUSH2 0x45E8 PUSH1 0x20 DUP4 ADD DUP10 PUSH2 0x4081 JUMP JUMPDEST DUP2 DUP2 SUB PUSH1 0x40 DUP4 ADD MSTORE PUSH2 0x45FA DUP2 DUP9 PUSH2 0x40B6 JUMP JUMPDEST SWAP1 POP PUSH2 0x4609 PUSH1 0x60 DUP4 ADD DUP8 PUSH2 0x4544 JUMP JUMPDEST PUSH2 0x4616 PUSH1 0x80 DUP4 ADD DUP7 PUSH2 0x4544 JUMP JUMPDEST PUSH2 0x4623 PUSH1 0xA0 DUP4 ADD DUP6 PUSH2 0x4544 JUMP JUMPDEST PUSH2 0x4630 PUSH1 0xC0 DUP4 ADD DUP5 PUSH2 0x4544 JUMP JUMPDEST SWAP9 SWAP8 POP POP POP POP POP POP POP POP JUMP JUMPDEST PUSH1 0x0 PUSH1 0x40 DUP3 ADD SWAP1 POP PUSH2 0x4651 PUSH1 0x0 DUP4 ADD DUP6 PUSH2 0x4081 JUMP JUMPDEST DUP2 DUP2 SUB PUSH1 0x20 DUP4 ADD MSTORE PUSH2 0x4663 DUP2 DUP5 PUSH2 0x40B6 JUMP JUMPDEST SWAP1 POP SWAP4 SWAP3 POP POP POP JUMP JUMPDEST PUSH1 0x0 PUSH1 0xA0 DUP3 ADD SWAP1 POP DUP2 DUP2 SUB PUSH1 0x0 DUP4 ADD MSTORE PUSH2 0x4686 DUP2 DUP9 PUSH2 0x40B6 JUMP JUMPDEST SWAP1 POP PUSH2 0x4695 PUSH1 0x20 DUP4 ADD DUP8 PUSH2 0x4081 JUMP JUMPDEST DUP2 DUP2 SUB PUSH1 0x40 DUP4 ADD MSTORE PUSH2 0x46A7 DUP2 DUP7 PUSH2 0x40B6 JUMP JUMPDEST SWAP1 POP DUP2 DUP2 SUB PUSH1 0x60 DUP4 ADD MSTORE PUSH2 0x46BB DUP2 DUP6 PUSH2 0x40B6 JUMP JUMPDEST SWAP1 POP PUSH2 0x46CA PUSH1 0x80 DUP4 ADD DUP5 PUSH2 0x4544 JUMP JUMPDEST SWAP7 SWAP6 POP POP POP POP POP POP JUMP JUMPDEST PUSH1 0x0 PUSH2 0x100 DUP3 ADD SWAP1 POP DUP2 DUP2 SUB PUSH1 0x0 DUP4 ADD MSTORE PUSH2 0x46EF DUP2 DUP12 PUSH2 0x40B6 JUMP JUMPDEST SWAP1 POP PUSH2 0x46FE PUSH1 0x20 DUP4 ADD DUP11 PUSH2 0x4081 JUMP JUMPDEST DUP2 DUP2 SUB PUSH1 0x40 DUP4 ADD MSTORE PUSH2 0x4710 DUP2 DUP10 PUSH2 0x40B6 JUMP JUMPDEST SWAP1 POP DUP2 DUP2 SUB PUSH1 0x60 DUP4 ADD MSTORE PUSH2 0x4724 DUP2 DUP9 PUSH2 0x40B6 JUMP JUMPDEST SWAP1 POP PUSH2 0x4733 PUSH1 0x80 DUP4 ADD DUP8 PUSH2 0x4544 JUMP JUMPDEST DUP2 DUP2 SUB PUSH1 0xA0 DUP4 ADD MSTORE PUSH2 0x4745 DUP2 DUP7 PUSH2 0x40B6 JUMP JUMPDEST SWAP1 POP DUP2 DUP2 SUB PUSH1 0xC0 DUP4 ADD MSTORE PUSH2 0x4759 DUP2 DUP6 PUSH2 0x40B6 JUMP JUMPDEST SWAP1 POP PUSH2 0x4768 PUSH1 0xE0 DUP4 ADD DUP5 PUSH2 0x4544 JUMP JUMPDEST SWAP10 SWAP9 POP POP POP POP POP POP POP POP POP JUMP JUMPDEST PUSH1 0x0 PUSH1 0x80 DUP3 ADD SWAP1 POP DUP2 DUP2 SUB PUSH1 0x0 DUP4 ADD MSTORE PUSH2 0x478F DUP2 DUP8 PUSH2 0x40B6 JUMP JUMPDEST SWAP1 POP PUSH2 0x479E PUSH1 0x20 DUP4 ADD DUP7 PUSH2 0x4081 JUMP JUMPDEST DUP2 DUP2 SUB PUSH1 0x40 DUP4 ADD MSTORE PUSH2 0x47B0 DUP2 DUP6 PUSH2 0x40B6 JUMP JUMPDEST SWAP1 POP PUSH2 0x47BF PUSH1 0x60 DUP4 ADD DUP5 PUSH2 0x4544 JUMP JUMPDEST SWAP6 SWAP5 POP POP POP POP POP JUMP JUMPDEST PUSH1 0x0 PUSH1 0x80 DUP3 ADD SWAP1 POP DUP2 DUP2 SUB PUSH1 0x0 DUP4 ADD MSTORE PUSH2 0x47E2 DUP2 DUP8 PUSH2 0x40B6 JUMP JUMPDEST SWAP1 POP PUSH2 0x47F1 PUSH1 0x20 DUP4 ADD DUP7 PUSH2 0x4544 JUMP JUMPDEST PUSH2 0x47FE PUSH1 0x40 DUP4 ADD DUP6 PUSH2 0x4544 JUMP JUMPDEST PUSH2 0x480B PUSH1 0x60 DUP4 ADD DUP5 PUSH2 0x4544 JUMP JUMPDEST SWAP6 SWAP5 POP POP POP POP POP JUMP JUMPDEST PUSH1 0x0 PUSH1 0xA0 DUP3 ADD SWAP1 POP DUP2 DUP2 SUB PUSH1 0x0 DUP4 ADD MSTORE PUSH2 0x482E DUP2 DUP9 PUSH2 0x4120 JUMP JUMPDEST SWAP1 POP PUSH2 0x483D PUSH1 0x20 DUP4 ADD DUP8 PUSH2 0x4081 JUMP JUMPDEST DUP2 DUP2 SUB PUSH1 0x40 DUP4 ADD MSTORE PUSH2 0x484F DUP2 DUP7 PUSH2 0x40B6 JUMP JUMPDEST SWAP1 POP DUP2 DUP2 SUB PUSH1 0x60 DUP4 ADD MSTORE PUSH2 0x4863 DUP2 DUP6 PUSH2 0x40B6 JUMP JUMPDEST SWAP1 POP PUSH2 0x4872 PUSH1 0x80 DUP4 ADD DUP5 PUSH2 0x40A7 JUMP JUMPDEST SWAP7 SWAP6 POP POP POP POP POP POP JUMP JUMPDEST PUSH1 0x0 PUSH2 0x100 DUP3 ADD SWAP1 POP DUP2 DUP2 SUB PUSH1 0x0 DUP4 ADD MSTORE PUSH2 0x4897 DUP2 DUP12 PUSH2 0x4120 JUMP JUMPDEST SWAP1 POP PUSH2 0x48A6 PUSH1 0x20 DUP4 ADD DUP11 PUSH2 0x4081 JUMP JUMPDEST DUP2 DUP2 SUB PUSH1 0x40 DUP4 ADD MSTORE PUSH2 0x48B8 DUP2 DUP10 PUSH2 0x40B6 JUMP JUMPDEST SWAP1 POP DUP2 DUP2 SUB PUSH1 0x60 DUP4 ADD MSTORE PUSH2 0x48CC DUP2 DUP9 PUSH2 0x40B6 JUMP JUMPDEST SWAP1 POP PUSH2 0x48DB PUSH1 0x80 DUP4 ADD DUP8 PUSH2 0x4544 JUMP JUMPDEST DUP2 DUP2 SUB PUSH1 0xA0 DUP4 ADD MSTORE PUSH2 0x48ED DUP2 DUP7 PUSH2 0x40B6 JUMP JUMPDEST SWAP1 POP DUP2 DUP2 SUB PUSH1 0xC0 DUP4 ADD MSTORE PUSH2 0x4901 DUP2 DUP6 PUSH2 0x40B6 JUMP JUMPDEST SWAP1 POP PUSH2 0x4910 PUSH1 0xE0 DUP4 ADD DUP5 PUSH2 0x40A7 JUMP JUMPDEST SWAP10 SWAP9 POP POP POP POP POP POP POP POP POP JUMP JUMPDEST PUSH1 0x0 PUSH1 0x20 DUP3 ADD SWAP1 POP DUP2 DUP2 SUB PUSH1 0x0 DUP4 ADD MSTORE PUSH2 0x4936 DUP2 PUSH2 0x421F JUMP JUMPDEST SWAP1 POP SWAP2 SWAP1 POP JUMP JUMPDEST PUSH1 0x0 PUSH1 0x20 DUP3 ADD SWAP1 POP DUP2 DUP2 SUB PUSH1 0x0 DUP4 ADD MSTORE PUSH2 0x4956 DUP2 PUSH2 0x4242 JUMP JUMPDEST SWAP1 POP SWAP2 SWAP1 POP JUMP JUMPDEST PUSH1 0x0 PUSH1 0x20 DUP3 ADD SWAP1 POP DUP2 DUP2 SUB PUSH1 0x0 DUP4 ADD MSTORE PUSH2 0x4976 DUP2 PUSH2 0x4265 JUMP JUMPDEST SWAP1 POP SWAP2 SWAP1 POP JUMP JUMPDEST PUSH1 0x0 PUSH1 0x20 DUP3 ADD SWAP1 POP DUP2 DUP2 SUB PUSH1 0x0 DUP4 ADD MSTORE PUSH2 0x4996 DUP2 PUSH2 0x4288 JUMP JUMPDEST SWAP1 POP SWAP2 SWAP1 POP JUMP JUMPDEST PUSH1 0x0 PUSH1 0x20 DUP3 ADD SWAP1 POP DUP2 DUP2 SUB PUSH1 0x0 DUP4 ADD MSTORE PUSH2 0x49B6 DUP2 PUSH2 0x42AB JUMP JUMPDEST SWAP1 POP SWAP2 SWAP1 POP JUMP JUMPDEST PUSH1 0x0 PUSH1 0x20 DUP3 ADD SWAP1 POP DUP2 DUP2 SUB PUSH1 0x0 DUP4 ADD MSTORE PUSH2 0x49D6 DUP2 PUSH2 0x42CE JUMP JUMPDEST SWAP1 POP SWAP2 SWAP1 POP JUMP JUMPDEST PUSH1 0x0 PUSH1 0x20 DUP3 ADD SWAP1 POP DUP2 DUP2 SUB PUSH1 0x0 DUP4 ADD MSTORE PUSH2 0x49F6 DUP2 PUSH2 0x42F1 JUMP JUMPDEST SWAP1 POP SWAP2 SWAP1 POP JUMP JUMPDEST PUSH1 0x0 PUSH1 0x20 DUP3 ADD SWAP1 POP DUP2 DUP2 SUB PUSH1 0x0 DUP4 ADD MSTORE PUSH2 0x4A16 DUP2 PUSH2 0x4314 JUMP JUMPDEST SWAP1 POP SWAP2 SWAP1 POP JUMP JUMPDEST PUSH1 0x0 PUSH1 0x20 DUP3 ADD SWAP1 POP DUP2 DUP2 SUB PUSH1 0x0 DUP4 ADD MSTORE PUSH2 0x4A36 DUP2 PUSH2 0x4337 JUMP JUMPDEST SWAP1 POP SWAP2 SWAP1 POP JUMP JUMPDEST PUSH1 0x0 PUSH1 0x20 DUP3 ADD SWAP1 POP DUP2 DUP2 SUB PUSH1 0x0 DUP4 ADD MSTORE PUSH2 0x4A56 DUP2 PUSH2 0x435A JUMP JUMPDEST SWAP1 POP SWAP2 SWAP1 POP JUMP JUMPDEST PUSH1 0x0 PUSH1 0x20 DUP3 ADD SWAP1 POP DUP2 DUP2 SUB PUSH1 0x0 DUP4 ADD MSTORE PUSH2 0x4A76 DUP2 PUSH2 0x437D JUMP JUMPDEST SWAP1 POP SWAP2 SWAP1 POP JUMP JUMPDEST PUSH1 0x0 PUSH1 0x20 DUP3 ADD SWAP1 POP DUP2 DUP2 SUB PUSH1 0x0 DUP4 ADD MSTORE PUSH2 0x4A96 DUP2 PUSH2 0x43A0 JUMP JUMPDEST SWAP1 POP SWAP2 SWAP1 POP JUMP JUMPDEST PUSH1 0x0 PUSH1 0x20 DUP3 ADD SWAP1 POP DUP2 DUP2 SUB PUSH1 0x0 DUP4 ADD MSTORE PUSH2 0x4AB6 DUP2 PUSH2 0x43C3 JUMP JUMPDEST SWAP1 POP SWAP2 SWAP1 POP JUMP JUMPDEST PUSH1 0x0 PUSH1 0x20 DUP3 ADD SWAP1 POP DUP2 DUP2 SUB PUSH1 0x0 DUP4 ADD MSTORE PUSH2 0x4AD6 DUP2 PUSH2 0x43E6 JUMP JUMPDEST SWAP1 POP SWAP2 SWAP1 POP JUMP JUMPDEST PUSH1 0x0 PUSH1 0x20 DUP3 ADD SWAP1 POP DUP2 DUP2 SUB PUSH1 0x0 DUP4 ADD MSTORE PUSH2 0x4AF6 DUP2 PUSH2 0x4409 JUMP JUMPDEST SWAP1 POP SWAP2 SWAP1 POP JUMP JUMPDEST PUSH1 0x0 PUSH1 0x20 DUP3 ADD SWAP1 POP DUP2 DUP2 SUB PUSH1 0x0 DUP4 ADD MSTORE PUSH2 0x4B16 DUP2 PUSH2 0x442C JUMP JUMPDEST SWAP1 POP SWAP2 SWAP1 POP JUMP JUMPDEST PUSH1 0x0 PUSH1 0x20 DUP3 ADD SWAP1 POP DUP2 DUP2 SUB PUSH1 0x0 DUP4 ADD MSTORE PUSH2 0x4B36 DUP2 PUSH2 0x444F JUMP JUMPDEST SWAP1 POP SWAP2 SWAP1 POP JUMP JUMPDEST PUSH1 0x0 PUSH1 0x20 DUP3 ADD SWAP1 POP DUP2 DUP2 SUB PUSH1 0x0 DUP4 ADD MSTORE PUSH2 0x4B56 DUP2 PUSH2 0x4472 JUMP JUMPDEST SWAP1 POP SWAP2 SWAP1 POP JUMP JUMPDEST PUSH1 0x0 PUSH1 0x20 DUP3 ADD SWAP1 POP DUP2 DUP2 SUB PUSH1 0x0 DUP4 ADD MSTORE PUSH2 0x4B76 DUP2 PUSH2 0x4495 JUMP JUMPDEST SWAP1 POP SWAP2 SWAP1 POP JUMP JUMPDEST PUSH1 0x0 PUSH1 0x20 DUP3 ADD SWAP1 POP DUP2 DUP2 SUB PUSH1 0x0 DUP4 ADD MSTORE PUSH2 0x4B96 DUP2 PUSH2 0x44B8 JUMP JUMPDEST SWAP1 POP SWAP2 SWAP1 POP JUMP JUMPDEST PUSH1 0x0 PUSH1 0x20 DUP3 ADD SWAP1 POP DUP2 DUP2 SUB PUSH1 0x0 DUP4 ADD MSTORE PUSH2 0x4BB6 DUP2 PUSH2 0x44DB JUMP JUMPDEST SWAP1 POP SWAP2 SWAP1 POP JUMP JUMPDEST PUSH1 0x0 PUSH1 0x20 DUP3 ADD SWAP1 POP DUP2 DUP2 SUB PUSH1 0x0 DUP4 ADD MSTORE PUSH2 0x4BD6 DUP2 PUSH2 0x44FE JUMP JUMPDEST SWAP1 POP SWAP2 SWAP1 POP JUMP JUMPDEST PUSH1 0x0 PUSH1 0x20 DUP3 ADD SWAP1 POP DUP2 DUP2 SUB PUSH1 0x0 DUP4 ADD MSTORE PUSH2 0x4BF6 DUP2 PUSH2 0x4521 JUMP JUMPDEST SWAP1 POP SWAP2 SWAP1 POP JUMP JUMPDEST PUSH1 0x0 PUSH1 0x20 DUP3 ADD SWAP1 POP PUSH2 0x4C12 PUSH1 0x0 DUP4 ADD DUP5 PUSH2 0x4544 JUMP JUMPDEST SWAP3 SWAP2 POP POP JUMP JUMPDEST PUSH1 0x0 PUSH1 0x20 DUP3 ADD SWAP1 POP PUSH2 0x4C2D PUSH1 0x0 DUP4 ADD DUP5 PUSH2 0x4553 JUMP JUMPDEST SWAP3 SWAP2 POP POP JUMP JUMPDEST PUSH1 0x0 PUSH2 0x4C3D PUSH2 0x4C4E JUMP JUMPDEST SWAP1 POP PUSH2 0x4C49 DUP3 DUP3 PUSH2 0x4EEB JUMP JUMPDEST SWAP2 SWAP1 POP JUMP JUMPDEST PUSH1 0x0 PUSH1 0x40 MLOAD SWAP1 POP SWAP1 JUMP JUMPDEST PUSH1 0x0 PUSH8 0xFFFFFFFFFFFFFFFF DUP3 GT ISZERO PUSH2 0x4C73 JUMPI PUSH2 0x4C72 PUSH2 0x5100 JUMP JUMPDEST JUMPDEST PUSH2 0x4C7C DUP3 PUSH2 0x5143 JUMP JUMPDEST SWAP1 POP PUSH1 0x20 DUP2 ADD SWAP1 POP SWAP2 SWAP1 POP JUMP JUMPDEST PUSH1 0x0 DUP2 SWAP1 POP DUP2 PUSH1 0x0 MSTORE PUSH1 0x20 PUSH1 0x0 KECCAK256 SWAP1 POP SWAP2 SWAP1 POP JUMP JUMPDEST PUSH1 0x0 DUP2 MLOAD SWAP1 POP SWAP2 SWAP1 POP JUMP JUMPDEST PUSH1 0x0 DUP3 DUP3 MSTORE PUSH1 0x20 DUP3 ADD SWAP1 POP SWAP3 SWAP2 POP POP JUMP JUMPDEST PUSH1 0x0 DUP2 SWAP1 POP SWAP3 SWAP2 POP POP JUMP JUMPDEST PUSH1 0x0 PUSH2 0x4CD0 DUP3 PUSH2 0x4E4E JUMP JUMPDEST SWAP2 POP PUSH2 0x4CDB DUP4 PUSH2 0x4E4E JUMP JUMPDEST SWAP3 POP DUP3 PUSH32 0xFFFFFFFFFFFFFFFFFFFFFFFFFFFFFFFFFFFFFFFFFFFFFFFFFFFFFFFFFFFFFFFF SUB DUP3 GT ISZERO PUSH2 0x4D10 JUMPI PUSH2 0x4D0F PUSH2 0x5015 JUMP JUMPDEST JUMPDEST DUP3 DUP3 ADD SWAP1 POP SWAP3 SWAP2 POP POP JUMP JUMPDEST PUSH1 0x0 PUSH2 0x4D26 DUP3 PUSH2 0x4E4E JUMP JUMPDEST SWAP2 POP PUSH2 0x4D31 DUP4 PUSH2 0x4E4E JUMP JUMPDEST SWAP3 POP DUP3 PUSH2 0x4D41 JUMPI PUSH2 0x4D40 PUSH2 0x5044 JUMP JUMPDEST JUMPDEST DUP3 DUP3 DIV SWAP1 POP SWAP3 SWAP2 POP POP JUMP JUMPDEST PUSH1 0x0 PUSH2 0x4D57 DUP3 PUSH2 0x4E4E JUMP JUMPDEST SWAP2 POP PUSH2 0x4D62 DUP4 PUSH2 0x4E4E JUMP JUMPDEST SWAP3 POP DUP2 PUSH32 0xFFFFFFFFFFFFFFFFFFFFFFFFFFFFFFFFFFFFFFFFFFFFFFFFFFFFFFFFFFFFFFFF DIV DUP4 GT DUP3 ISZERO ISZERO AND ISZERO PUSH2 0x4D9B JUMPI PUSH2 0x4D9A PUSH2 0x5015 JUMP JUMPDEST JUMPDEST DUP3 DUP3 MUL SWAP1 POP SWAP3 SWAP2 POP POP JUMP JUMPDEST PUSH1 0x0 PUSH2 0x4DB1 DUP3 PUSH2 0x4E20 JUMP JUMPDEST SWAP2 POP PUSH2 0x4DBC DUP4 PUSH2 0x4E20 JUMP JUMPDEST SWAP3 POP DUP3 DUP3 LT ISZERO PUSH2 0x4DCF JUMPI PUSH2 0x4DCE PUSH2 0x5015 JUMP JUMPDEST JUMPDEST DUP3 DUP3 SUB SWAP1 POP SWAP3 SWAP2 POP POP JUMP JUMPDEST PUSH1 0x0 PUSH2 0x4DE5 DUP3 PUSH2 0x4E4E JUMP JUMPDEST SWAP2 POP PUSH2 0x4DF0 DUP4 PUSH2 0x4E4E JUMP JUMPDEST SWAP3 POP DUP3 DUP3 LT ISZERO PUSH2 0x4E03 JUMPI PUSH2 0x4E02 PUSH2 0x5015 JUMP JUMPDEST JUMPDEST DUP3 DUP3 SUB SWAP1 POP SWAP3 SWAP2 POP POP JUMP JUMPDEST PUSH1 0x0 PUSH2 0x4E19 DUP3 PUSH2 0x4E2E JUMP JUMPDEST SWAP1 POP SWAP2 SWAP1 POP JUMP JUMPDEST PUSH1 0x0 PUSH2 0xFFFF DUP3 AND SWAP1 POP SWAP2 SWAP1 POP JUMP JUMPDEST PUSH1 0x0 PUSH20 0xFFFFFFFFFFFFFFFFFFFFFFFFFFFFFFFFFFFFFFFF DUP3 AND SWAP1 POP SWAP2 SWAP1 POP JUMP JUMPDEST PUSH1 0x0 DUP2 SWAP1 POP SWAP2 SWAP1 POP JUMP JUMPDEST PUSH1 0x0 PUSH1 0xFF DUP3 AND SWAP1 POP SWAP2 SWAP1 POP JUMP JUMPDEST PUSH1 0x0 PUSH2 0x4E70 DUP3 PUSH2 0x4E4E JUMP JUMPDEST SWAP1 POP SWAP2 SWAP1 POP JUMP JUMPDEST DUP3 DUP2 DUP4 CALLDATACOPY PUSH1 0x0 DUP4 DUP4 ADD MSTORE POP POP POP JUMP JUMPDEST PUSH1 0x0 JUMPDEST DUP4 DUP2 LT ISZERO PUSH2 0x4EA4 JUMPI DUP1 DUP3 ADD MLOAD DUP2 DUP5 ADD MSTORE PUSH1 0x20 DUP2 ADD SWAP1 POP PUSH2 0x4E89 JUMP JUMPDEST DUP4 DUP2 GT ISZERO PUSH2 0x4EB3 JUMPI PUSH1 0x0 DUP5 DUP5 ADD MSTORE JUMPDEST POP POP POP POP JUMP JUMPDEST PUSH1 0x0 PUSH1 0x2 DUP3 DIV SWAP1 POP PUSH1 0x1 DUP3 AND DUP1 PUSH2 0x4ED1 JUMPI PUSH1 0x7F DUP3 AND SWAP2 POP JUMPDEST PUSH1 0x20 DUP3 LT DUP2 EQ ISZERO PUSH2 0x4EE5 JUMPI PUSH2 0x4EE4 PUSH2 0x5073 JUMP JUMPDEST JUMPDEST POP SWAP2 SWAP1 POP JUMP JUMPDEST PUSH2 0x4EF4 DUP3 PUSH2 0x5143 JUMP JUMPDEST DUP2 ADD DUP2 DUP2 LT PUSH8 0xFFFFFFFFFFFFFFFF DUP3 GT OR ISZERO PUSH2 0x4F13 JUMPI PUSH2 0x4F12 PUSH2 0x5100 JUMP JUMPDEST JUMPDEST DUP1 PUSH1 0x40 MSTORE POP POP POP JUMP JUMPDEST PUSH1 0x0 PUSH2 0x4F27 DUP3 PUSH2 0x4E4E JUMP JUMPDEST SWAP2 POP PUSH32 0xFFFFFFFFFFFFFFFFFFFFFFFFFFFFFFFFFFFFFFFFFFFFFFFFFFFFFFFFFFFFFFFF DUP3 EQ ISZERO PUSH2 0x4F5A JUMPI PUSH2 0x4F59 PUSH2 0x5015 JUMP JUMPDEST JUMPDEST PUSH1 0x1 DUP3 ADD SWAP1 POP SWAP2 SWAP1 POP JUMP JUMPDEST PUSH1 0x0 PUSH2 0x4F70 DUP3 PUSH2 0x4E58 JUMP JUMPDEST SWAP2 POP PUSH1 0xFF DUP3 EQ ISZERO PUSH2 0x4F84 JUMPI PUSH2 0x4F83 PUSH2 0x5015 JUMP JUMPDEST JUMPDEST PUSH1 0x1 DUP3 ADD SWAP1 POP SWAP2 SWAP1 POP JUMP JUMPDEST PUSH1 0x0 PUSH2 0x4F9A DUP3 PUSH2 0x4FA1 JUMP JUMPDEST SWAP1 POP SWAP2 SWAP1 POP JUMP JUMPDEST PUSH1 0x0 PUSH2 0x4FAC DUP3 PUSH2 0x5154 JUMP JUMPDEST SWAP1 POP SWAP2 SWAP1 POP JUMP JUMPDEST PUSH1 0x0 PUSH2 0x4FBE DUP3 PUSH2 0x4E20 JUMP JUMPDEST SWAP2 POP PUSH2 0x4FC9 DUP4 PUSH2 0x4E20 JUMP JUMPDEST SWAP3 POP DUP3 PUSH2 0x4FD9 JUMPI PUSH2 0x4FD8 PUSH2 0x5044 JUMP JUMPDEST JUMPDEST DUP3 DUP3 MOD SWAP1 POP SWAP3 SWAP2 POP POP JUMP JUMPDEST PUSH1 0x0 PUSH2 0x4FEF DUP3 PUSH2 0x4E4E JUMP JUMPDEST SWAP2 POP PUSH2 0x4FFA DUP4 PUSH2 0x4E4E JUMP JUMPDEST SWAP3 POP DUP3 PUSH2 0x500A JUMPI PUSH2 0x5009 PUSH2 0x5044 JUMP JUMPDEST JUMPDEST DUP3 DUP3 MOD SWAP1 POP SWAP3 SWAP2 POP POP JUMP JUMPDEST PUSH32 0x4E487B7100000000000000000000000000000000000000000000000000000000 PUSH1 0x0 MSTORE PUSH1 0x11 PUSH1 0x4 MSTORE PUSH1 0x24 PUSH1 0x0 REVERT JUMPDEST PUSH32 0x4E487B7100000000000000000000000000000000000000000000000000000000 PUSH1 0x0 MSTORE PUSH1 0x12 PUSH1 0x4 MSTORE PUSH1 0x24 PUSH1 0x0 REVERT JUMPDEST PUSH32 0x4E487B7100000000000000000000000000000000000000000000000000000000 PUSH1 0x0 MSTORE PUSH1 0x22 PUSH1 0x4 MSTORE PUSH1 0x24 PUSH1 0x0 REVERT JUMPDEST PUSH32 0x4E487B7100000000000000000000000000000000000000000000000000000000 PUSH1 0x0 MSTORE PUSH1 0x31 PUSH1 0x4 MSTORE PUSH1 0x24 PUSH1 0x0 REVERT JUMPDEST PUSH32 0x4E487B7100000000000000000000000000000000000000000000000000000000 PUSH1 0x0 MSTORE PUSH1 0x32 PUSH1 0x4 MSTORE PUSH1 0x24 PUSH1 0x0 REVERT JUMPDEST PUSH32 0x4E487B7100000000000000000000000000000000000000000000000000000000 PUSH1 0x0 MSTORE PUSH1 0x41 PUSH1 0x4 MSTORE PUSH1 0x24 PUSH1 0x0 REVERT JUMPDEST PUSH1 0x0 DUP1 REVERT JUMPDEST PUSH1 0x0 DUP1 REVERT JUMPDEST PUSH1 0x0 DUP1 REVERT JUMPDEST PUSH1 0x0 DUP1 REVERT JUMPDEST PUSH1 0x0 PUSH1 0x1F NOT PUSH1 0x1F DUP4 ADD AND SWAP1 POP SWAP2 SWAP1 POP JUMP JUMPDEST PUSH1 0x0 DUP2 PUSH1 0x60 SHL SWAP1 POP SWAP2 SWAP1 POP JUMP JUMPDEST PUSH32 0x4E6F742061205265676973746572656420526174696F6E2053686F702E2E2E2E PUSH1 0x0 DUP3 ADD MSTORE POP JUMP JUMPDEST PUSH32 0x4F6E6C79206F776E65722063616E2072656769737465722061206E6577204974 PUSH1 0x0 DUP3 ADD MSTORE PUSH32 0x656D2E0000000000000000000000000000000000000000000000000000000000 PUSH1 0x20 DUP3 ADD MSTORE POP JUMP JUMPDEST PUSH32 0x4F6E6C79204F776E65722043616E2044656C6574652044657461696C73204F66 PUSH1 0x0 DUP3 ADD MSTORE PUSH32 0x20526174696F6E00000000000000000000000000000000000000000000000000 PUSH1 0x20 DUP3 ADD MSTORE POP JUMP JUMPDEST PUSH32 0x4E6F74206120526567697374657220526174696F6E2053686F702E2E2E2E0000 PUSH1 0x0 DUP3 ADD MSTORE POP JUMP JUMPDEST PUSH32 0x416C72656164792052656769737465726564204974656D000000000000000000 PUSH1 0x0 DUP3 ADD MSTORE POP JUMP JUMPDEST PUSH32 0x4E6F742061205265676973746572656420496E646976696475616C2043697469 PUSH1 0x0 DUP3 ADD MSTORE PUSH32 0x7A656E2E2E2E2E00000000000000000000000000000000000000000000000000 PUSH1 0x20 DUP3 ADD MSTORE POP JUMP JUMPDEST PUSH32 0x546F64617920526174696F6E2077696C6C206E6F742062652070726F76696465 PUSH1 0x0 DUP3 ADD MSTORE PUSH32 0x642E2E2E204B696E646C7920566973697420546F6D6F72726F7720746F204C61 PUSH1 0x20 DUP3 ADD MSTORE PUSH32 0x737420646179206F6620746865204D6F6E746820466F7220526174696F6E0000 PUSH1 0x40 DUP3 ADD MSTORE POP JUMP JUMPDEST PUSH32 0x4F6E6C7920537461746520476F7665726E6D656E742063616E2043616E63656C PUSH1 0x0 DUP3 ADD MSTORE PUSH32 0x20746865204C6963656E7365206F6620526174696F6E2053686F702E2E2E2E00 PUSH1 0x20 DUP3 ADD MSTORE POP JUMP JUMPDEST PUSH32 0x416C72656164792072656769737465726564205075626C696320446973747269 PUSH1 0x0 DUP3 ADD MSTORE PUSH32 0x627574696F6E2053686F702E2E2E2E0000000000000000000000000000000000 PUSH1 0x20 DUP3 ADD MSTORE POP JUMP JUMPDEST PUSH32 0x54686973206974656D206973206E6F742070726573656E7420696E2074686520 PUSH1 0x0 DUP3 ADD MSTORE PUSH32 0x526174696F6E2053686F702E2E2E2E0000000000000000000000000000000000 PUSH1 0x20 DUP3 ADD MSTORE POP JUMP JUMPDEST PUSH32 0x546F646179206973206E6F742074686520666972737420446179206F66207468 PUSH1 0x0 DUP3 ADD MSTORE PUSH32 0x65204D6F6E746800000000000000000000000000000000000000000000000000 PUSH1 0x20 DUP3 ADD MSTORE POP JUMP JUMPDEST PUSH32 0x54686973206974656D206973206E6F74207265676973746572656420666F7220 PUSH1 0x0 DUP3 ADD MSTORE PUSH32 0x726174696F6E2064656C69766572792E2E2E2E00000000000000000000000000 PUSH1 0x20 DUP3 ADD MSTORE POP JUMP JUMPDEST PUSH32 0x4F6E6C7920537461746520476F7665726E6D656E742063616E20726567697374 PUSH1 0x0 DUP3 ADD MSTORE PUSH32 0x6572205075626C696320446973747269627574696F6E2053686F702E2E2E2E00 PUSH1 0x20 DUP3 ADD MSTORE POP JUMP JUMPDEST PUSH32 0x4F6E6C79206F776E65722063616E207265676973746572206120537461746520 PUSH1 0x0 DUP3 ADD MSTORE PUSH32 0x476F7665726E6D656E742E000000000000000000000000000000000000000000 PUSH1 0x20 DUP3 ADD MSTORE POP JUMP JUMPDEST PUSH32 0x54686973206974656D206973206E6F74207265676973746572656420666F7220 PUSH1 0x0 DUP3 ADD MSTORE PUSH32 0x726174696F6E2064656C69766572792E00000000000000000000000000000000 PUSH1 0x20 DUP3 ADD MSTORE POP JUMP JUMPDEST PUSH32 0x4F6E6C7920537461746520476F7665726E6D656E742063616E2043616E63656C PUSH1 0x0 DUP3 ADD MSTORE PUSH32 0x2074686520526567697374726174696F6E5F6F665F496E646976696475616C5F PUSH1 0x20 DUP3 ADD MSTORE PUSH32 0x636974697A656E2E2E2E2E000000000000000000000000000000000000000000 PUSH1 0x40 DUP3 ADD MSTORE POP JUMP JUMPDEST PUSH32 0x4E6F74206120526567697374657220436974697A656E2E2E2E2E000000000000 PUSH1 0x0 DUP3 ADD MSTORE POP JUMP JUMPDEST PUSH32 0x416C7265616479207265676973746572656420757365722E2E2E2E0000000000 PUSH1 0x0 DUP3 ADD MSTORE POP JUMP JUMPDEST PUSH32 0x54686973206974656D20697320616C72656164792074616B656E206279207468 PUSH1 0x0 DUP3 ADD MSTORE PUSH32 0x6520636974697A656E2E2E2E2E204B696E646C79206275792074686973206974 PUSH1 0x20 DUP3 ADD MSTORE PUSH32 0x656D20696E20746865206E657874206D6F6E74682E2E2E2E0000000000000000 PUSH1 0x40 DUP3 ADD MSTORE POP JUMP JUMPDEST PUSH32 0x4F6E6C7920537461746520476F7665726E6D656E742063616E20416464204974 PUSH1 0x0 DUP3 ADD MSTORE PUSH32 0x656D20696E20526174696F6E2053686F702E2E2E2E0000000000000000000000 PUSH1 0x20 DUP3 ADD MSTORE POP JUMP JUMPDEST PUSH32 0x416C726561647920526567697374657265642077697468207468652045746865 PUSH1 0x0 DUP3 ADD MSTORE PUSH32 0x7265756D20416464726573732E2E2E2E00000000000000000000000000000000 PUSH1 0x20 DUP3 ADD MSTORE POP JUMP JUMPDEST PUSH32 0x4E6F7420612052656769737465726564204974656D2E2E2E2E2E000000000000 PUSH1 0x0 DUP3 ADD MSTORE POP JUMP JUMPDEST PUSH32 0x4F6E6C79205265676973746572656420537461746520476F7665726E6D656E74 PUSH1 0x0 DUP3 ADD MSTORE PUSH32 0x2063616E20726567697374657220496E646976696475616C20557365722E2E2E PUSH1 0x20 DUP3 ADD MSTORE PUSH32 0x2E00000000000000000000000000000000000000000000000000000000000000 PUSH1 0x40 DUP3 ADD MSTORE POP JUMP JUMPDEST PUSH2 0x5837 DUP2 PUSH2 0x4E0E JUMP JUMPDEST DUP2 EQ PUSH2 0x5842 JUMPI PUSH1 0x0 DUP1 REVERT JUMPDEST POP JUMP JUMPDEST PUSH2 0x584E DUP2 PUSH2 0x4E4E JUMP JUMPDEST DUP2 EQ PUSH2 0x5859 JUMPI PUSH1 0x0 DUP1 REVERT JUMPDEST POP JUMP INVALID LOG2 PUSH5 0x6970667358 0x22 SLT KECCAK256 CALLDATASIZE GASPRICE JUMPI CREATE BALANCE 0xE9 EQ 0xE6 0xDA ISZERO SWAP5 DUP13 0xD4 LOG3 0xE6 BASEFEE 0xA7 0xB0 0x1F 0xF6 DUP7 PUSH19 0x98F0D9D798D736E65E9764736F6C6343000807 STOP CALLER "
		},
		"gasEstimates": {
			"creation": {
				"codeDepositCost": "4534800",
				"executionCost": "29552",
				"totalCost": "4564352"
			},
			"external": {
				"Add_Item(string,uint256,uint256,uint256)": "infinite",
				"Add_Item_In_Ration_Shop(address,string,uint256)": "infinite",
				"Cancellation_of_Individual_Citizen(address)": "infinite",
				"Cancellation_of_Ration_shop(address)": "infinite",
				"Delete_Ration_Details()": "infinite",
				"Edit_Add_Item_details(string,uint256,uint256,uint256)": "infinite",
				"GoodsList(uint256)": "infinite",
				"ListItem(uint256)": "infinite",
				"Ration_delivery(uint256)": "infinite",
				"Ration_distribution_to_Public(address,string)": "infinite",
				"Registration_Of_State_Government(address,string)": "infinite",
				"Registration_of_Individual_citizen(address,string,string,uint256,string,string)": "infinite",
				"Registration_of_Ration_Shop(address,string,string)": "infinite",
				"citizen(address)": "infinite",
				"getDay(uint256)": "infinite",
				"owner()": "2622",
				"shop(address)": "infinite",
				"state_gov(uint256)": "infinite"
			}
		},
		"methodIdentifiers": {
			"Add_Item(string,uint256,uint256,uint256)": "8ae91cee",
			"Add_Item_In_Ration_Shop(address,string,uint256)": "c02ebf32",
			"Cancellation_of_Individual_Citizen(address)": "277cebee",
			"Cancellation_of_Ration_shop(address)": "420dc45f",
			"Delete_Ration_Details()": "a1bb71e5",
			"Edit_Add_Item_details(string,uint256,uint256,uint256)": "b471377f",
			"GoodsList(uint256)": "c22d5f60",
			"ListItem(uint256)": "842eb165",
			"Ration_delivery(uint256)": "bf6d2476",
			"Ration_distribution_to_Public(address,string)": "adf5902b",
			"Registration_Of_State_Government(address,string)": "536fde7d",
			"Registration_of_Individual_citizen(address,string,string,uint256,string,string)": "d3994e9c",
			"Registration_of_Ration_Shop(address,string,string)": "f96dc1d5",
			"citizen(address)": "9b86a6db",
			"getDay(uint256)": "65c72840",
			"owner()": "8da5cb5b",
			"shop(address)": "51a6c693",
			"state_gov(uint256)": "8690124e"
		}
	},
	"abi": [
		{
			"inputs": [],
			"stateMutability": "nonpayable",
			"type": "constructor"
		},
		{
			"anonymous": false,
			"inputs": [
				{
					"indexed": false,
					"internalType": "string",
					"name": "StateName",
					"type": "string"
				},
				{
					"indexed": false,
					"internalType": "address",
					"name": "BeneficiaryEthAddress",
					"type": "address"
				},
				{
					"indexed": false,
					"internalType": "string",
					"name": "BeneficiaryName",
					"type": "string"
				},
				{
					"indexed": false,
					"internalType": "string",
					"name": "BeneficiaryAddress",
					"type": "string"
				},
				{
					"indexed": false,
					"internalType": "uint256",
					"name": "BeneficiaryPovertyLine",
					"type": "uint256"
				},
				{
					"indexed": false,
					"internalType": "string",
					"name": "BeneficiaryIdentityProofName",
					"type": "string"
				},
				{
					"indexed": false,
					"internalType": "string",
					"name": "BeneficiaryIdentityProofNo",
					"type": "string"
				},
				{
					"indexed": false,
					"internalType": "uint256",
					"name": "Validity",
					"type": "uint256"
				}
			],
			"name": "BeneficiaryRegistration",
			"type": "event"
		},
		{
			"anonymous": false,
			"inputs": [
				{
					"indexed": false,
					"internalType": "string",
					"name": "Name",
					"type": "string"
				},
				{
					"indexed": false,
					"internalType": "uint256",
					"name": "BelowPovertyPrice",
					"type": "uint256"
				},
				{
					"indexed": false,
					"internalType": "uint256",
					"name": "AbovePovertyPrice",
					"type": "uint256"
				},
				{
					"indexed": false,
					"internalType": "uint256",
					"name": "Weight",
					"type": "uint256"
				}
			],
			"name": "Items",
			"type": "event"
		},
		{
			"anonymous": false,
			"inputs": [
				{
					"indexed": false,
					"internalType": "address",
					"name": "RationShopEthAddress",
					"type": "address"
				},
				{
					"indexed": false,
					"internalType": "address",
					"name": "BeneficiaryEthAddress",
					"type": "address"
				},
				{
					"indexed": false,
					"internalType": "string",
					"name": "ItemName",
					"type": "string"
				},
				{
					"indexed": false,
					"internalType": "uint256",
					"name": "ItemPrice",
					"type": "uint256"
				},
				{
					"indexed": false,
					"internalType": "uint256",
					"name": "ItemWeight",
					"type": "uint256"
				},
				{
					"indexed": false,
					"internalType": "uint256",
					"name": "DeliveryTime",
					"type": "uint256"
				},
				{
					"indexed": false,
					"internalType": "uint256",
					"name": "ReceiptNo",
					"type": "uint256"
				}
			],
			"name": "RationDelivery",
			"type": "event"
		},
		{
			"anonymous": false,
			"inputs": [
				{
					"indexed": false,
					"internalType": "string",
					"name": "StateName",
					"type": "string"
				},
				{
					"indexed": false,
					"internalType": "address",
					"name": "RationShopEthAddress",
					"type": "address"
				},
				{
					"indexed": false,
					"internalType": "string",
					"name": "RationShopOwner",
					"type": "string"
				},
				{
					"indexed": false,
					"internalType": "string",
					"name": "RationShopAddress",
					"type": "string"
				},
				{
					"indexed": false,
					"internalType": "uint256",
					"name": "valid",
					"type": "uint256"
				}
			],
			"name": "RationShopRegistration",
			"type": "event"
		},
		{
			"anonymous": false,
			"inputs": [
				{
					"indexed": false,
					"internalType": "address",
					"name": "state_government",
					"type": "address"
				},
				{
					"indexed": false,
					"internalType": "string",
					"name": "state_name",
					"type": "string"
				}
			],
			"name": "State_Government_Details",
			"type": "event"
		},
		{
			"inputs": [
				{
					"internalType": "string",
					"name": "ip_item_name",
					"type": "string"
				},
				{
					"internalType": "uint256",
					"name": "ip_below_poverty_line_price",
					"type": "uint256"
				},
				{
					"internalType": "uint256",
					"name": "ip_above_poverty_line_price",
					"type": "uint256"
				},
				{
					"internalType": "uint256",
					"name": "ip_weight_of_item",
					"type": "uint256"
				}
			],
			"name": "Add_Item",
			"outputs": [],
			"stateMutability": "nonpayable",
			"type": "function"
		},
		{
			"inputs": [
				{
					"internalType": "address",
					"name": "ip_Ethereum_address_of_Ration_shop",
					"type": "address"
				},
				{
					"internalType": "string",
					"name": "ip_Item_name",
					"type": "string"
				},
				{
					"internalType": "uint256",
					"name": "ip_weight",
					"type": "uint256"
				}
			],
			"name": "Add_Item_In_Ration_Shop",
			"outputs": [],
			"stateMutability": "nonpayable",
			"type": "function"
		},
		{
			"inputs": [
				{
					"internalType": "address",
					"name": "ip_Ethereum_address_of_individual",
					"type": "address"
				}
			],
			"name": "Cancellation_of_Individual_Citizen",
			"outputs": [],
			"stateMutability": "nonpayable",
			"type": "function"
		},
		{
			"inputs": [
				{
					"internalType": "address",
					"name": "ip_Ethereum_address_of_Ration_shop",
					"type": "address"
				}
			],
			"name": "Cancellation_of_Ration_shop",
			"outputs": [],
			"stateMutability": "nonpayable",
			"type": "function"
		},
		{
			"inputs": [],
			"name": "Delete_Ration_Details",
			"outputs": [],
			"stateMutability": "nonpayable",
			"type": "function"
		},
		{
			"inputs": [
				{
					"internalType": "string",
					"name": "ip_item_name",
					"type": "string"
				},
				{
					"internalType": "uint256",
					"name": "ip_above_poverty_line_price",
					"type": "uint256"
				},
				{
					"internalType": "uint256",
					"name": "ip_below_poverty_line_price",
					"type": "uint256"
				},
				{
					"internalType": "uint256",
					"name": "ip_weight_of_item",
					"type": "uint256"
				}
			],
			"name": "Edit_Add_Item_details",
			"outputs": [],
			"stateMutability": "nonpayable",
			"type": "function"
		},
		{
			"inputs": [
				{
					"internalType": "uint256",
					"name": "",
					"type": "uint256"
				}
			],
			"name": "GoodsList",
			"outputs": [
				{
					"internalType": "string",
					"name": "Load_by_state_name",
					"type": "string"
				},
				{
					"internalType": "address",
					"name": "Ethereum_address_of_Ration_shop",
					"type": "address"
				},
				{
					"internalType": "string",
					"name": "item_name",
					"type": "string"
				},
				{
					"internalType": "uint256",
					"name": "weight",
					"type": "uint256"
				}
			],
			"stateMutability": "view",
			"type": "function"
		},
		{
			"inputs": [
				{
					"internalType": "uint256",
					"name": "",
					"type": "uint256"
				}
			],
			"name": "ListItem",
			"outputs": [
				{
					"internalType": "string",
					"name": "item_name",
					"type": "string"
				},
				{
					"internalType": "uint256",
					"name": "below_poverty_line_price",
					"type": "uint256"
				},
				{
					"internalType": "uint256",
					"name": "above_poverty_line_price",
					"type": "uint256"
				},
				{
					"internalType": "uint256",
					"name": "weight_of_item",
					"type": "uint256"
				}
			],
			"stateMutability": "view",
			"type": "function"
		},
		{
			"inputs": [
				{
					"internalType": "uint256",
					"name": "",
					"type": "uint256"
				}
			],
			"name": "Ration_delivery",
			"outputs": [
				{
					"internalType": "address",
					"name": "Ethereum_address_of_Ration_shop",
					"type": "address"
				},
				{
					"internalType": "address",
					"name": "Ethereum_address_of_individual",
					"type": "address"
				},
				{
					"internalType": "string",
					"name": "Item_name",
					"type": "string"
				},
				{
					"internalType": "uint256",
					"name": "price",
					"type": "uint256"
				},
				{
					"internalType": "uint256",
					"name": "weight",
					"type": "uint256"
				},
				{
					"internalType": "uint256",
					"name": "time_of_delivery",
					"type": "uint256"
				},
				{
					"internalType": "uint256",
					"name": "ReceiptNo",
					"type": "uint256"
				}
			],
			"stateMutability": "view",
			"type": "function"
		},
		{
			"inputs": [
				{
					"internalType": "address",
					"name": "ip_Ethereum_address_of_individual",
					"type": "address"
				},
				{
					"internalType": "string",
					"name": "ip_Item_name",
					"type": "string"
				}
			],
			"name": "Ration_distribution_to_Public",
			"outputs": [
				{
					"internalType": "uint256",
					"name": "",
					"type": "uint256"
				}
			],
			"stateMutability": "nonpayable",
			"type": "function"
		},
		{
			"inputs": [
				{
					"internalType": "address",
					"name": "ip_state_government",
					"type": "address"
				},
				{
					"internalType": "string",
					"name": "ip_state_name",
					"type": "string"
				}
			],
			"name": "Registration_Of_State_Government",
			"outputs": [],
			"stateMutability": "nonpayable",
			"type": "function"
		},
		{
			"inputs": [
				{
					"internalType": "address",
					"name": "ip_Ethereum_address_of_individual",
					"type": "address"
				},
				{
					"internalType": "string",
					"name": "ip_individual_name",
					"type": "string"
				},
				{
					"internalType": "string",
					"name": "ip_address_of_individual",
					"type": "string"
				},
				{
					"internalType": "uint256",
					"name": "ip_poverty_line",
					"type": "uint256"
				},
				{
					"internalType": "string",
					"name": "ip_identity_proof_name",
					"type": "string"
				},
				{
					"internalType": "string",
					"name": "ip_identity_proof",
					"type": "string"
				}
			],
			"name": "Registration_of_Individual_citizen",
			"outputs": [],
			"stateMutability": "nonpayable",
			"type": "function"
		},
		{
			"inputs": [
				{
					"internalType": "address",
					"name": "ip_Ethereum_address_of_Ration_shop",
					"type": "address"
				},
				{
					"internalType": "string",
					"name": "ip_ration_dealer_name",
					"type": "string"
				},
				{
					"internalType": "string",
					"name": "ip_ration_dealer_address",
					"type": "string"
				}
			],
			"name": "Registration_of_Ration_Shop",
			"outputs": [],
			"stateMutability": "nonpayable",
			"type": "function"
		},
		{
			"inputs": [
				{
					"internalType": "address",
					"name": "",
					"type": "address"
				}
			],
			"name": "citizen",
			"outputs": [
				{
					"internalType": "string",
					"name": "register_by_state_government",
					"type": "string"
				},
				{
					"internalType": "address",
					"name": "Ethereum_address_of_individual",
					"type": "address"
				},
				{
					"internalType": "string",
					"name": "individual_name",
					"type": "string"
				},
				{
					"internalType": "string",
					"name": "address_of_individual",
					"type": "string"
				},
				{
					"internalType": "uint256",
					"name": "poverty_line",
					"type": "uint256"
				},
				{
					"internalType": "string",
					"name": "identity_proof_name",
					"type": "string"
				},
				{
					"internalType": "string",
					"name": "identity_proof",
					"type": "string"
				},
				{
					"internalType": "uint256",
					"name": "valid",
					"type": "uint256"
				}
			],
			"stateMutability": "view",
			"type": "function"
		},
		{
			"inputs": [
				{
					"internalType": "uint256",
					"name": "timestamp",
					"type": "uint256"
				}
			],
			"name": "getDay",
			"outputs": [
				{
					"internalType": "uint8",
					"name": "",
					"type": "uint8"
				}
			],
			"stateMutability": "pure",
			"type": "function"
		},
		{
			"inputs": [],
			"name": "owner",
			"outputs": [
				{
					"internalType": "address",
					"name": "",
					"type": "address"
				}
			],
			"stateMutability": "view",
			"type": "function"
		},
		{
			"inputs": [
				{
					"internalType": "address",
					"name": "",
					"type": "address"
				}
			],
			"name": "shop",
			"outputs": [
				{
					"internalType": "string",
					"name": "register_by_state_government",
					"type": "string"
				},
				{
					"internalType": "address",
					"name": "Ethereum_address_of_Ration_shop",
					"type": "address"
				},
				{
					"internalType": "string",
					"name": "ration_dealer_name",
					"type": "string"
				},
				{
					"internalType": "string",
					"name": "ration_dealer_address",
					"type": "string"
				},
				{
					"internalType": "uint256",
					"name": "valid",
					"type": "uint256"
				}
			],
			"stateMutability": "view",
			"type": "function"
		},
		{
			"inputs": [
				{
					"internalType": "uint256",
					"name": "",
					"type": "uint256"
				}
			],
			"name": "state_gov",
			"outputs": [
				{
					"internalType": "address",
					"name": "state_government",
					"type": "address"
				},
				{
					"internalType": "string",
					"name": "state_name",
					"type": "string"
				}
			],
			"stateMutability": "view",
			"type": "function"
		}
	]
}